:020000040800F2
:10000000D00E00209501000877220008E31D0008AB
:100010007522000857040008BB3B000800000000E0
:10002000000000000000000000000000ED260008B5
:10003000650400080000000069260008EF2600089B
:10004000AF010008AF010008AF010008AF010008D0
:10005000AF010008AF010008AF010008AF010008C0
:10006000AF0100088104000899040008AF010008EE
:10007000AF010008AF010008AF010008AF010008A0
:1000800059040008AF010008AF010008AF010008E3
:10009000493B0008AF010008AF010008B1040008A7
:1000A00000000000AF010008AF010008AF01000828
:1000B000AF010008AF010008AF010008AF01000860
:1000C000AF010008AF010008AF010008AF01000850
:1000D000AF010008AF010008AF010008AF01000840
:1000E00069040008AF0100081D3B00086D270008E7
:1000F0004D28000800F002F800F03CF80AA090E853
:10010000000C82448344AAF10107DA4501D100F0D2
:1001100031F8AFF2090EBAE80F0013F0010F18BF63
:10012000FB1A43F0010318472C5800004C580000FC
:10013000103A24BF78C878C1FAD8520724BF30C813
:1001400030C144BF04680C607047000000230024E5
:1001500000250026103A28BF78C1FBD8520728BFD7
:1001600030C148BF0B607047002070471FB51FBDEE
:1001700010B510BD00F03AF91146FFF7F7FF03F094
:100180002DFD00F058F903B4FFF7F2FF03BC00F0B7
:100190005BF900000948804709480047FEE7FEE791
:1001A000FEE7FEE7FEE7FEE7FEE7FEE7FEE7FEE727
:1001B00004480549054A064B7047000069270008B6
:1001C000F5000008D0080020D00E0020D00A002042
:1001D000D00A002053EA020C00F069802DE9F04BB0
:1001E0004FF00006002B1FBFB3FA83F503FA05F4A6
:1001F00024FA05F65E4012BF1643B2FA82F502FAFF
:1002000005F4C5F120051EBF22FA05FC44EA0C04E2
:10021000203556EA044C4FEA144418BF641C4FF0D2
:1002200000084FF00009904271EB030C39D300290C
:1002300019BFB1FA81F701FA07F6B0FA80F700FAB0
:1002400007F6C7F120071EBF20FA07FC46EA0C0696
:100250002037B6FBF4FCA7EB0507103F07F01F0B98
:10026000CBF120060CFA0BFB2CFA06F644BFB34682
:100270000026202FA4BF5E464FF0000B5BEA060C61
:1002800008BF4FF0010B19EB0B09ABFB027C48EBED
:100290000608C01B06FB02CC0BFB03CC71EB0C0168
:1002A000C1E70B46024641464846BDE8F08B13B510
:1002B0004FF000004FF00001AFF30080BDE81C409C
:1002C000704700000FB41CB5074B06AA7B44694673
:1002D0000090059800F06DF80020694600F07CF869
:1002E0001CBC5DF814FB0000090100002DE9F04181
:1002F0000E460446002020622046E168884730B35D
:10030000252805D0D4E901219047206A401CF2E756
:10031000E168204600278847050018D0A5F1410074
:10032000192802D820354FF4006732462946204666
:100330002760FFF719FF40B1012804D0F61D26F011
:1003400007060836D8E7361DD6E72846DAE7206ADA
:10035000BDE8F0814FF0000200B513469446964682
:10036000203922BFA0E80C50A0E80C50B1F12001C8
:10037000BFF4F7AF090728BFA0E80C5048BF0CC076
:100380005DF804EB890028BF40F8042B08BF7047D4
:1003900048BF20F8022B11F0804F18BF00F8012B46
:1003A000704770477047704701694A1C02610878BE
:1003B000704700B58FB0CDE90131002105910549A5
:1003C0007944CDE9031011466846FFF78FFF0FB05F
:1003D00000BD0000E5FFFFFF0A6802F8010B0A609C
:1003E0007047000000487047700800207546FFF70E
:1003F000F9FFAE4605006946534620F007008546E2
:1004000018B020B5FFF7D4FEBDE820404FF000063D
:100410004FF000074FF000084FF0000B21F00701EC
:10042000AC46ACE8C009ACE8C009ACE8C009ACE82F
:10043000C0098D46704710B50446AFF300802046D2
:10044000BDE81040FFF79FBE01491820ABBEFEE794
:10045000260002007047FEE7014800F045B80000A2
:10046000A00200207047000010B5044801F0BCFB5A
:10047000BDE810404FF4806000F0D6B8E4020020E0
:1004800010B5044801F0B0FBBDE81040082000F0B2
:10049000CBB80000E402002010B5044801F0A4FB32
:1004A000BDE81040102000F0BFB80000E4020020BA
:1004B00010B50B4801F098FB202000F0B5F8402063
:1004C00000F0B2F8802000F0AFF84FF4807000F038
:1004D000ABF8BDE810404FF4007000F0A5B8000084
:1004E000E402002072B6FEE7F0B4C16B0C6801684C
:1004F0000D6890F8402002F01C06042202FA06F370
:10050000234211D06B070FD50B689B0603D40B68F1
:1005100023F004030B6090F8401001F01C018A40A6
:10052000C16B4A60C16A1DE0022303FA06F7274245
:100530004FF0000C4FF0010218D0AF0716D50C6831
:10054000A40605D40C6824F00A040C6080F821206D
:1005500090F8401001F01C018B40C16B4B6080F89B
:1005600020C0816A00291AD0F0BC08470823B34094
:10057000234214D02B0712D50B6823F00E030B6017
:1005800090F84010C36B01F01C0102FA01F15960B0
:10059000826380F8212080F820C0016BE2E7F0BC84
:1005A0007047000030B528B308C813491422194415
:1005B000B1FBF2F18900C1631049816302214177E7
:1005C0001A6847F6F0718A43D0E900142143D0E954
:1005D00002452C4321430469214344692143846932
:1005E00021431143196000214163012242770177C1
:1005F000084630BD012030BDF89FFDBF00600240BD
:1006000070B5044600F040F90546601C02D004486D
:100610004068044400F038F9401BA042FAD370BD92
:100620003800002070470000044910B50A680242F3
:1006300002D00860FFF7F6FF10BD0000140401406F
:100640002DE9F04FDFF80C92002209F1040A012590
:1006500003240AF1040B85B00F260BF1040EF0E021
:1006600005FA02F71CEA07037ED091F804C00CF0EB
:10067000030CBCF1010F02D0BCF1020F26D1D0F85F
:1006800008C0CDF800C04FEA420C04FA0CF8CDF8CF
:1006900010C0DDF800C02CEA080CCDF800C0D1F87D
:1006A0000C80DDF810C008FA0CF8DDF800C048EA4C
:1006B0000C08C0F80880D0F804C02CEA070C0F79A9
:1006C000C7F30017974047EA0C0747600F79FF43CD
:1006D000BF070ED0C7684FEA420804FA08FC27EAB1
:1006E0000C07D1F808C00CFA08FC4CEA070CC0F85B
:1006F0000CC00F7907F00307022F15D1D70800EBC4
:10070000870702973F6A4FEA427C4FEADC6806FAA5
:1007100008FC27EA0C07D1F810C00CFA08FC4CEAD8
:10072000070C029FC7F820C007684FEA420804FA86
:1007300008FC27EA0C0791F804C00CF0030C0CFA33
:1007400008FC4CEA070CC0F800C04F6817F4403FA3
:1007500076D0414FD7F800C04CF0010CC7F800C06C
:100760003F6807F0010700E06AE000973B4F22F086
:10077000030C67440297BF684FEA827C4FEA1C78FB
:1007800006FA08FC27EA0C07DFF8D4C0604502D15E
:100790004FF0000C1DE0DFF8CCC0604502D14FF0F7
:1007A000010C16E0DFF8C0C0604502D14FF0020C2A
:1007B0000FE0DFF8B8C0604502D14FF0030C08E04D
:1007C000DFF8ACC0604502D14FF0040C01E04FF0FF
:1007D000050C0CFA08FC4CEA070C029FC7F808C08D
:1007E000D9F80070CC46D1F804809F435FEAC8383E
:1007F00000D51F43CCF80070DAF80070D446D1F869
:1008000004809F435FEA883800D51F43CCF800700E
:10081000DBF80070DC46D1F804809F435FEAC8280B
:1008200000D51F43CCF80070DEF80070F446D1F814
:1008300004809F435FEA882800D51F43CCF80070EE
:10084000521C0B689C46D3407FF40AAF05B0BDE84C
:10085000F08F0000000401402038024000000140F9
:10086000000002400004024000080240000C024068
:10087000001002400069084000D0012070470AB112
:10088000816170470904FBE70148806870470000F8
:100890003800002070B5040025D094F83D000025F4
:1008A00020B984F83C50204600F050F9242084F808
:1008B0003D002068016821F00101016020680168A5
:1008C00041F4004101602068016821F400410160A9
:1008D00000F09CFE4D4A6168914201D84C4900E00D
:1008E0004C49884201D2012070BD4B492368B0FBBE
:1008F000F1F15E6826F03F060E435E606368934246
:1009000006D94FF4967359434FF47A73B1FBF3F160
:100910002368491C1E6A26F03F063143196261684C
:10092000914210D84900401EB0FBF1F2521CC2F3B4
:100930000B02042A01D2042022E0B0FBF1F0401C9B
:10094000C0F30B001CE0A268F2B301EBC10303EBA0
:100950000116431EB3FBF6F35B1C43F480431B05F7
:1009600049D092B301EBC10202EB0111401EB0FB72
:10097000F1F0401CC0F30B0040F4804040F4004014
:100980002168CA694CF6FF739A431043C861D4E9E1
:10099000071001432068026822F0C0021143016081
:1009A000D4E9030101432068826848F2FF339A4387
:1009B00011438160D4E9050108432168CA6822F027
:1009C000FF021043C86001E00EE016E020680168F5
:1009D00041F0010101602564202084F83D00256379
:1009E00084F83E50002070BD01EB4106431EB3FB6E
:1009F000F6F35B1CB3E70120C2E701EB4101401EA7
:100A0000B0FBF1F0401CC0F30B00B7E7A08601007B
:100A100080841E0000093D0040420F002DE9FF4F79
:100A200083B09A46DDE9119793460446DDF840808D
:100A3000FFF72AFF054694F83D0020287FD11923AF
:100A4000012240492046009501F05EFA002876D147
:100A500094F83C00012872D0012084F83C00206802
:100A60000168C90703D1016841F0010101602068F4
:100A7000016821F400610160212084F83D004020DC
:100A800084F83E0000262664C4F82480A4F82A9046
:100A9000608D20852C48E062CDE9007553465A46AA
:100AA0002046049901F0B6F970B930E02A4639467B
:100AB000204601F0A8FA58B1206C042804D120681F
:100AC000016841F400710160012007B0BDE8F08FBA
:100AD000606A216800780861606A401C6062218D4C
:100AE000491E89B22185628D521E62852268536932
:100AF000DB435B070BD469B100781061606A401C6E
:100B00006062208D401E2085608D401E6085208D96
:100B10000028CBD12A463946204601F0CFF90028DB
:100B2000CAD154F83D0B016841F4007101602020E6
:100B300004F81E09E67766770020C6E7FFE7022083
:100B4000C3E70000020010000000FFFF30B587B0CF
:100B5000054614216846FFF7FDFB1E4928688842B8
:100B600035D11D48016841F0020101600068694605
:100B700000F002000590C02000901220019001209A
:100B8000029003200390042004901448FFF758FDBE
:100B900011480830016841F4001101600068114CEF
:100BA00000F4001005900E48206010200021C4E9D8
:100BB00001018020C4E903016161A1612046E16176
:100BC000FFF7F0FC08B1FFF78DFC6C63656207B0BE
:100BD00030BD0000005400401C38024000040240B8
:100BE0006C600240A0020020024881684268114403
:100BF000816070473800002010B50024032000F009
:100C000079F80F2000F008F808B1012401E000F0A5
:100C100025F8204610BD000070B50E4E0546002494
:100C2000706898B14FF47A71B1FBF0F00A49096825
:100C3000B1FBF0F000F038FF40B9102D06D20022D1
:100C40002946501E00F036F8356000E001242046A9
:100C500070BD000038000020440000200D4808B599
:100C6000016841F000410160016801F0004100911C
:100C7000011F0A6842F001020A60096801F00101DF
:100C80000091016841F080510160006800F08050DF
:100C9000009008BD24380240002809DB00F01F0244
:100CA000012191404009800000F1E020C0F80011CE
:100CB00070470000F0B40E4B1B680C46C3F30223D0
:100CC000C3F10705042D00D90425191D072901D2F8
:100CD000002300E0DB1E012606FA05F1491E214033
:100CE00099409E40761E16403143F0BC02F066BF2C
:100CF0000CED00E0064900F0070208684FF6FF031C
:100D0000184040EA0220034A104308607047000080
:100D10000CED00E00000FA0501EB810200EBC202DD
:100D2000D0F8E802D26B01F061BF01EB810200EB69
:100D3000C202D0F8E802D2F87C2101F0BABF70B547
:100D4000044601F00F006268904201D9012070BD95
:100D50000B0601F0070000EB800104EBC1014FF02E
:100D600001024FF0000503D581F82920283103E066
:100D700081F8695101F5B4718D70087094F8A8027A
:100D8000012808D084F8A822206802F06BFB84F8C0
:100D9000A852002070BD022070BD2DE9F05F0468EC
:100DA0005FEA424C0B788D69B4F850C04FF00006F2
:100DB0004BF68F7948F2800A48F68F7B48F2C00ED6
:100DC0004FF480672AD54FF0020808EBC308C444EB
:100DD00007EB4C07E45BC4F30904A54203D32D1BC6
:100DE0008D6101D00BE08E61066836F8235005EA6C
:100DF000090585F4005545EA0A0526F823505206F0
:100E000009D50D78036833F8252002EA0B0242EA7F
:100E10000E0223F8252084B30A8929E04FF0060842
:100E200008EBC308C44407EB4C07E45BC4F30904B4
:100E3000A54203D32D1B8D6101D00BE08E610668A6
:100E400036F8235005EA090585F4005545EA0A05F8
:100E500026F82350520609D40B78056835F823206C
:100E600002EA0B0242EA0E0225F823202CB14A893D
:100E700049690068234602F071FE2046BDE8F09FF4
:100E80002DE9F05F054600680C465FEA426C1646A5
:100E90008B692278B0F850C048F68F774CF2800901
:100EA0004FF6FF7B4FF4004E4FF4806A4FF0000185
:100EB0007BD54FF0020808EBC208E0440AEB480C6F
:100EC00030F80C00C0F30900834211D91B1AA3614A
:100ED0000FD0730407D52E6836F822303B4043EA22
:100EE000090326F8223094F82420012A50D04EE13C
:100EF000A161607810B1012813D01AE02868B0F819
:100F00005030184400EB0210B0F8042422F4F842E8
:100F1000A0F80424B0F8042442F40042A0F8042409
:100F200007E02868B0F85030184400EB0210A0F831
:100F300004146278286812B1012A11D018E0B0F8C0
:100F400050100844217800EB0110B0F80C1421F483
:100F5000F841A0F80C14B0F80C1441F4004105E07D
:100F6000B0F850201044227800EB0210A0F80C14C6
:100F700021782846FFF7D0FE7004B8D521782A687A
:100F800032F82100384040EA090022F82100FEE052
:100F9000626902446261E2690244E2612369226A91
:100FA0009A4203D31846111A04E038E084F824105A
:100FB0000AB110462162617811B1012923D02BE0DA
:100FC0002968B1F850201144227801EB021101F296
:100FD000044148B13E280FD84208C30700D0521C34
:100FE0000BEA82220A8017E00A8822F4F8420A807B
:100FF0000A8842F40042F5E74209C30600D1521EB6
:101000004EEA8222EEE72968B1F850201144227896
:1010100001EB0211A1F8040483B22289B3E04FF07E
:10102000060808EBC208E0440AEB480C30F80C0054
:10103000C0F30900834211D31B1AA3610FD07304BC
:1010400007D42E6836F822303B4043EA090326F8DD
:10105000223094F82420012A50D098E0A1616078D1
:1010600010B1012813D01AE02868B0F850301844A5
:1010700000EB0210B0F8042422F4F842A0F8042493
:10108000B0F8042442F40042A0F8042407E02868E1
:10109000B0F85030184400EB0210A0F80414627845
:1010A000286812B1012A11D018E0B0F85010084495
:1010B000217800EB0110B0F80C1421F4F841A0F8ED
:1010C0000C14B0F80C1441F4004105E0B0F85020C5
:1010D0001044227800EB0210A0F80C142178284666
:1010E000FFF71AFE700452D42278296831F82200E2
:1010F000384040EA090021F8220048E062690244D1
:101100006261E2690244E2612369226A9A4203D37E
:101110001846111A216204E00AB11046216284F8CF
:1011200024106278296812B1012A22D029E0B1F88E
:1011300050201144227801EB021101F20C4148B118
:101140003E280FD84208C30700D0521C0BEA822267
:101150000A8016E00A8822F4F8420A800A8842F4DB
:101160000042F5E74209C30600D1521E4EEA822230
:10117000EEE7B1F850201144227801EB0211A1F8FA
:101180000C04628983B26169286802F003FD21784A
:101190002A6832F8210048F6BF73184080F030000A
:1011A00048F28003184322F821000020BDE8F09F98
:1011B0002DE9F04104460F0601F0070000EB800125
:1011C00004EBC1014FF001064FF0000503D581F893
:1011D0002960283103E081F8695101F5B471087084
:1011E0000A61CB704A7802B1C881022B00D10D711F
:1011F00094F8A802012809D084F8A862206802F0B7
:1012000005F8284684F8A852BDE8F0810220FBE7E3
:1012100070B50C4601F0070505EB850100EBC10137
:10122000C1E95F230022C1F8842181F8692181F896
:10123000685101F5B4716207006802F069F9002095
:1012400070BD70B5044601F007006268904201D994
:10125000012070BD0B064FF000054FF0010207D5CD
:1012600000EB800104EBC10181F82920283107E05F
:1012700001EB810104EBC10181F8695101F5B47101
:101280008A70087094F8A802012808D084F8A8226F
:10129000206802F023F984F8A852002070BD0220D3
:1012A00070BD70B50C4601F0070505EB850100EB3C
:1012B000C101C1E90F23012281F84C208B64002376
:1012C0004B6481F8292001F8285F6207006802F06A
:1012D0001FF9002070BD10B50446006802F03AFC0A
:1012E000000402D5204601F035F8206802F032FCF7
:1012F00040050CD5206830F8441F21F4806101803E
:10130000204600F068F80021204600F07FF82068B1
:1013100002F020FC400405D5206830F8441F21F479
:1013200080410180206802F015FC800405D520680A
:1013300030F8441F21F400510180206802F00AFCBB
:10134000C00414D5206830F8401F21F0040101804A
:10135000206830F8401F21F008010180204600F08D
:101360004DF8206830F8441F21F480510180206836
:1013700002F0F0FB000514D5206830F8401F41F062
:1013800008010180206830F8441F21F400610180C9
:10139000206830F8401F41F004010180204600F031
:1013A00051F8206802F0D6FB800508D5206830F897
:1013B000441F21F400710180204600F023F82068CA
:1013C00002F0C8FBC00505D5206830F8441F21F4A1
:1013D0008071018010BD70B5044680680125022827
:1013E00001D0FFF77FF82946D4F8E80201F001FDAB
:1013F000D4F8E802BDE8704001F0C1BCD0F8E802C2
:1014000001F0E5BCD0F8E80201F0E7BC10B50446F5
:1014100090F8A80201280BD0012084F8A80284F8D3
:101420002410206802F0B0FB002084F8A80210BD50
:10143000022010BDD0F8E82200F52C71104601F012
:10144000E4BC000010B50446D0F8E80201F013FD3A
:10145000A069002804D00348016841F0060101603A
:1014600010BD000010ED00E02DE9F0470E4605002C
:1014700079D0DFF88481D8F8000000F00100B04294
:1014800014D2012E05D1D8F8001041F00401C8F89B
:101490000010D8F8001021F001013143C8F8001005
:1014A000D8F8000000F00100B0425CD12878534C1D
:1014B000800705D52068A96820F0F0000843206067
:1014C0002878C0075CD04D496868083902281AD0CE
:1014D00003281BD0096801281BD08905002966DA7A
:1014E000216821F0030101432160FFF7CDF969680C
:1014F000074641F28830022914D0032920D001295F
:1015000081462AD038E009688903E7E7096889013C
:10151000E4E78907E2E700BFFFF7B6F9C11B4945D9
:1015200001D926E081462068C0F381000228F3D16A
:1015300026E000BFFFF7A8F9C11B494501D918E013
:1015400081462068C0F381000328F3D118E000BF72
:10155000FFF79AF9C11B49450BD82068C0F38100F9
:101560000128F5D10CE022E0FFF78EF9C11B4945B7
:1015700002D90320BDE8F087206810F00C0FF3D1EA
:10158000D8F80010404601F00101B14211D9012EF6
:1015900003D1016841F004010160016821F00101FB
:1015A00031430160006800F00100B04201D0012029
:1015B000E0E72878400705D52068E96820F4E06076
:1015C000084320602878000706D52068296920F4A0
:1015D000605040EAC100206000F028F82168084A05
:1015E000C1F30311515CC840064908600648006811
:1015F000BDE8F047FFF710BB003C0240083802404E
:1016000039590008440000203800002004480549EA
:1016100000680968044AC1F30221515CC840704760
:1016200044000020083802404959000810B5114C08
:101630002168114801F00C02042A0BD0082A09D0B5
:101640000C2A08D0201F0068C0F342314FF400403C
:10165000491C884010BD094AC1F38343D35CC1F3E0
:1016600081522168521CC903A3FB00010023FEF72D
:10167000B1FD10BD083802400024F40030590008C4
:101680002DE9F84F04007DD0FC480168006801F0A6
:101690000C0700F480362078F94DC00741D0082FA0
:1016A00012D00C2F02D1B6F5803F0DD06068012812
:1016B00011D008B1052818D0286820F4803028609F
:1016C000286820F4802009E02868800329D5606814
:1016D0000028D8D025E0286840F480302860606871
:1016E00090B1FFF7D1F880460AE0286840F48020E6
:1016F0002860F0E7FFF7C8F8A0EB080064287BD863
:1017000028688003F6D50CE0FFF7BEF8804605E0B8
:10171000FFF7BAF8A0EB08006428F0D82868800327
:10172000F6D42078DFF85CB3DFF85C8380074FF0F5
:1017300001094FF0000A35D5042F0AD00C2F00D133
:101740003EB1E068F8B1C8F80090FFF79DF8064692
:101750000BE0286880070BD5E068012812D107E06C
:10176000FFF792F8801B0228C9D828688007F7D5B0
:10177000DBF80010226921F4F85141EA0221CBF88C
:1017800000100FE077E1C8F800A0FFF77DF80646EB
:1017900005E000BFFFF778F8801B0228AFD8286863
:1017A0008007F7D42078C00674D53FB1A069E0B3B4
:1017B000C8F82090FFF768F806464AE028688005D8
:1017C00002D5A069002884D0206ADBF800105E46AC
:1017D00001F46041884210D900F048FF0028BDD1D3
:1017E0003068216A20F4604008433060217F30680F
:1017F00061F31F6030600FE096E0316821F46041D2
:1018000001433160217F306861F31F603060206ADE
:1018100000F02CFF0028A1D1216A4FF4004009EB11
:10182000513188409549096800E025E0974AC1F3A5
:101830000311515CC8409649086096480068FFF75C
:10184000EBF900286FD125E0FFF71EF8801B022876
:101850006AD828688005F7D5DBF80010226A21F4E1
:1018600060411143CBF80010227FDBF8001062F3D7
:101870001F61CBF800100DE0C8F820A0FFF704F8B6
:10188000064604E0FFF700F8801B02284CD82868C1
:101890008005F7D42078804E000722D57F48616903
:1018A00081B1C0F80090FEF7EFFF834606E000BF6D
:1018B000FEF7EAFFA0EB0B00022835D8306880075E
:1018C000F6D50EE0C0F800A0FEF7DEFF834605E087
:1018D000FEF7DAFFA0EB0B00022825D8306880075E
:1018E000F6D4207840076DD56B484FF0000B1038C8
:1018F0000068C0000BD468481038016841F080517E
:10190000016000684FF0010B00F0805000906448C7
:101910000168C90514D4016841F480710160FEF7C3
:10192000B3FF009008E08DE079E000BFFEF7ACFF68
:101930000099401A642872D859480068C005F5D546
:10194000A06801280AD008B1052811D0306820F419
:1019500080703060306820F4806002E0306840F4CD
:1019600080703060A068A8B1FEF78EFF00900DE097
:10197000306840F480603060F0E700BFFEF784FF1D
:101980000099411A41F2883081425AD83068800566
:10199000F4D50EE0FEF778FF009007E0FEF774FF45
:1019A0000099411A41F2883081424AD83068800556
:1019B000F4D4BBF1000F05D037481038016821F08E
:1019C00080510160606A58B30C2F41D00228504604
:1019D00005D0C8F86000FEF757FF044634E04746DC
:1019E000C8F86000FEF750FF064604E0FEF74CFF23
:1019F000801B022825D828688001F7D4D4E90A1072
:101A000001431E48226B036823F47D031A431143EC
:101A10000160C7F86090FEF737FF044607E010E06A
:101A200040E000BFFEF730FF001B022809D82868FD
:101A30008001F7D536E000BFFEF726FF001B022825
:101A400002D90320BDE8F88F28688001F4D429E08A
:101A50000128F7D009480068A26A00F48031914259
:101A600009D1E26A00F47011914204D1216B00F4B3
:101A70004000884216D00120E4E700000838024008
:101A8000003802400438024000004742395900083B
:101A900044000020380000203438024080064742CD
:101AA000007000400020CDE710B5401EB0F1807FEF
:101AB00001D3012010BD4FF0E02460610F216017B9
:101AC00002F07CF80020A06107202061002010BDFA
:101AD00070B590F83820012A26D0012480F83840CB
:101AE000022280F8392003685A689D6822F0700647
:101AF0000A6832435A600268B2F1804F08D00B4B3B
:101B00009A4205D00A4B9A4202D00A4B9A4204D11B
:101B1000496825F080031943916080F8394000211D
:101B200080F83810084670BD022070BD00040040E7
:101B3000000800400008014010B5040003D094F8EC
:101B4000390010B107E0012010BD002084F83800F2
:101B5000204600F017F8022084F83900211D206883
:101B600000F082FE012084F83E0084F83A0084F8F8
:101B70003B0084F83C0084F83D0084F839000020E4
:101B800010BD000008B5154A0168154891420ED1F4
:101B9000016841F0100101600068002200F01000AF
:101BA000009011462B20FFF785F82B2010E00D4AFE
:101BB000914211D1016841F02001016000680022CA
:101BC00000F02000009011462C20FFF773F82C2025
:101BD000BDE80840FFF760B808BD000000100040F5
:101BE000243802400014004090F83910012901D037
:101BF00001207047022180F839100168CA6842F05C
:101C00000102CA600068B0F1804F08D009498842DB
:101C100005D00949884202D00849884204D1816828
:101C200001F00701062903D0016841F001010160BC
:101C300000207047000400400008004000080140F8
:101C400001680A6A41F211131A4203D10A6822F0AC
:101C500001020A60012180F83910002070477047A6
:101C600070B50446006801694FF00005C943890753
:101C700015D4C168C943890711D4E91E0161012047
:101C80002076206880698007204602D0FFF7E7FFB2
:101C900004E000F078F8204600F0A0F825762068EF
:101CA0000169C943490717D4C168C943490713D417
:101CB0006FF004010161022020762068806910F431
:101CC000407F204602D0FFF7CAFF04E000F05BF837
:101CD000204600F083F8257620680169C94309078A
:101CE00016D4C168C943090712D46FF00801016115
:101CF000042020762068C0698007204602D0FFF7C4
:101D0000AEFF04E000F03FF8204600F067F82576CB
:101D100020680169C943C90617D4C168C943C90607
:101D200013D46FF010010161082020762068C0698B
:101D300010F4407F204602D0FFF791FF04E000F04E
:101D400022F8204600F04AF8257620680169C94348
:101D5000C90708D1C168C943C90704D1891E0161F7
:101D6000204600F03CF820680169C943490609D4BF
:101D7000C168C943490605D46FF04001016120469E
:101D800000F02EF870BD704770B50D46040003D00A
:101D900094F8390010B107E0012070BD002084F8EC
:101DA0003800204600F019F8022084F83900211D7F
:101DB000206800F059FD2068016821F008010160E9
:101DC00054F83E0B016829430160012004F81F0903
:101DD000E0762077A076002070BD7047704770478E
:101DE0007047FEE701684A69D24352050FD46FF489
:101DF00080624A61002140F8301F202242738173C3
:101E0000026942F004020261017301207047002060
:101E1000704700002DE9F843044600680D46DDE9EF
:101E2000089701689846164641F4807101604B4658
:101E300000224FF001112046009700F065F848B1EC
:101E400020680068C00502D54FF4007020640320AC
:101E5000BDE8F883216805F0FE0008613B464A466C
:101E60001549204600F084F888B9206841698069E6
:101E700000903A464946204600F0C5F848B1206C2B
:101E8000042804D12068016841F400710160012038
:101E9000DEE7F5B2B8F1010F09D02168300A086118
:101EA0003A464946204600F0AEF80028E7D12068BF
:101EB00005610020CCE700000200010070B5164665
:101EC0000D4604460DE02046FFF78CFF08B10120C7
:101ED00070BD681C05D0FEF7D7FC801BA84207D850
:101EE00035B120684069C0434007ECD4002070BD84
:101EF000002044F8300F20216173A073216941F064
:101F0000200121612073E2E72DE9F0471E4690464B
:101F10000D460446C1F30747DDF8209008E0701C29
:101F200006D0FEF7B1FCA0EB0900B0420FD876B1A5
:101F30002068012F18D0806925EA00000004000CF9
:101F400014D000214145EAD00020BDE8F0870020F0
:101F500044F8300F20216173A073216941F0200102
:101F6000216120730120F0E74069E5E70121E9E7FD
:101F70002DE9F0479A4691460E46044600254FF05B
:101F80002008C1F3074725E020684069C0434005A9
:101F900014D42068016841F40071016021686FF475
:101FA00080604861256384F83D8084F83E50206C51
:101FB00040F00400206484F83C501FE0B9F1FF3F7A
:101FC00008D0FEF761FCA0EB0A0149450CD8B9F135
:101FD000000F09D02068012F13D0806926EA000085
:101FE0000004000C0BD0CFE744F8305F84F80D807C
:101FF000A573206940F02000206125730120BDE811
:10200000F0874069EAE770B516460D4604460DE0D4
:102010002046FFF7E7FE08B1012070BD681C05D01F
:10202000FEF732FC801BA84207D835B12068406912
:10203000C0430006ECD4002070BD002044F8300FEF
:1020400020216173A073216941F020012161207377
:10205000E2E700002DE9F04186B014216846FEF762
:1020600079F94648016841F004010160016801F016
:1020700004010591016841F020010160016801F04F
:1020800020010591016841F001010160016801F042
:1020900001010591016841F0020101600068384FBB
:1020A00000F002000590002206213846FEF7E7FB0B
:1020B000DFF8D080002204214046FEF7E0FB4FF419
:1020C00060400325CDE900050024694602942E48AE
:1020D000FEF7B6FA48F20100CDE900056946029420
:1020E0003846FEF7ADFA062000900126CDE90164DE
:1020F000694638460394FEF7A3FA4FF4FF60009058
:102100004FF44410CDE9010669463846FEF798FAC7
:102110004FF63A70CDE90005694602944046FEF755
:102120008FFA04200090CDE901646946404603948B
:10213000FEF786FA002211460920FEF7BBFD0920B2
:10214000FEF7AAFD002211460A20FEF7B3FD0A2081
:10215000FEF7A2FD002211461720FEF7ABFD172067
:10216000FEF79AFD002211462820FEF7A3FD282045
:10217000FEF792FD06B0BDE8F08100001C38024079
:102180000000024000040240000802400D4810B563
:102190000B4901600C49416000214FF4804281608D
:1021A000C0E9031241618161C1610162FEF772FB06
:1021B000002803D0BDE81040FEF794B910BD000020
:1021C000005400404C020020801A06001CB5002478
:1021D000124800941049019401604FF47A71C0E9EB
:1021E00001144FF448714461C160FFF7A5FC08B1C8
:1021F000FEF778F908210948FFF7C6FD08B1FEF798
:1022000071F90094694605480194FFF761FC0028C4
:1022100001D0FEF767F91CBD00100040E402002069
:102220001CB500241248009410490194016042F248
:102230001071C0E901144EF660214461C160FFF7DE
:102240007BFC08B1FEF74EF908210948FFF79CFD19
:1022500008B1FEF747F90094694605480194FFF775
:1022600037FC002801D0FEF73DF91CBD00140040EA
:1022700024030020FEE7FEE72DE9F84F002001F0DF
:1022800017FD012600211F237F220846009601F03A
:10229000EDFC00254FF00208DFF8A8A02A4CDFF87B
:1022A000AC9002E00120FEF7ABF920680028F9D0DD
:1022B00008EB0510C0B2022101F0B8FD2268002031
:1022C00006FA00F1114209D03130C0B209F8050018
:1022D000DAE90012012301F005FE02E0401C0828A3
:1022E000EEDB00270DE000BF08EB0710C0B20221B3
:1022F00001F09CFDDAE9001201232A2001F0F2FD31
:102300007F1CAF42F0DB01F0D1FD02E00120FEF7BF
:1023100077F920680028F9D16D1C062DC5DB002156
:102320000A4B08464A469B1F145C1D5CAC4200D118
:10233000491C401C0628F7DB062901D10448066029
:10234000BDE8F88F100000202C000020260000209F
:10235000340000202DE9F84F044640F68F7B48F604
:102360000F7A4FF002094FF4806874E1B0F844101E
:1023700011F00F063AD030F8267039047DD530F8C8
:10238000261001EA0B0141F0800120F8261006EB2F
:10239000860004EBC00595F8740105F5B4750028B6
:1023A0006CD0E87802286AD02878226832F82010A9
:1023B00048F68F73194048F2C003194322F82010E1
:1023C0002878D4F800C03CF82010BCF8502049040C
:1023D0007ED509EBC000111808EB41003CF8000065
:1023E0008005800D009074D02A89D8E0C9062DD4CC
:1023F000018801EA0A0141F400410180216804F1E9
:102400002805B1F850202B7809EBC300024408EBF3
:102410004200085AC0F309006064E16B0844E063BD
:1024200000212046FEF778FC94F8240000289CD078
:10243000A869002899D194F82400216840F0800010
:10244000A1F84C00002084F8240004E1018804F580
:10245000B4750A0521D5B0F850202B78062101EB80
:10246000C3010A4408EB4201405A04F52C71C0F341
:102470000903EB61EA88206802E0ACE068E07AE0FA
:1024800001F06CFB2168088800EA0B0040F0800036
:1024900008802046FEF7CEFFDDE00904D5D501888F
:1024A00001EA0B0141F0800101802068B0F8502062
:1024B0002B78062101EBC3010A4408EB4201405A84
:1024C00083059B0DEB6110D0696971B1EA8801E069
:1024D00058E056E0206801F041FBE969686908446A
:1024E000686100212046FEF720FC2068018809056C
:1024F0002DD4B0F850100844296900F20C4051B1B5
:102500003E2910D84A08C90700D0521C4FF6FF7167
:1025100001EA82210FE0018821F4F841018001885D
:1025200041F4004107E04A09C90600D1521E4FF4A8
:10253000004141EA82210180206801884BF68F72B8
:10254000114081F4405148F280021143018082E041
:10255000D4F800C0BCF850102A78062000EBC20066
:10256000014408EB41003CF800008005800D00901C
:102570001AD0EA8813E03A4629462046FEF70DFCB9
:10258000009011E0062101EBC000111808EB41009A
:102590003CF800008005800D009005D06A89034654
:1025A0006046696901F0DAFAE96900980844E8616F
:1025B0006969009808446861A86918B12969009898
:1025C000814204D929782046FEF7AFFB03E0294673
:1025D000206800F09DFF38063DD506EB860004EB31
:1025E000C001206830F8262002EA0A0242F40042C4
:1025F00020F8262091F82B002831032804D018B1A8
:10260000022824D1F80522D42368B3F850200D788D
:1026100009EBC500024408EB4200185A8A69C0F36E
:10262000090082420CD9121A8A610BD04A6902440D
:102630004A61CA691044C861206800F069FF0AE075
:1026400000208861E9B22046FEF766FB03E03A46C7
:102650002046FEF715FC2068B0F8441009043FF549
:1026600085AE0020BDE8F88F7047000038B51C49E2
:10267000002309681B4A11F0F00F23D118491C31BF
:102680000C68E500184C03D5216801F4C0540EE035
:102690000D6845F080550D600D6805F0805500957A
:1026A00024680D6804F4C05425F080550D60B4F51D
:1026B000C05F07D1B0F5404F04D11068012340F04E
:1026C00004001060106820F00100184310601068CA
:1026D00000F00100984201D0012038BD002038BD33
:1026E00008380240003C0240007000407047FEF78E
:1026F0007BBA000010B592B034216846FDF72AFE7F
:1027000014210DA8FDF726FE1648016821F4C051DA
:1027100041F40061016003200124CDE90004102090
:10272000CDE9034002200990C0030A90C0000B903D
:10273000C0000C906846FEF7A3FF08B172B6FEE732
:102740000F20CDE90D0400200F901090014611904C
:102750000DA8FEF789FE002801D072B6FEE712B080
:1027600010BD0000007000407047000070B5324896
:102770000168491C01603148FFF762FA304C4FF4A0
:1027800080712046FEF776F840B100254FF40071C5
:102790002046FEF76FF818B1002002E00125F5E7AA
:1027A000022005444FF480612046FEF763F808B12B
:1027B000002000E00420054408212046FEF75AF8D6
:1027C00008B1002000E00820054410212046FEF753
:1027D00051F808B1002000E01020054420212046D7
:1027E000FEF748F808B1002000E020200544402111
:1027F0002046FEF73FF808B1002000E040200544E5
:1028000080212046FEF736F808B1002000E0802045
:102810000C492844086001F05BFA08B901F040FB5C
:102820000948FFF7E1F90849002009684862BDE856
:1028300070400248FFF714BA30000020E402002084
:10284000000002402C0000202403002010B50548A1
:10285000FFF7F6F901F0ECF9BDE810400148FFF789
:10286000FFB900002403002070B502684FF08046D5
:10287000154B164CB04203D0984201D0A04205D16E
:1028800022F070054A682A43B0420CD098420AD020
:10289000A04208D00E4B984205D00E4B984202D071
:1028A0000D4B984203D122F44073CA681A430B6956
:1028B00022F080021A4302608A68C262096881625B
:1028C0000121416170BD000000040040000800408B
:1028D00000080140000C014000100140F0B585B037
:1028E000002001F0E5F9012400211F237F22084682
:1028F000009401F0BBF9474E474F484D306810B186
:10290000012822D051E00221084601F08FFA44A1AB
:1029100001A8FDF7D7FCD7E90012012301A801F0B7
:1029200053FB0A21022001F081FA3FA101A8FDF723
:10293000C9FCD7E90012012301A801F045FB1221CF
:10294000022001F073FA3AA120E00221084601F0CA
:102950006DFA39A101A8FDF7B5FCD7E900120123F2
:1029600001A801F031FB0A21022001F05FFA2EA13B
:1029700001A8FDF7A7FCD7E90012012301A801F087
:1029800023FB1221022001F051FA2DA101A8FDF72D
:1029900099FCD7E90012012301A801F015FB01F011
:1029A00085FA02E00120FDF72BFE2A68002AF9D003
:1029B0005FF0000004FA00F1114208D00021401C31
:1029C000012808D0022818D0032816D112E0401C94
:1029D0000828EFDB11E0306808B91C4801600020CE
:1029E00001F066F900211F237F220846009401F0C0
:1029F0003DF902E0306818B1316001F057FA04E0A7
:102A00003460FAE70120FDF7FBFD28680028F9D1C2
:102A100005B0F0BD1C000020080000202C000020A4
:102A20003120627265616B0032202E2E2E00000074
:102A300033206E657874000031202E2E2E000000A9
:102A400033206E65787434340000000034000020B8
:102A500010B5D0F88C2252689047002010BD134664
:102A600010B50A46002100F081F9002010BD134680
:102A700010B50A46002100F007FA002010BD10B57D
:102A80000446802100F0EEF92046BDE81040002108
:102A900000F0E8B910B505210023C0F86C121A4601
:102AA000194600F063F9002010BD10B50223C26181
:102AB000C0F86C32026213460A46002100F0E4F9C5
:102AC000002010BD10B504210023C0F86C121A4676
:102AD000194600F0D9F9002010BDF8B50446488821
:102AE0000D46010A08294BD2DFE801F04A04091714
:102AF0004A4A4048D4F88812207C0A6832E0207C98
:102B000002260028D4F88C0205D0C16A684688479E
:102B10000146467041E0816AF8E7C0B206282FD22C
:102B2000DFE800F003080D12171CD4F88812207C8F
:102B30004A6817E0D4F88812207C8A6812E0D4F83A
:102B40008812207CCA680DE0D4F88812207C0A69BB
:102B500008E0D4F88812207C4A6903E0D4F888128F
:102B6000207C8A6969469047014616E0207C38B986
:102B7000D4F88C02416B68468847F5E7207C20B189
:102B800029462046FFF77BFFF8BDD4F88C02016B85
:102B900068468847014607204870BDF8000048B1E4
:102BA000EA8852B1824200D90246ADF800202046A0
:102BB000FFF77BFFE8880028E6D12046FFF782FF79
:102BC000F8BD01004FF0000004D0012901D0022916
:102BD00001D0022070470120704710B5D0F898024C
:102BE000FEF7ADF8BDE81040FFF7EBBF2DE9F0416F
:102BF0001746044651B1D4F88C0242691AB194F8D0
:102C00007402032851D00220BDE8F081D4F86C3260
:102C1000002504F11400022B03D0042B3AD0C3B3D7
:102C20003CE0D0E903639E4207D9F11AC1608AB241
:102C300039462046FFF71BFF12E08068B0FBF3F136
:102C400003FB110199B9984211D3D4F8701288424C
:102C50000DD2002211462046FFF709FFC4F870523A
:102C600000231A461946204600F080F816E0D4F8F2
:102C70008C02C16829B194F87402032801D120465E
:102C800088478021204600F0EDF82046FFF702FF3C
:102C900004E0FFE78021204600F0E4F894F8780291
:102CA000012804D184F8785201E0204690470020A2
:102CB000AAE770B51546044649B1D4F88C0282697A
:102CC0001AB194F87402032830D0022070BDD4F8F1
:102CD0006C1204F5A070032902D005291ED027E04C
:102CE000D0E903218A420BD9531AC36008468342B4
:102CF00000D303469AB229462046FFF7B0FE17E0FC
:102D0000D4F88C02016929B194F87402032801D126
:102D1000204688472046FFF7D5FE09E000200146FF
:102D2000C4F86C02204600F09DF801E02046904770
:102D3000002070BD0A0601F07F01D0F8980201EB77
:102D4000810100EBC10002D590F82A00704790F88D
:102D50006A01704710B51C461346D0F89802224607
:102D6000FEF726FABDE81040FFF72BBF10B5D0F8EC
:102D70009802FEF74DFABDE81040FFF722BF70B58C
:102D80000022044640231146FFF7E4FF40260125B8
:102D9000C4F850613346002280212046C4F84451D3
:102DA000FFF7D8FF6662A56184F874520020C4F86A
:102DB0006C026060C4F87C02D4F8900228B1D4F8A8
:102DC0008C020021426820469047002070BD90F898
:102DD000751280F874120020704710B590F87412C4
:102DE000032904D1D0F88C12C96901B188470020A9
:102DF00010BD01740020704710B5D0F89802FEF79E
:102E000005FBBDE81040FFF7DCBE70B5044600F5D9
:102E10002070054600F041F80120C4F86C02B4F8B7
:102E20008602C4F8700294F8800210F01F010AD0E4
:102E300001290DD0022910D000F08001204600F0B9
:102E400011F8002070BD2946204600F087F8F8E709
:102E50002946204600F0B3F9F3E72946204600F062
:102E600006F9EEE710B5D0F89802FEF7EAF9BDE8EA
:102E70001040FFF7A6BE90F8741280F87512042176
:102E800080F874120020704710B5D0F89802FEF751
:102E900008FABDE81040FFF794BE0A7802704A783D
:102EA00042708A78CB7802EB032242800A794B7910
:102EB00002EB032282808A79C97902EB0121C18069
:102EC000704710B5D0F88C2202241AB112689047CE
:102ED00000B90024204610BD70B50E461E4D8978FD
:102EE00004462970012931D894F8740202280BD0C5
:102EF00003280FD031462046FFF7C1FD2978204630
:102F0000BDE87040FFF7A4BDD9B10320616084F82B
:102F1000740209E071B16068884212D0C1B22046E3
:102F2000FFF796FD297861602046FFF7CAFF022867
:102F30000CD006E0022084F8740220466160FFF79E
:102F400087FD2046BDE87040FFF7BCBD31462046F6
:102F5000BDE87040FFF793BD480000202DE9F04127
:102F60000A78002612F0600208D0202A01D0402AF8
:102F700070D1D0F88C22926890476DE04B78002297
:102F800001250A2B66D2DFE803F0405D655765082E
:102F900005652C29FFF7A1FD5EE004468888D8B9B5
:102FA000C888C8B94888802816D200F07F0794F8EE
:102FB0007402032810D084F8767239462046FFF751
:102FC0001BFF2046FFF77EFD1FB1022084F874022C
:102FD00042E084F874523FE020463BE0FFF77CFF7C
:102FE0003AE0CB88012B35D190F87432012B04D014
:102FF000022B02D0032B2DD104E08260012200F1CC
:10300000080116E00122011D13E090F87422012A44
:1030100003D0022A01D0032A1CD1CA88022A19D15E
:10302000C560D0F87C1209B10321C160022200F111
:103030000C01FFF73AFD0FE0498801290CD1C0F8D7
:103040007C5211E090F87432012B08D0022B06D08C
:10305000032B04D0FFF713FD3046BDE8F08149880B
:103060000129F9D1C0F87C22FFF72CFDF4E72DE906
:10307000F0410A46044610780027097910F06003F1
:103080000AD0202B01D0402B50D1D4F88C0211460D
:103090008368204698478FE0C0F34110012806D08E
:1030A0005078D0B301282AD003283FD107E0D4F8C4
:1030B0008C02114683682046BDE8F041184794F819
:1030C0007402022802D0032872D10AE071B3802969
:1030D0006ED02046FFF7C6FE80212046FFF7C2FED5
:1030E0006AE0508838B931B1802904D0D08810B94D
:1030F0002046FFF7B7FE2046FFF7E4FC5CE094F8BB
:1031000074020228E2D0032852D1508898BB4806A6
:10311000F1D02046FFF761FDEDE7FFE794F8740278
:103120000026022803D0032842D112E040E009B172
:1031300080293DD1080601F07F0000EB800004EB00
:10314000800101D5143101E001F5A07102220E6069
:103150002AE0080601F00F0000EB800004EB80007D
:103160000AD5806920B301F07F0000EB800004EBFA
:10317000800514350BE01FE0D0F84401C0B101F028
:103180007F0000EB800004EB800505F5A07541B1E0
:10319000802906D02046FFF7CDFD10B10120286020
:1031A00000E02E60022229462046FFF77EFC03E065
:1031B00011462046FFF763FC3846BDE8F08170B544
:1031C000054608780C4610F0600003D0202801D096
:1031D000402816D195F87402012803D0022801D0A6
:1031E00003280ED1207901280BD8D5F88C028268EB
:1031F00028469047E188014306D12846FFF762FC44
:1032000002E02846FFF73BFC002070BD2DE9F047A7
:103210000C78002630F8243048F68F121340CA7814
:10322000002A7DD0012A7CD0022A02D0032A7FD036
:10323000012648F28002134320F824300D7830F83C
:10324000254048F68F731C402C43144320F825403A
:103250000D7B48F2C00C48F6BF744CF280074BF669
:103260008F79EDB391F80080C24630F8285048F2CB
:1032700080181D4045EA080520F82A50B0F8505043
:1032800091F80080054405EB0815B1F8088028F096
:103290000108A5F80084B0F8505091F8008005446A
:1032A00005EB0815B1F80A8028F00108A5F8088494
:1032B0004D78002D0D7830F825804FEA48487DD0B4
:1032C000B8F1000F07DA30F8258008EA030848EA69
:1032D000070820F825800F7830F827506D0600E0A9
:1032E0002CE006D530F827501D4045EA0C0520F8A3
:1032F0002750CB780D78012B30F8253003EA0403F2
:1033000001D083F02003134320F825300B7830F8E8
:10331000231001EA0901114320F82310304602E08E
:1033200003E008E004E0BDE8F08743F4007380E7C1
:1033300043F4C0637DE743F480637AE74D782DB3AF
:10334000B0F850500F78054405EB0715CF8827F0EB
:103350000107A5F800740F7830F827506D0606D5E0
:1033600030F827501D4045EA0C0520F82750CB784F
:10337000012B06D00B7830F82310214081F020017A
:10338000C9E70B7830F823102140C4E7B0F850406B
:103390000D78044404EB0514CD8825F00105A4F84C
:1033A0000854B0F850400D78044404EB05140D693E
:1033B00004F20C4475B13E2D14D800E030E04FEA21
:1033C000550CED0701D00CF1010C4FF6FF7505EA25
:1033D0008C2511E0258825F4F8452580258845F4BD
:1033E000004509E04FEA551CED0601D1ACF1010C96
:1033F0004FF4004545EA8C2525800D7830F82540AE
:10340000640405D530F825401C403C4320F8254095
:103410000B7830F8231001EA090181F440517AE772
:10342000B8F1000F07DA30F8258008EA030848EA07
:10343000070820F825800F7830F827506D0606D54C
:1034400030F827501D4045EA0C0520F827500D782C
:1034500030F8253003EA090383F44053134320F87E
:1034600025308EE730B50A7BB2BB4A7848F68F75B7
:1034700048F28004C2B10B7830F82320520607D5F9
:1034800030F823202A4048F2C0052A4320F82320A0
:10349000CA78012A20D00A7830F8221048F6BF7383
:1034A000194081F0200114E00A7830F822305B04E2
:1034B00007D530F822302B404CF280052B4320F802
:1034C00022300A7830F822104BF68F73194081F4BD
:1034D0004051214320F82210002030BD10B54A7819
:1034E0000978002A48F2800330F8212005D048F6F8
:1034F000BF74224082F0100204E04BF68F74224029
:1035000082F480521A4320F82120002010BD0000D0
:103510002DE9F0470E464B78097B04464FF0000931
:1035200048F68F7248F2800A4FF6FF774FF4004852
:10353000012B09D000296ED0F07802286CD0012828
:103540006BD00120BDE8F087B5693069854200D9AC
:103550000546C9B1F17848F28013022923D03178A9
:1035600034F821001040184324F82100306A401B31
:103570003062307834F82010490671787ED5002901
:103580007DD001297CD03FE1ABB2F2882046716941
:1035900000F000FBB4F850003178204400EB01103B
:1035A000A0F80454EAE0316A81426AD9317834F8EB
:1035B00021001040184324F82100306A401B30627B
:1035C000307834F82010490671786CD511B1012992
:1035D00024D02AE0B4F85010214401EB001000F28E
:1035E0000C404DB13E2D0FD86908EA0700D0491CA8
:1035F00007EA8121018018E0018821F4F841018067
:10360000018841F40041F5E76909EA0600D1491E45
:1036100048EA8121EEE79CE1BCE126E2B4F85020C3
:10362000111901EB0010A0F80C547289ABB22046BE
:10363000716900F0AFFA7069284470613169306ACD
:10364000884202D9401B306202E00546C6F820904D
:10365000707800287CD1B4F850003178204400EB19
:10366000011000F204406DB13E2D13D86908EA073D
:1036700000D0491C07EA8121018012E001E19BE0B2
:10368000BBE084E0018821F4F8410180018841F425
:103690000041F1E76909EA0600D1491E48EA8121A3
:1036A000EAE7328965E011B1012921D027E0B4F8B9
:1036B0005010214401EB001000F204404DB13E2DAA
:1036C0000FD86908EA0700D0491C07EA8121018068
:1036D00015E0018821F4F8410180018841F400419E
:1036E000F5E76909EA0600D1491E48EA8121EEE7BB
:1036F000B4F85010214401EB0010A0F804543289B2
:10370000ABB22046716900F045FA706928447061D7
:103710003169306A884202D9401B306202E00546B6
:10372000C6F82090707800287ED1B4F85000317827
:10373000204400EB011000F20C4055B13E2D10D892
:103740006908EA0700D0491C07EA812101800FE0DF
:1037500072E0018821F4F8410180018841F40041C0
:10376000F4E76909EA0600D1491E48EA8121EDE73C
:103770007289ABB22046716900F00CFA317834F8E6
:10378000210048F6BF72104080F03000C0E132786E
:1037900034F8220048F68F63184040EA0A0024F803
:1037A0002200B4F850003278204400EB02108BB2B3
:1037B000A0F804343289DDE7B4F85010214401EB5D
:1037C000001000F20C404DB13E2D0FD86908EA07F9
:1037D00000D0491C07EA8121018015E0018821F40D
:1037E000F8410180018841F40041F5E76909EA06E2
:1037F00000D1491E48EA8121EEE7B4F850201119A2
:1038000001EB0010A0F80C547289ABB2204671692C
:1038100000F0C0F97069284470613169306A8842EB
:1038200003D9401B306203E06EE00546C6F82090E5
:10383000002DA3D0707858B101287FF41EAFB4F8E2
:1038400050003178204400EB0110A0F8045428E720
:10385000B4F850003178204400EB011101F204412A
:103860003E2D06D86808EA0700D0401C07EA8020F1
:1038700005E06809EA0600D1401E48EA8020088079
:103880000FE711B1012921D027E0B4F850102144ED
:1038900001EB001000F204404DB13E2D0FD8690835
:1038A000EA0700D0491C07EA8121018015E0018860
:1038B00021F4F8410180018841F40041F5E76909EC
:1038C000EA0600D1491E48EA8121EEE7B4F850101B
:1038D000214401EB0010A0F804543289ABB2204619
:1038E000716900F057F97069284470613169306A74
:1038F000884202D9401B306202E00546C6F820909B
:10390000002D96D0707858B101287FF420AFB4F81C
:1039100050100819317800EB0110A0F80C5427E77B
:10392000B4F850003178204400EB011101F20C4151
:103930003E2D06D86808EA0700D0401C07EA802020
:1039400005E06809EA0600D1401E48EA80200880A8
:103950000EE7B1693069814202D9091AB161B5E057
:103960000846C6F81890B1E0088820F4F8400880AE
:10397000088840F400400BE03E2875D84208C00794
:1039800000D0521C07EA822002E000BF48EA8220F1
:103990000880B5E093B9B4F850003178204400EBCA
:1039A0000110316900F2044069B13E2913D84B0877
:1039B000C90700D05B1C07EA83210180707888B1B9
:1039C000012832D03AE0018821F4F84101800188D1
:1039D00041F40041F1E74B09C90600D15B1E48EAFA
:1039E0008321EAE7B4F850003178204400EB01105D
:1039F000316900F20C4049B13E290FD84B08C90784
:103A000000D05B1C07EA8321018017E0018821F4C4
:103A1000F8410180018841F40041F5E74B09C906EE
:103A200000D15B1E48EA8321EEE7B4F85010081974
:103A3000317800EB0110318AA0F80C14F069A8B3BA
:103A4000317834F82100430401D5430603D444F20D
:103A50004003184254D134F82100104048F2C0020B
:103A6000104324F821004BE03CE0B1693069814209
:103A700002D9091AB16102E00846C6F818908BB95C
:103A8000B4F850103278214401EB021101F20441E4
:103A900068B13E2813D84208C30700D0521C07EA79
:103AA00082220A80717889B1012921D028E00A8810
:103AB00022F4F8420A800A8842F40042F1E74209FF
:103AC000C30600D1521E48EA8222EAE7B4F8501039
:103AD0003278214401EB021101F20C4100287FF4FD
:103AE0004BAF41E74209C0067FF450AF521E4DE78D
:103AF000B4F850201119327801EB0211A1F80C042E
:103B0000317834F821004BF68F72104080F4405029
:103B100040EA0A0024F82100002013E5074810B508
:103B2000806930B10648016821F006010160FEF7A6
:103B3000E1FD04494FF48020086010BD8405002099
:103B400010ED00E0140401400148FDF7C4BB000083
:103B500084050020B0F844007047000010B500EB69
:103B600042005C0800F5806009D000BF30F8042BEB
:103B700001F8012B120A01F8012B641EF6D1DA07B5
:103B800001D00088087010BD11B98021A0F84C1038
:103B90000020704710B55B1C00EB42005B0800F58D
:103BA000806009D011F8012B11F8014B42EA042280
:103BB00020F8042B5B1EF5D110BDFEE70907090EA6
:103BC000002804DB00F1E02080F80014704700F0CA
:103BD0000F0000F1E02080F8141D704708B5FDF7D4
:103BE0000BF8FEF787FDFEF735FAFEF7CFFAFEF782
:103BF000EDFAFEF715FB012000F02CF9002000F093
:103C000057F80120002100901F237F22084600F072
:103C10002DF800F04BF9054C2068012802D0FEF782
:103C20002BFBF9E7FEF75AFEF6E700003400002010
:103C300001490120087070471800002030B5802825
:103C40000ED220290CD2012401F00705AC40064B0E
:103C5000C90800EBC110012A195C02D0A143195414
:103C600030BD2143FBE700004C0000202DE9F84166
:103C70009846079C17460E4605460B46009400F0F2
:103C80008BF83A46434631461046009400F084F8DB
:103C900043462A4619463846009400F07DF82A46E5
:103CA000334641461046009400F076F8BDE8F881AE
:103CB00010B5064A00214FF4007328B1FF24545474
:103CC000491C9942F9D310BD0024F8E74C000020AC
:103CD00001484079704700000000002010B55020D6
:103CE000FCF78EFC002000F0A7F8202000F04AF935
:103CF000002000F047F9B02000F044F9C82000F09F
:103D000041F9002000F03EF9102000F03BF940207E
:103D100000F038F9FF2000F07EF8A12000F032F921
:103D2000A62000F02FF9A82000F02CF91F2000F0A9
:103D300029F9A42000F026F9D32000F023F900206F
:103D400000F020F9D52000F01DF9F02000F01AF95C
:103D5000D92000F017F9222000F014F9DA2000F041
:103D600011F9022000F00EF9DB2000F00BF9202001
:103D700000F008F98D2000F005F9142000F002F998
:103D8000012000F059F80348002101804180012101
:103D9000017110BD000000202DE9FC4F07469A4636
:103DA00090460E46D41B00D56442BAEB060000D5FF
:103DB000404281464FF0FF30474501D2012100E0EB
:103DC000014601915146564500D201208346A4EB9D
:103DD000090540460B9AFFF731FFC9F1000000903A
:103DE00013E0314638460B9AFFF728FF0099680028
:103DF000884204DD0199A5EB09053944CFB2A04200
:103E000003DA06EB0B002544C6B24745E9D1564517
:103E1000E7D1BDE8FC8F10B50446812000F0B2F870
:103E20002046BDE8104000F0ADB80000014A108007
:103E30005180704700000020054900228A7118B1A6
:103E400001204871AF2001E0AE204A7100F09AB81D
:103E50000000002010B5104C68B10122042120465A
:103E6000FCF70DFD012202212046FCF708FDBDE80C
:103E70001040FFF733BF094A0021204651711171EC
:103E800091710A460421FCF7FAFC20460022BDE8A5
:103E900010400221FCF7F3BC0000024000000020AB
:103EA00001490120887170470000002070B50C4D59
:103EB000002400BF04F1B000C0B200F063F800209D
:103EC00000F060F8102000F05DF805EBC4108021D0
:103ED00000F06AF8641CE4B2042CEBD370BD00005F
:103EE0004C0000202DE9FF4F93460098A0F1200AD6
:103EF000BAF15F0F0CD22248CEB202883244802A37
:103F000006D881464088C1F307273844202803D9C2
:103F1000002004B0BDE8F08F002525E00AFB075122
:103F200000243BF811801CE008FA04F0000409D5D5
:103F300099F8021099F8000029442044C9B2C0B28F
:103F4000039A0BE00398C0B15FF0000299F80210E9
:103F500099F8000029442044C9B2C0B2FFF76EFEB0
:103F6000641CA642E0D86D1CAF42D7D8B9F8001047
:103F70003144A9F800100098CBE70122E6E70000E1
:103F80000000002001B584B001214FF0FF3204A8E9
:103F90008DE807000B46002278210248FCF73EFD21
:103FA00005B000BD4C0200200EB54FF0FF3289B2C3
:103FB0008DE807000123402278210248FCF72EFDFE
:103FC0000EBD00004C020020F0B51D460E461746FF
:103FD00004460AE02B463A463146FFF783FF217834
:103FE000884201D0C8B2F0BD641C20780028F1D10D
:103FF000C0B2F0BD000000000000000000000000A2
:1040000000000000000000000000000000000000B0
:1040100000000000000000000000000000000000A0
:104020000000000000000000E003E003E003E00304
:10403000E003E003E003E003C003C003C001C001EC
:10404000C001C001C001000000000000E003E00367
:10405000E003000000000000000000003C1E3C1EC9
:104060003C1E3C1E3C1E3C1E3C1E0000000000008E
:104070000000000000000000000000000000000040
:104080000000000000000000000000000000000030
:10409000CE01CE03DE039E039C039C07FF3FFF7F00
:1040A0003807380F780F780F780EFFFFFFFFF01EEC
:1040B000F01CE01CE03CE03DE039000000000000A6
:1040C00000000000FC03FE0FEE1FE01EE01EE01EDD
:1040D000E01EE01FE00FE007F003FC01FE01FE011F
:1040E000FE01FE01FE01FE01FE3DFC3FF00FE0017E
:1040F000E001000000000000033E07F78FE78EE7B5
:104100009EE3BCE3B8E7F8E7F0F7E03FC001FF0348
:10411000FF07F307F30FF31EF33CF338F3787FF058
:104120003FE000000000000000000000E007F80F82
:10413000780F781F781F781F780FF00FE00F801F1F
:10414000C37FC3FBE7F3F7F1F7F0FFF07FF03EF832
:104150007F7CFF3FEF1F0000000000000000000018
:10416000E003E003E003E003E003C003C00100005C
:10417000000000000000000000000000000000003F
:10418000000000000000000000000000000000002F
:10419000000000003F007C00F001E001C003C00708
:1041A00080078007800F000F000F000F000F000F27
:1041B000000F800F80078007C007C003E001F001F7
:1041C0007C003F000F000000007E001FC007C003FE
:1041D000E001F001F000F000F800780078007800CD
:1041E000780078007800F800F000F000F001E001BD
:1041F000C003C007001F007E00780000E003C0037A
:10420000C001CE39FF3F7F3F20037003F807780FCE
:104210003C1F380600000000000000000000000005
:10422000000000000000000000000000000000008E
:10423000000000000000000000000000C001C001FC
:10424000C001C001C001C001C001FFFFFFFFC001EC
:10425000C001C001C001C001C00100000000000099
:10426000000000000000000000000000000000004E
:10427000000000000000000000000000000000003E
:10428000000000000000E003E003E003E003E001C1
:10429000E001E001C0018003000000000000000018
:1042A0000000000000000000000000000000FE3FD1
:1042B000FE3F0000000000000000000000000000C1
:1042C00000000000000000000000000000000000EE
:1042D00000000000000000000000000000000000DE
:1042E0000000000000000000000000000000E003EB
:1042F000E003E003E0030000000000000000000015
:104300000F000F001E001E003C003C0078007800EB
:10431000F000F000E001E001C003C0038007800767
:10432000000F000F001E001E003C003C00780078CB
:1043300000F00000F007F80F7C1F3E3E1E3C1F7C83
:104340001F7C0F780F780F780F780F780F780F7821
:104350001F7C1F7C1E3C3E3E7C1FF80FF0070000B8
:104360000000000000000000F000F007F03FF03F08
:10437000F001F001F001F001F001F001F001F001B5
:10438000F001F001F001F001F001F001F001FF3F58
:10439000FF3F00000000000000000000E00FF83FB9
:1043A0007C3C3C003E003E003E003C003C007C006B
:1043B000F800F001E003C0078007000F001E003E78
:1043C000003CFE3FFE3F0000000000000000000037
:1043D000F00FF81F7C1C3E003E003E003C003C00FD
:1043E000F800F00FF80F7C003E001E001E001E00BB
:1043F0001E003E007C1CF81FE01F000000000000B3
:10440000000000007800F800F800F801F803F80751
:10441000F807780F781E781E783C78787878FFFF58
:10442000FFFF7800780078007800780078000000BE
:104430000000000000000000FC1FFC1FFC1F001E0D
:10444000001E001E001E001EE01FF81FFC007C0066
:104450003E003E001E003E003E003C007C1CF81F5B
:10446000E01F00000000000000000000FC01FE074B
:104470008E0F001F001E003E003C003CF83DFC3F3C
:104480003E7F1F7E0F3C0F3C0F3C0F3C0F3E1F1E1C
:104490003E1FFC0FF00300000000000000000000C1
:1044A000FF3FFF3FFF3F0F001E001E003C00380093
:1044B0007800F000F000E001E001C003C0038007D5
:1044C000800F800F000F001F001F00000000000081
:1044D00000000000F807FC0F3E1F1E1E1E3E1E3E81
:1044E0001E1E3C1FF80FF007F80FFC1E3E3E1F3C3F
:1044F0001F7C0F7C0F7C1F3C3E3FFC1FF007000021
:104500000000000000000000F007F80F7C1E3E3C99
:104510001E3C1F7C1F7C1F7C1F7C1F3C3F3EFF1FDF
:10452000EF071F001E001E003E003C00F838F03F61
:10453000E01F00000000000000000000000000007C
:104540000000000000000000E003E003E003E003DF
:104550000000000000000000000000000000E00378
:10456000E003E003E00300000000000000000000A2
:10457000000000000000000000000000E003E00375
:10458000E003E00300000000000000000000000065
:104590000000E003E003E003E003E001E001E001EC
:1045A000C0038003000000000000000000000000C5
:1045B00003000F003F00FC00F003C00F003F00FEAF
:1045C000003FC00FF003FC003F000F00030000009D
:1045D00000000000000000000000000000000000DB
:1045E000000000000000000000000000FFFFFFFFCF
:1045F000000000000000FFFFFFFF000000000000BF
:1046000000000000000000000000000000000000AA
:10461000000000000000000000E000F8007E801FA5
:10462000E007F8017E001F007E00F801E007801F10
:10463000007E00F800E00000000000000000000024
:10464000F01FFC3F3E381F381F381E001E003C0084
:104650007800F000E001C003C003C007C0070000FD
:1046600000000000C007C007C007000000000000F5
:1046700000000000F803FE0F1E1F0F3E7F3CFF7876
:10468000EF79C773C7F38FF38FF38FF39FF39FF324
:10469000FF73FF7BF779003C1C1FFC0FF803000041
:1046A0000000000000000000000000000000E00327
:1046B000E003F007F007F007780F780F7C0E3C1E40
:1046C0003C1E3E3CFE3FFF3F1F780F780FF007F087
:1046D00007F00000000000000000000000000000E3
:1046E0000000F83FFC3F3E3C1E3C1E3C1E3C3E3C56
:1046F0007C3CF03FF83F7E3C1F3C1F3C0F3C0F3C96
:104700001F3CFE3FF83F00000000000000000000DA
:10471000000000000000FF01FF07871F003E003C73
:10472000007C00780078007800780078007C007CBD
:10473000003E003F831FFF07FF0100000000000054
:1047400000000000000000000000F07FFC7F7E7889
:104750001F781F780F780F780F780F780F780F7801
:104760000F780F781F781E787E78F87FE07F000042
:104770000000000000000000000000000000FF3FFB
:10478000FF3F003E003E003E003E003E003EFE3F3A
:10479000FE3F003E003E003E003E003E003EFF3F2A
:1047A000FF3F0000000000000000000000000000CB
:1047B0000000FF1FFF1F001E001E001E001E001E27
:1047C000001EFF1FFF1F001E001E001E001E001EF9
:1047D000001E001E001E000000000000000000007F
:1047E000000000000000FE03FF0F871F003E007C5A
:1047F000007C007800F800F87FF87FF80F780F7CD5
:104800000F7C0F3E8F1FFF0FFE0300000000000013
:10481000000000000000000000001F7C1F7C1F7CC7
:104820001F7C1F7C1F7C1F7C1F7CFF7FFF7F1F7CEA
:104830001F7C1F7C1F7C1F7C1F7C1F7C1F7C00003B
:104840000000000000000000000000000000FF3F2A
:10485000FF3FE003E003E003E003E003E003E003E5
:10486000E003E003E003E003E003E003E003FF3FD5
:10487000FF3F0000000000000000000000000000FA
:104880000000FC1FFC1F7C007C007C007C007C0086
:104890007C007C007C007C007C007C007800780040
:1048A000F838F03FC03F00000000000000000000AA
:1048B0000000000000001F3C1E3C3C3C783CF03CEB
:1048C000E03DE03FC03F803FC03FE03FF03DF03C77
:1048D000783C7C3C3E3C1F3C0F3C0000000000004C
:1048E00000000000000000000000003E003E003E0E
:1048F000003E003E003E003E003E003E003E003EC8
:10490000003E003E003E003E003EFF3FFF3F0000F5
:1049100000000000000000000000000000001FF880
:104920001FFC1FFC3FFE3FFE3FFE7FFF77FF77FF30
:10493000F7F7E7F7E7F3E7F3C7F307F007F007F058
:1049400007F0000000000000000000000000000070
:1049500000000F7C0F7C0F7E0F7F0F7F8F7F8F7F7C
:10496000CF7FEF7BEF79FF79FF78FF787F783F7813
:104970003F781F781F780000000000000000000052
:10498000000000000000F007FC1F3E3E1F7C0F7877
:104990000F780FF80FF80FF80FF80FF80FF80F78DF
:1049A0000F781F7C3E3EFC1FF00700000000000057
:1049B00000000000000000000000FC3FFF3F1F3E21
:1049C0000F3E0F3E0F3E0F3E1F3E3F3EFC3FF03F6F
:1049D000003E003E003E003E003E003E003E000025
:1049E0000000000000000000000000000000F007D0
:1049F000FC1F3E3E1F7C0F780F780FF80FF80FF862
:104A00000FF80FF80FF80F780F781F7C3E3EFC1F51
:104A1000F8077C003F000F000300000000000000CA
:104A20000000F03FFC3F7E3C3E3C1E3C1E3C3E3CBA
:104A30003C3CFC3CF03FE03FF03DF83C7C3C3E3CE5
:104A40001E3C1F3C0F3C0000000000000000000066
:104A5000000000000000FC07FE1F0E3E003C003C72
:104A6000003C003EC01FF80FFE037F001F000F0038
:104A70000F001F203E3CFC3FF01F00000000000024
:104A800000000000000000000000FFFFFFFFE00347
:104A9000E003E003E003E003E003E003E003E003FE
:104AA000E003E003E003E003E003E003E0030000D1
:104AB00000000000000000000000000000000F7C6B
:104AC0000F7C0F7C0F7C0F7C0F7C0F7C0F7C0F7C8E
:104AD0000F7C0F7C0F7C0F7C1E3C1E3C3E3EFC1F5F
:104AE000F0070000000000000000000000000000CF
:104AF000000007F007F007F80F780F7C1E3C1E3C03
:104B00001E3E3C1E3C1F781F780FF80FF007F00781
:104B1000F007E003E00300000000000000000000D8
:104B200000000000000003E003F003F007F0E7F3EB
:104B3000E7F3E7F3E773F77BF77FFF7F7F7F7F7F05
:104B40007E7F7E3F3E3E3E3E3E3E00000000000037
:104B50000000000000000000000007F80F7C1E3E6F
:104B60003E3E3C1FF80FF007E007E003E003F007CC
:104B7000F80F7C0F7C1E3E3C1F780F780FF0000072
:104B8000000000000000000000000000000007F826
:104B900007780F7C1E3C1E3E3C1F780FF80FF00775
:104BA000E003E003E003E003E003E003E003E003ED
:104BB000E003000000000000000000000000000012
:104BC0000000FF7FFF7F0F001F003E007C00F80009
:104BD000F000E001E003C007800F000F001E003E60
:104BE000007CFF7FFF7F000000000000000000004D
:104BF000FF078007800780078007800780078007FE
:104C0000800780078007800780078007800780076C
:104C10008007800780078007800780078007FF07DD
:104C2000FF07000000780078003C003C001E001EDA
:104C3000000F000F80078007C003C003E001E00100
:104C4000F000F000780078003C003C001E001E00E0
:104C50000F000F0007000000F07FF000F000F000F0
:104C6000F000F000F000F000F000F000F000F000C4
:104C7000F000F000F000F000F000F000F000F000B4
:104C8000F000F000F000F07FF07F0000C000C001F5
:104C9000C001E003E003F007F0077807780F380F52
:104CA0003C1E3C1E1E3C1E3C0F380F78077800004F
:104CB00000000000000000000000000000000000F4
:104CC00000000000000000000000000000000000E4
:104CD00000000000000000000000000000000000D4
:104CE00000000000000000000000FFFFFFFF0000C8
:104CF00000000000F00000000000000000000000C4
:104D000000000000000000000000000000000000A3
:104D10000000000000000000000000000000000093
:104D20000000000000000000000000000000000083
:104D300000000000F80FFC3F7C3C3E003E003E00BF
:104D4000FE07FE1F3E3E3E7C3E783E7C7E7CFF3F63
:104D5000CF1F00000000000000000000003C003CED
:104D6000003C003C003C003CF83DFE3F3E3F1F3E07
:104D70000F3C0F3C0F3C0F3C0F3C0F3C1F3C1E3CBC
:104D80003E3FFC3FF03B0000000000000000000040
:104D9000000000000000000000000000FE03FF0F04
:104DA000871F003E003E003C007C007C007C003CF5
:104DB000003E003E871FFF0FFE03000000000000C2
:104DC000000000001F001F001F001F001F001F0029
:104DD000FF07FF1F3F3E1F3C1F7C1F7C1F7C1F786F
:104DE0001F781F7C1F7C3F3C7F3EFF1FDF0F0000B2
:104DF00000000000000000000000000000000000B3
:104E000000000000F803FC0F3E1F1E3E1F3C1F7CED
:104E1000FF7FFF7F007C007C003C003E071FFF0FF0
:104E2000FE0300000000000000000000FF01E1039D
:104E3000C003C007C007C007FF7FFF7FC007C007D0
:104E4000C007C007C007C007C007C007C007C0072A
:104E5000C007C007C00700000000000000000000FD
:104E6000000000000000000000000000EF07FF1F2E
:104E70007F3E1F3C1F7C1F7C1F781F781F781F7C84
:104E80001F7C3F3C7F3EFF1FDF0F1E001E001E00E9
:104E90007C38F83F003C003C003C003C003C003CBF
:104EA000FC3DFE3F9E3F1F3F1F3E1F3C1F3C1F3CE3
:104EB0001F3C1F3C1F3C1F3C1F3C1F3C1F3C000075
:104EC0000000000000000000F001F0010000000000
:104ED00000000000E07FE07FE001E001E001E00190
:104EE000E001E001E001E001E001E001E001E001BA
:104EF000E00100000000000000000000F800F800E1
:104F00000000000000000000F83FF83FF800F80043
:104F1000F800F800F800F800F800F800F800F800D1
:104F2000F800F800F800F800F800F000F071E07FF9
:104F3000003C003C003C003C003C003C1F3C3E3C34
:104F40007C3CF83CF03DE03DC03FC03FE03FF03DE1
:104F5000F83C7C3C3E3C1F3C1F3C00000000000035
:104F600000000000F07FF001F001F001F001F0011D
:104F7000F001F001F001F001F001F001F001F001A9
:104F8000F001F001F001F001F001F001F00100008A
:104F90000000000000000000000000000000000011
:104FA000000000009EF7FFFFFFFFFFFFE7FBE7F9B0
:104FB000C7F1C7F1C7F1C7F1C7F1C7F1C7F1C7F131
:104FC000C7F1000000000000000000000000000029
:104FD0000000000000000000FC3DFE3F9E3F1F3F20
:104FE0001F3E1F3C1F3C1F3C1F3C1F3C1F3C1F3CE7
:104FF0001F3C1F3C1F3C00000000000000000000A0
:10500000000000000000000000000000F007FC1F8E
:105010003E3E1F3C1F7C0F780F780F780F780F787B
:105020001F7C1F3C3E3EFC1FF007000000000000FC
:105030000000000000000000000000000000000070
:10504000F83DFE3F3E3F1F3E0F3C0F3C0F3C0F3CE8
:105050000F3C0F3C1F3C1E3E3E3FFC3FF83F003CD8
:10506000003C003C003C003C000000000000000050
:1050700000000000EE07FE1F7E3E1E3C1E7C1E78D8
:105080001E781E781E781E781E7C3E7C7E3EFE1F9B
:10509000DE0F1E001E001E001E001E00000000008D
:1050A00000000000000000007F1FFF1FE71FC71F58
:1050B000871F001F001F001F001F001F001F001F71
:1050C000001F001F001F0000000000000000000083
:1050D000000000000000000000000000FC07FE1FB0
:1050E0000E1E003E003E003FE01FFC07FE003E009B
:1050F0001E001E003E3CFC3FF01F000000000000B0
:10510000000000000000000000008007800780070A
:10511000FF7FFF7F80078007800780078007800769
:105120008007800780078007C007FF03FF0100009A
:10513000000000000000000000000000000000006F
:10514000000000001E3C1E3C1E3C1E3C1E3C1E3C43
:105150001E3C1E3C1E3C1E3C3E3C7E3CFE3EFE1F5A
:10516000DE0F000000000000000000000000000052
:10517000000000000000000007F00F780F781E3CD0
:105180001E3C1E3E3C1E3C1E780F780FF00FF007B1
:10519000F007E003E0030000000000000000000052
:1051A00000000000000000000000000003F0E3F138
:1051B000E3F3E7F3F7F3F7F3F77F777F7F7F7F7F03
:1051C0007F7F3E3E3E3E3E3E3E3E000000000000F1
:1051D00000000000000000000000000000000000CF
:1051E0000F7C1E3E3C3E3C1FF80FF007F007E0032B
:1051F000F007F807F80F7C1E3E3E1F3C1F780000AA
:10520000000000000000000000000000000000009E
:105210000000000007F80F780F7C1E3C1E3C3C1E6F
:105220003C1E3C1F780FF80FF007F007E003E00387
:10523000C003C003C0038007800F007F0000000090
:105240000000000000000000FF3FFF3F1F003E0085
:105250007C00F800F001E003C007800F001F001E73
:10526000003CFF7FFF7F0000000000000000000006
:10527000FE01E003C003C003C003C003E001E0017E
:10528000E001C001C003803F803FC003C001E001D6
:10529000E001E001C003C003C003C003E003FE015E
:1052A0007E000000C001C001C001C001C001C001FA
:1052B000C001C001C001C001C001C001C001C001E6
:1052C000C001C001C001C001C001C001C001C001D6
:1052D000C001C001C0010000C03FE003E001E001E7
:1052E000E001E001C001C003C003C001E001FE0015
:1052F000FE00E001C001C003C003C001E001E00105
:10530000E001E001E003C03F003F000000000000BA
:10531000000000000000000000000000000000008D
:105320000000073FC77FE773FFF17EF00000000039
:10533000000000000000000000000000000000006D
:10534000000000000000000000000000000000005D
:10535000002000200020002000200000002000008D
:10536000005000500050000000000000000000004D
:105370000050005000F8005000F8005000500000AD
:105380000020007800A00070002800F0002000003D
:1053900000C000C800100020004000980018000065
:1053A000004000A000A0004000A80090006800009D
:1053B000003000300020004000000000000000002D
:1053C00000100020004000400040002000100000BD
:1053D00000400020001000100010002000400000DD
:1053E000002000A8007000F8007000A80020000055
:1053F00000000020002000F8002000200000000035
:10540000000000000000000000300030002000001C
:1054100000000000000000F8000000000000000094
:10542000000000000000000000000030003000001C
:105430000000000800100020004000800000000074
:1054400000700088009800A800C800880070000064
:1054500000200060002000200020002000700000DC
:1054600000700088000800700080008000F80000D4
:1054700000F80008001000300008008800700000EC
:10548000001000300050009000F8001000100000E4
:1054900000F8008000F0000800080088007000009C
:1054A00000380040008000F0008800880070000094
:1054B00000F80008000800100020004000800000F4
:1054C000007000880088007000880088007000006C
:1054D00000700088008800780008001000E00000DC
:1054E000000000000020000000200000000000007C
:1054F000000000000020000000200020004000000C
:1055000000080010002000400020001000080000EB
:105510000000000000F8000000F80000000000009B
:105520000040002000100008001000200040000093
:1055300000700088000800300020000000200000FB
:105540000070008800A800B800B00080007800005B
:10555000002000500088008800F8008800880000C3
:1055600000F00088008800F00088008800F000004B
:1055700000700088008000800080008800700000BB
:1055800000F00088008800880088008800F0000093
:1055900000F80080008000F00080008000F800002B
:1055A00000F80080008000F0008000800080000093
:1055B0000078008800800080009800880078000053
:1055C00000880088008800F80088008800880000B3
:1055D000007000200020002000200020007000004B
:1055E0000038001000100010001000900060000053
:1055F0000088009000A000C000A00090008800007B
:1056000000800080008000800080008000F80000A2
:10561000008800D800A800A800A800880088000022
:105620000088008800C800A8009800880088000052
:1056300000700088008800880088008800700000E2
:1056400000F00088008800F00080008000800000EA
:10565000007000880088008800A8009000680000A2
:1056600000F00088008800F000A000900088000092
:105670000070008800800070000800880070000042
:1056800000F800A8002000200020002000200000DA
:10569000008800880088008800880088007000006A
:1056A00000880088008800880088005000200000E2
:1056B00000880088008800A800A800A8005000000A
:1056C00000880088005000200050008800880000FA
:1056D00000880088005000200020002000200000EA
:1056E00000F80008001000700040008000F8000082
:1056F000007800400040004000400040007800007A
:1057000000000080004000200010000800000000A1
:105710000078000800080008000800080078000071
:105720000020005000880000000000000000000081
:1057300000000000000000000000000000F8000071
:105740000060006000200010000000000000000069
:105750000000000000600010007000900078000061
:105760000080008000B000C8008800C800B00000C1
:1057700000000000007000880080008800700000B9
:105780000008000800680098008800980068000081
:10579000000000000070008800F800800070000029
:1057A00000100028002000700020002000200000D1
:1057B00000000000007000980098006800080000D9
:1057C0000080008000B000C80088008800880000C9
:1057D0000020000000600020002000200070000079
:1057E0000010000000100010001000900060000089
:1057F00000800080009000A000C000A00090000089
:105800000060002000200020002000200070000028
:105810000000000000D000A800A800A800A8000018
:105820000000000000B000C8008800880088000068
:1058300000000000007000880088008800700000F0
:105840000000000000B000C800C800B000800000E8
:105850000000000000680098009800680008000040
:105860000000000000B000C8008000800080000040
:1058700000000000007800800070000800F00000C8
:105880000020002000F80020002000280010000068
:105890000000000000880088008800980068000070
:1058A00000000000008800880088005000200000F0
:1058B000000000000088008800A800A80050000038
:1058C0000000000000880050002000500088000008
:1058D00000000000008800880078000800880000B0
:1058E0000000000000F800100020004000F8000058
:1058F00000100020002000400020002000100000C8
:1059000000200020002000000020002000200000D7
:105910000040002000200010002000200040000077
:10592000004000A80010000000000000000000007F
:10593000030406080C1018203000000000000000CE
:105940000001020304060708090000000001020329
:105950000400000074590008000000204C00000002
:1059600030010008C05900084C000020840E0000DF
:105970004C010008000000000000000006080000C4
:1059800040530008101A0000F43F00080000000017
:1059900000000000313233343536000000000000D2
:1059A00000000000000000000000000010000000E7
:1059B000010000000000000068FF1F000000000060
:04000005080000F5FA
:00000001FF
