:020000040800F2
:10000000A01C0020D9010008AF2A000853250008D1
:10001000AD2A00082B060008B347000800000000C6
:10002000000000000000000000000000492E000851
:10003000A906000800000000C52D00084B2E00088E
:10004000F3010008F3010008F3010008F3010008C0
:10005000F3010008F3010008F3010008F3010008B0
:10006000F3010008C5060008DD060008F3010008DA
:10007000F3010008F3010008F3010008F301000890
:100080009D060008F3010008F3010008F3010008D1
:1000900041470008F3010008F3010008F5060008D5
:1000A00000000000F3010008F3010008F30100085C
:1000B000F3010008F3010008F3010008F301000850
:1000C000F3010008F3010008F3010008F301000840
:1000D000F3010008F3010008F3010008F301000830
:1000E000AD060008F301000815470008C92E0008F6
:1000F000F301000800F002F800F05FF80AA090E8B1
:10010000000C82448344AAF10107DA4501D100F0D2
:1001100054F8AFF2090EBAE80F0013F0010F18BF40
:10012000FB1A43F001031847AC500000CC5000000C
:100130000A444FF0000C10F8013B13F0070408BF0D
:1001400010F8014B1D1108BF10F8015B641E05D0AB
:1001500010F8016B641E01F8016BF9D113F0080F60
:100160001EBF10F8014BAD1C0C1B09D16D1E58BFF2
:1001700001F801CBFAD505E014F8016B01F8016B29
:100180006D1EF9D59142D6D370470000002300249C
:1001900000250026103A28BF78C1FBD8520728BF97
:1001A00030C148BF0B607047642900F0F580002023
:1001B00070471FB51FBD10B510BD00F001FA114604
:1001C000FFF7F7FF04F012FB00F01FFA03B4FFF78C
:1001D000F2FF03BC00F022FA0948804709480047B3
:1001E000FEE7FEE7FEE7FEE7FEE7FEE7FEE7FEE7E7
:1001F000FEE7FEE704480549054A064B7047000044
:10020000C52E0008F5000008A0160020A01C002044
:10021000A0180020A018002053EA020C00F069800A
:100220002DE9F04B4FF00006002B1FBFB3FA83F50A
:1002300003FA05F424FA05F65E4012BF1643B2FA3B
:1002400082F502FA05F4C5F120051EBF22FA05FC6D
:1002500044EA0C04203556EA044C4FEA144418BF13
:10026000641C4FF000084FF00009904271EB030C42
:1002700039D3002919BFB1FA81F701FA07F6B0FAAC
:1002800080F700FA07F6C7F120071EBF20FA07FC27
:1002900046EA0C062037B6FBF4FCA7EB0507103F37
:1002A00007F01F0BCBF120060CFA0BFB2CFA06F61D
:1002B00044BFB3460026202FA4BF5E464FF0000B7C
:1002C0005BEA060C08BF4FF0010B19EB0B09ABFB07
:1002D000027C48EB0608C01B06FB02CC0BFB03CCE0
:1002E00071EB0C01C1E70B46024641464846BDE8AA
:1002F000F08B13B54FF000004FF00001AFF300801A
:10030000BDE81C40704700000FB41CB5074B06AA9F
:100310007B4469460090059800F035F90020694655
:1003200000F044F91CBC5DF814FB000099020000C9
:100330002DE9F0410E460446002020622046E16887
:10034000884730B3252805D0D4E901219047206A99
:10035000401CF2E7E168204600278847050018D0D6
:10036000A5F14100192802D820354FF40067324624
:10037000294620462760FFF717FF40B1012804D027
:10038000F61D26F007060836D8E7361DD6E72846BC
:10039000DAE7206ABDE8F0812DE9F0410646002445
:1003A00010687529314616A510D0AFF300800028DB
:1003B00002DA404213A507E031688A0701D512A589
:1003C00002E0490704D511A5012401E0AFF3008044
:1003D00000210A2206F1240709E0B0FBF2FCB0FB81
:1003E000F2F302FB1C00303078541846491C0028F8
:1003F000F3D123462A463046BDE8F04100F064B808
:10040000000000002D0000002B0000002000000074
:1004100010B5203AC0F00B80B1E81850203AA0E89F
:100420001850B1E81850A0E81850BFF4F5AF5FEAD3
:10043000027C24BFB1E81850A0E8185044BF18C986
:1004400018C0BDE810405FEA827C24BF51F8043B2D
:1004500040F8043B08BF7047D20728BF31F8023B81
:1004600048BF11F8012B28BF20F8023B48BF00F815
:10047000012B70474FF0000200B513469446964694
:10048000203922BFA0E80C50A0E80C50B1F12001A7
:10049000BFF4F7AF090728BFA0E80C5048BF0CC055
:1004A0005DF804EB890028BF40F8042B08BF7047B3
:1004B00048BF20F8022B11F0804F18BF00F8012B25
:1004C00070477047704770472DE9F0470D469946D1
:1004D0009246044600F124080168880604D5E069C4
:1004E00021F01001216000E00120A84201DD471B3E
:1004F00000E00027A1697A1902EB0900081AA0613F
:100500002078C00602D42046AFF30080002608E021
:10051000D4E901211AF806009047206A401C761C95
:1005200020624E45F4DB2078C0060AD52046AFF3A2
:10053000008006E0D4E9012130209047206A401C69
:100540002062381EA7F10107F4DC07E0D4E901219D
:1005500018F805009047206A401C2062281EA5F16B
:100560000105F3DC2046AFF300802078000602D5B9
:100570000220BDE8F0870120FBE7000001694A1C6A
:1005800002610878704700B58FB0CDE901310021D4
:10059000059105497944CDE9031011466846FFF7F6
:1005A000C7FE0FB000BD0000E5FFFFFF0A6802F8BC
:1005B000010B0A6070470000004870473C1600209D
:1005C0007546FFF7F9FFAE4605006946534620F031
:1005D0000700854618B020B5FFF70CFEBDE82040A7
:1005E0004FF000064FF000074FF000084FF0000BEF
:1005F00021F00701AC46ACE8C009ACE8C009ACE8A2
:10060000C009ACE8C0098D46704710B50446AFF389
:1006100000802046BDE81040FFF7D8BD01491820F2
:10062000ABBEFEE7260002007047FEE700207047E1
:100630000020704710B500220449054802F0C2FDB1
:100640000449034802F0B8FD002010BD480D002009
:10065000C40400206009002010B50146034802F0E0
:10066000ABFD024802F08CFD002010BDC404002048
:10067000094A10B5D2F89022D2F814220AB101200A
:1006800010BD0A460146044802F09CFDBDE810403A
:10069000014802F0F5BD0000C4040020014800F04C
:1006A000EBB90000400400207047000010B504487A
:1006B00001F052FEBDE810404FF4806000F07CBABB
:1006C0008404002010B5044801F046FEBDE8104047
:1006D000082000F071BA00008404002010B504481E
:1006E00001F03AFEBDE81040102000F065BA0000AD
:1006F0008404002010B50C4801F02EFE02F030FCFE
:10070000202000F059FA402000F056FA802000F036
:1007100053FA4FF4807000F04FFABDE810404FF4E8
:10072000007000F049BA00008404002072B6FEE7B1
:10073000F8B50024009490F848202546012A12D0EC
:10074000012280F848204A681F23072A0DD2066834
:10075000376C521E02EB820293409F430B6893401A
:100760001F43376435E00220F8BD0D2A0BD207681D
:10077000FE6BD21F02EB820293409E430B689340B4
:100780001E43FE6325E0132A0BD20668B76B0D3AB1
:1007900002EB820293409F430B6893401F43B76371
:1007A00017E00668192A0AD2776B133A02EB820225
:1007B00093409F430B6893401F43776309E0376B77
:1007C000193A02EB820293409F430B6893401F4308
:1007D00037630A6807230A2A0AD20668776902EB98
:1007E000420293409F438B6893401F4377611CE014
:1007F000142A0BD207683E690A3A02EB4202934080
:100800009E438B6893401E433E610EE01A2A0BD82C
:100810000768FE68143A02EB420293409E438B68DD
:1008200093401E43FE6000E000BF0A68102A01D01A
:10083000112A17D10D4A13681B0213D4136843F40D
:1008400000031360096810290CD10949094A096895
:10085000B1FBF2F101EB8101490000E0491E00917A
:100860000029FBD180F848502046F8BD04270140FC
:100870008000002040420F00F8B504004FF0000552
:1008800003D0E06C002610B110E00120F8BD266511
:100890005C4884F84860016841F00101016000682B
:1008A00000F001000090204600F0B6F8E06CC006B1
:1008B0007AD4E06C20F4885040F00200E0645248A2
:1008C0000168626821F44031114301606169E068A8
:1008D0004FF40073084394F83C2093FAA3F3B3FA5F
:1008E00083F3216A9A4011430843022194F824209B
:1008F00091FAA1F1B1FA81F102FA01F10843616BB9
:10090000102902D0A36B19430843236819684FF4D8
:100910008077C943490629D5A169D4F81CC008438A
:10092000A168D4F810E041EA0C01BE450CD0BEF13C
:10093000010F09D04FF0000C41EA0C0194F82CC0D3
:10094000BCF1010F02D00AE0BC46F5E76AB3E26CE5
:1009500042F02002E264226D42F0010222655A68F0
:10096000DFF8A8C002EA0C020A435A6021688A68CC
:10097000274B1A4002438A602169B94224D00129D9
:1009800022D021680A6B22F0F8720A632168896814
:10099000204A1140814227D12665E06C20F00200F8
:1009A00040F00100E0642AE028E0FFE74FF4604CEB
:1009B000226B9CFAACFCBCFA8CFC521E02FA0CF2C4
:1009C0000A4342F40061CAE721680A6B4FF0F877E6
:1009D00022F0F873A26A97FAA7F7B7FA87F7521EC0
:1009E000BA4013430B63D1E7E06C20F0020040F003
:1009F0001000E064206D40F00100206501252846CC
:100A0000F8BD00002038024004270140FF16FCFC1E
:100A10008DF1FFC0FEFF80BF10B586B004461421E3
:100A20006846FFF727FD1149206888421CD110480D
:100A3000016841F400710160006800F400700590E5
:100A40000B48001F016841F002010160006869461F
:100A500000F002000590012000900320019000208A
:100A60000290044800F0B4F806B010BD0024014024
:100A70002038024000040240F0B4C16B0C680168E9
:100A80000D6890F8402002F01C06042202FA06F3DA
:100A9000234211D06B070FD50B689B0603D40B685C
:100AA00023F004030B6090F8401001F01C018A4011
:100AB000C16B4A60C16A1DE0022303FA06F72742B0
:100AC0004FF0000C4FF0010218D0AF0716D50C689C
:100AD000A40605D40C6824F00A040C6080F82120D8
:100AE00090F8401001F01C018B40C16B4B6080F806
:100AF00020C0816A00291AD0F0BC08470823B340FF
:100B0000234214D02B0712D50B6823F00E030B6081
:100B100090F84010C36B01F01C0102FA01F159601A
:100B2000826380F8212080F820C0016BE2E7F0BCEE
:100B30007047000030B528B308C81349142219447F
:100B4000B1FBF2F18900C163104981630221417751
:100B50001A6847F6F0718A43D0E900142143D0E9BE
:100B600002452C432143046921434469214384699C
:100B7000214311431960002141630122427701772B
:100B8000084630BD012030BDF89FFDBF0060024027
:100B900070B5044600F03CF90546601C02D00448DC
:100BA0004068044400F034F9401BA042FAD370BD01
:100BB0007400002070470000044910B50A68024222
:100BC00002D00860FFF7F6FF10BD000014040140DA
:100BD0002DE9F04FDFF80C92002209F1040A0125FB
:100BE00003240AF1040B85B00F260BF1040EF0E08C
:100BF00005FA02F71CEA07037ED091F804C00CF056
:100C0000030CBCF1010F02D0BCF1020F26D1D0F8C9
:100C100008C0CDF800C04FEA420C04FA0CF8CDF839
:100C200010C0DDF800C02CEA080CCDF800C0D1F8E7
:100C30000C80DDF810C008FA0CF8DDF800C048EAB6
:100C40000C08C0F80880D0F804C02CEA070C0F7913
:100C5000C7F30017974047EA0C0747600F79FF4337
:100C6000BF070ED0C7684FEA420804FA08FC27EA1B
:100C70000C07D1F808C00CFA08FC4CEA070CC0F8C5
:100C80000CC00F7907F00307022F15D1D70800EB2E
:100C9000870702973F6A4FEA427C4FEADC6806FA10
:100CA00008FC27EA0C07D1F810C00CFA08FC4CEA43
:100CB000070C029FC7F820C007684FEA420804FAF1
:100CC00008FC27EA0C0791F804C00CF0030C0CFA9E
:100CD00008FC4CEA070CC0F800C04F6817F4403F0E
:100CE00076D0414FD7F800C04CF0010CC7F800C0D7
:100CF0003F6807F0010700E06AE000973B4F22F0F1
:100D0000030C67440297BF684FEA827C4FEA1C7865
:100D100006FA08FC27EA0C07DFF8D4C0604502D1C8
:100D20004FF0000C1DE0DFF8CCC0604502D14FF061
:100D3000010C16E0DFF8C0C0604502D14FF0020C94
:100D40000FE0DFF8B8C0604502D14FF0030C08E0B7
:100D5000DFF8ACC0604502D14FF0040C01E04FF069
:100D6000050C0CFA08FC4CEA070C029FC7F808C0F7
:100D7000D9F80070CC46D1F804809F435FEAC838A8
:100D800000D51F43CCF80070DAF80070D446D1F8D3
:100D900004809F435FEA883800D51F43CCF8007079
:100DA000DBF80070DC46D1F804809F435FEAC82876
:100DB00000D51F43CCF80070DEF80070F446D1F87F
:100DC00004809F435FEA882800D51F43CCF8007059
:100DD000521C0B689C46D3407FF40AAF05B0BDE8B7
:100DE000F08F000000040140203802400000014064
:100DF000000002400004024000080240000C0240D3
:100E0000001002400AB1816170470904FBE700004D
:100E100001488068704700007400002070B504002D
:100E200025D094F83D00002520B984F83C50204698
:100E300000F050F9242084F83D002068016821F07A
:100E4000010101602068016841F4004101602068EF
:100E5000016821F40041016000F0A4FF4D4A61687F
:100E6000914201D84C4900E04C49884201D201200E
:100E700070BD4B492368B0FBF1F15E6826F03F0678
:100E80000E435E606368934206D94FF496735943EC
:100E90004FF47A73B1FBF3F12368491C1E6A26F004
:100EA0003F06314319626168914210D84900401EE3
:100EB000B0FBF1F2521CC2F30B02042A01D204204F
:100EC00022E0B0FBF1F0401CC0F30B001CE0A26874
:100ED000F2B301EBC10303EB0116431EB3FBF6F3C0
:100EE0005B1C43F480431B0549D092B301EBC10264
:100EF00002EB0111401EB0FBF1F0401CC0F30B00EF
:100F000040F4804040F400402168CA694CF6FF7309
:100F10009A431043C861D4E907100143206802686E
:100F200022F0C00211430160D4E9030101432068AB
:100F3000826848F2FF339A4311438160D4E9050186
:100F400008432168CA6822F0FF021043C86001E02C
:100F50000EE016E02068016841F00101016025649F
:100F6000202084F83D00256384F83E50002070BDA9
:100F700001EB4106431EB3FBF6F35B1CB3E7012014
:100F8000C2E701EB4101401EB0FBF1F0401CC0F391
:100F90000B00B7E7A086010080841E0000093D0019
:100FA00040420F002DE9FF4F83B09A46DDE91197CB
:100FB00093460446DDF84080FFF72AFF054694F883
:100FC0003D0020287FD11923012240492046009569
:100FD00001F052FB002876D194F83C00012872D031
:100FE000012084F83C0020680168C90703D101682A
:100FF00041F0010101602068016821F40061016095
:10100000212084F83D00402084F83E00002626641C
:10101000C4F82480A4F82A90608D20852C48E062D2
:10102000CDE9007553465A462046049901F0AAFAC4
:1010300070B930E02A463946204601F09CFB58B191
:10104000206C042804D12068016841F4007101601B
:10105000012007B0BDE8F08F606A21680078086160
:10106000606A401C6062218D491E89B22185628DB3
:10107000521E628522685369DB435B070BD469B15A
:1010800000781061606A401C6062208D401E2085DF
:10109000608D401E6085208D0028CBD12A463946C0
:1010A000204601F0C3FA0028CAD154F83D0B01686C
:1010B00041F400710160202004F81E09E67766778C
:1010C0000020C6E7FFE70220C3E70000020010008F
:1010D0000000FFFF30B587B0054614216846FFF7D2
:1010E000C9F91E492868884235D11D48016841F078
:1010F000020101600068694600F002000590C0200E
:1011000000901220019001200290032003900420FF
:1011100004901448FFF75CFD11480830016841F461
:10112000001101600068114C00F4001005900E4899
:10113000206010200021C4E901018020C4E90301DE
:101140006161A1612046E161FFF7F4FC08B1FFF79E
:10115000EDFA6C63656207B030BD000000540040DA
:101160001C380240000402406C6002404004002031
:101170000248816842681144816070477400002011
:1011800010B50024032000F079F80F2000F008F8D3
:1011900008B1012401E000F025F8204610BD000050
:1011A00070B50E4E05460024706898B14FF47A7100
:1011B000B1FBF0F00A490968B1FBF0F001F040F82A
:1011C00040B9102D06D200222946501E00F036F8F4
:1011D000356000E00124204670BD0000740000204E
:1011E000800000200D4808B5016841F00041016011
:1011F000016801F000410091011F0A6842F00102FC
:101200000A60096801F001010091016841F0805114
:101210000160006800F08050009008BD2438024052
:10122000002809DB00F01F020121914040098000E5
:1012300000F1E020C0F8001170470000F0B40E4B40
:101240001B680C46C3F30223C3F10705042D00D924
:101250000425191D072901D2002300E0DB1E012609
:1012600006FA05F1491E214099409E40761E16401F
:101270003143F0BC03F09EBA0CED00E0064900F0EB
:10128000070208684FF6FF03184040EA0220034AAD
:1012900010430860704700000CED00E00000FA0504
:1012A00010B50C0607D501F0070101EB810100EB39
:1012B000C100283005E001EB810100EBC10000F521
:1012C000B47099B232B1012202730181190C4181CB
:1012D000002010BD00220273C180F9E705480129F2
:1012E000416803D021F001014160704741F00101E4
:1012F000FAE700000000014001EB810200EBC202AE
:10130000D0F8E802D26B02F068B901EB810200EB81
:10131000C202D0F8E802D2F87C2102F0C1B970B55F
:1013200004460B0601F0070000EB800104EBC1014D
:101330004FF001024FF0000503D581F82920283134
:1013400003E081F8695101F5B471087094F8A802BE
:10135000012808D084F8A822206802F0DDFD84F876
:10136000A852002070BD022070BD70B5044601F087
:101370000F006268904201D9012070BD0B0601F098
:10138000070000EB800104EBC1014FF001024FF0B8
:10139000000503D581F82920283103E081F869513F
:1013A00001F5B4718D70087094F8A802012808D076
:1013B00084F8A822206802F048FE84F8A852002091
:1013C00070BD022070BD2DE9F05F04685FEA424CF9
:1013D0000B788D69B4F850C04FF000064BF68F794A
:1013E00048F2800A48F68F7B48F2C00E4FF48067BF
:1013F0002AD54FF0020808EBC308C44407EB4C079A
:10140000E45BC4F30904A54203D32D1B8D6101D015
:101410000BE08E61066836F8235005EA090585F46D
:10142000005545EA0A0526F82350520609D50D78DD
:10143000036833F8252002EA0B0242EA0E0223F881
:10144000252084B30A8929E04FF0060808EBC30879
:10145000C44407EB4C07E45BC4F30904A54203D37F
:101460002D1B8D6101D00BE08E61066836F823508C
:1014700005EA090585F4005545EA0A0526F82350D2
:10148000520609D40B78056835F8232002EA0B02CE
:1014900042EA0E0225F823202CB14A8949690068E6
:1014A000234603F057F92046BDE8F09F2DE9F05F91
:1014B000054600680C465FEA426C16468B69227846
:1014C000B0F850C048F68F774CF280094FF6FF7B9A
:1014D0004FF4004E4FF4806A4FF000017BD54FF07F
:1014E000020808EBC208E0440AEB480C30F80C0094
:1014F000C0F30900834211D91B1AA3610FD07304F2
:1015000007D52E6836F822303B4043EA090326F817
:10151000223094F82420012A50D04EE1A161607855
:1015200010B1012813D01AE02868B0F850301844E0
:1015300000EB0210B0F8042422F4F842A0F80424CE
:10154000B0F8042442F40042A0F8042407E028681C
:10155000B0F85030184400EB0210A0F80414627880
:10156000286812B1012A11D018E0B0F850100844D0
:10157000217800EB0110B0F80C1421F4F841A0F828
:101580000C14B0F80C1441F4004105E0B0F8502000
:101590001044227800EB0210A0F80C1421782846A1
:1015A000FFF7AAFE7004B8D521782A6832F8210026
:1015B000384040EA090022F82100FEE06269024456
:1015C0006261E2690244E2612369226A9A4203D3BA
:1015D0001846111A04E038E084F824100AB11046C5
:1015E0002162617811B1012923D02BE02968B1F87B
:1015F00050201144227801EB021101F2044148B15C
:101600003E280FD84208C30700D0521C0BEA8222A2
:101610000A8017E00A8822F4F8420A800A8842F415
:101620000042F5E74209C30600D1521E4EEA82226B
:10163000EEE72968B1F850201144227801EB02113D
:10164000A1F8040483B22289B3E04FF0060808EB46
:10165000C208E0440AEB480C30F80C00C0F3090063
:10166000834211D31B1AA3610FD0730407D42E68D1
:1016700036F822303B4043EA090326F8223094F83A
:101680002420012A50D098E0A161607810B101288F
:1016900013D01AE02868B0F85030184400EB02105C
:1016A000B0F8042422F4F842A0F80424B0F804248A
:1016B00042F40042A0F8042407E02868B0F8503053
:1016C000184400EB0210A0F804146278286812B1E4
:1016D000012A11D018E0B0F850100844217800EB2E
:1016E0000110B0F80C1421F4F841A0F80C14B0F873
:1016F0000C1441F4004105E0B0F850201044227869
:1017000000EB0210A0F80C1421782846FFF7F4FD36
:10171000700452D42278296831F82200384040EA17
:10172000090021F8220048E0626902446261E2692E
:101730000244E2612369226A9A4203D31846111ACD
:10174000216204E00AB11046216284F82410627814
:10175000296812B1012A22D029E0B1F850201144A1
:10176000227801EB021101F20C4148B13E280FD85A
:101770004208C30700D0521C0BEA82220A8016E0FE
:101780000A8822F4F8420A800A8842F40042F5E707
:101790004209C30600D1521E4EEA8222EEE7B1F89A
:1017A00050201144227801EB0211A1F80C04628947
:1017B00083B26169286802F0E9FF21782A6832F86B
:1017C000210048F6BF73184080F0300048F28003D3
:1017D000184322F821000020BDE8F09F01F0070126
:1017E00001EB810100EBC100D0F8840170472DE9C5
:1017F000F04104460F0601F0070000EB800104EB06
:10180000C1014FF001064FF0000503D581F82960B2
:10181000283103E081F8695101F5B47108700A615B
:10182000CB704A7802B1C881022B00D10D7194F8B7
:10183000A802012809D084F8A862206802F040FAC2
:10184000284684F8A852BDE8F0810220FBE770B575
:101850000C4601F0070505EB850100EBC101C1E96C
:101860005F230022C1F8842181F8692181F8685141
:1018700001F5B4716207006802F03CFC002070BD05
:1018800070B5044601F007006268904201D901205A
:1018900070BD0B064FF000054FF0010207D500EBBD
:1018A000800104EBC10181F82920283107E001EB18
:1018B000810104EBC10181F8695101F5B4718A70AD
:1018C000087094F8A802012808D084F8A82220689B
:1018D00002F0F7FB84F8A852002070BD022070BD12
:1018E00070B50C4601F0070505EB850100EBC10161
:1018F000C1E90F23012281F84C208B6400234B6443
:1019000081F8292001F8285F6207006802F0F2FBE5
:10191000002070BD10B50446006802F017FF0004F7
:1019200002D5204601F0C4F8206802F00FFF400500
:101930000CD5206830F8441F21F4806101802046D6
:1019400000F0FCF80021204600F013F9206802F0B6
:10195000FDFE400405D5206830F8441F21F4804185
:101960000180206802F0F2FE800405D5206830F87E
:10197000441F21F400510180206802F0E7FEC004FA
:1019800014D5206830F8401F21F004010180206840
:1019900030F8401F21F008010180204600F0E1F8F6
:1019A000206830F8441F21F480510180206802F043
:1019B000CDFE000514D5206830F8401F41F0080125
:1019C0000180206830F8441F21F400610180206804
:1019D00030F8401F41F004010180204600F0FEF87D
:1019E000206802F0B3FE800508D5206830F8441F57
:1019F00021F400710180204600F0B7F8206802F061
:101A0000A5FEC00505D5206830F8441F21F480717B
:101A1000018010BD70B586B0040004D094F8A9020E
:101A2000002518B107E0012006B070BD84F8A85267
:101A3000204600F043F8032084F8A902206802F051
:101A4000FDFA002001260EE000EB800104EBC1014D
:101A500081F8296001F8280FC881CD700D614D61B2
:101A6000401CC0B28D6161688142EDD8002011E058
:101A700000EB800104EBC10181F8695181F8680134
:101A800081F86B51C1F87851C1F87C51401CC0B24B
:101A9000C1F8805161688142EAD8142204F1100132
:101AA0006846FEF7B5FC94E80F0002F0BEFA84F831
:101AB000245084F8A9620020B6E7000038B5044637
:101AC00000681B49884231D11A48016841F400017D
:101AD00001600068002200F400000090114614200C
:101AE000FFF7ACFB1420FFF79BFBA06901281DD179
:101AF00011498004086010480838016821F48021E9
:101B00000160001F016841F4802101600A48143817
:101B1000016841F480210160002211462A20FFF76C
:101B20008DFBBDE838402A20FFF77ABB38BD0000A6
:101B3000005C0040243802401404014070B50446A3
:101B400080680125022801D0FEF7F0FD2946D4F86F
:101B5000E80201F08CFED4F8E802BDE8704001F024
:101B60004CBED0F8E80201F070BED0F8E80201F0F7
:101B700072BE10B5044690F8A80201280BD00120CF
:101B800084F8A80284F82410206802F0F9FD0020EF
:101B900084F8A80210BD022010BDD0F8E82200F59C
:101BA0002C71104601F06FBE10B5044690F8A802E3
:101BB000012810D0012084F8A802206802F0A0FDBE
:101BC00001212046FFF78AFB206802F02CFA002052
:101BD00084F8A80210BD022010BD000010B5044614
:101BE000D0F8E80201F08EFEA069002804D0034876
:101BF000016841F00601016010BD000010ED00E039
:101C00002DE9F0470E46050079D0DFF88481D8F839
:101C1000000000F00100B04214D2012E05D1D8F826
:101C2000001041F00401C8F80010D8F8001021F0AD
:101C300001013143C8F80010D8F8000000F001009D
:101C4000B0425CD12878534C800705D52068A9683C
:101C500020F0F000084320602878C0075CD04D4990
:101C60006868083902281AD003281BD0096801289F
:101C70001BD08905002966DA216821F003010143A0
:101C80002160FFF7C5F86968074641F288300229EC
:101C900014D0032920D0012981462AD038E00968D0
:101CA0008903E7E709688901E4E78907E2E700BFFC
:101CB000FFF7AEF8C11B494501D926E081462068EF
:101CC000C0F381000228F3D126E000BFFFF7A0F89F
:101CD000C11B494501D918E081462068C0F3810045
:101CE0000328F3D118E000BFFFF792F8C11B494564
:101CF0000BD82068C0F381000128F5D10CE022E068
:101D0000FFF786F8C11B494502D90320BDE8F087DB
:101D1000206810F00C0FF3D1D8F80010404601F005
:101D20000101B14211D9012E03D1016841F0040132
:101D30000160016821F0010131430160006800F099
:101D40000100B04201D00120E0E72878400705D526
:101D50002068E96820F4E0600843206028780007E4
:101D600006D52068296920F4605040EAC10020604F
:101D700000F028F82168084AC1F30311515CC840FB
:101D80000649086006480068BDE8F047FFF708BA52
:101D9000003C024008380240B95100088000002091
:101DA000740000200448054900680968044AC1F32A
:101DB0000221515CC8407047800000200838024072
:101DC000C951000810B5114C2168114801F00C02EE
:101DD000042A0BD0082A09D00C2A08D0201F00683A
:101DE000C0F342314FF40040491C884010BD094AFD
:101DF000C1F38343D35CC1F381522168521CC903F0
:101E0000A3FB00010023FEF707FA10BD08380240CB
:101E10000024F400B05100082DE9F84F04007DD0F3
:101E2000FC480168006801F00C0700F48036207857
:101E3000F94DC00741D0082F12D00C2F02D1B6F5B2
:101E4000803F0DD06068012811D008B1052818D056
:101E5000286820F480302860286820F4802009E079
:101E60002868800329D560680028D8D025E0286834
:101E700040F480302860606890B1FEF7C9FF80466A
:101E80000AE0286840F480202860F0E7FEF7C0FFF1
:101E9000A0EB080064287BD828688003F6D50CE006
:101EA000FEF7B6FF804605E0FEF7B2FFA0EB0800A4
:101EB0006428F0D828688003F6D42078DFF85CB373
:101EC000DFF85C8380074FF001094FF0000A35D539
:101ED000042F0AD00C2F00D13EB1E068F8B1C8F849
:101EE0000090FEF795FF06460BE0286880070BD5AB
:101EF000E068012812D107E0FEF78AFF801B022864
:101F0000C9D828688007F7D5DBF80010226921F4CA
:101F1000F85141EA0221CBF800100FE077E1C8F850
:101F200000A0FEF775FF064605E000BFFEF770FF54
:101F3000801B0228AFD828688007F7D42078C00615
:101F400074D53FB1A069E0B3C8F82090FEF760FFF8
:101F500006464AE02868800502D5A069002884D09A
:101F6000206ADBF800105E4601F46041884210D917
:101F700000F02AFF0028BDD13068216A20F46040BB
:101F800008433060217F306861F31F6030600FE0EC
:101F900096E0316821F4604101433160217F30686F
:101FA00061F31F603060206A00F00EFF0028A1D1AD
:101FB000216A4FF4004009EB513188409549096886
:101FC00000E025E0974AC1F30311515CC8409649EF
:101FD000086096480068FFF7E3F800286FD125E015
:101FE000FEF716FF801B02286AD828688005F7D5FF
:101FF000DBF80010226A21F460411143CBF8001095
:10200000227FDBF8001062F31F61CBF800100DE0B7
:10201000C8F820A0FEF7FCFE064604E0FEF7F8FE36
:10202000801B02284CD828688005F7D42078804E81
:10203000000722D57F48616981B1C0F80090FEF7A2
:10204000E7FE834606E000BFFEF7E2FEA0EB0B00D2
:10205000022835D830688007F6D50EE0C0F800A019
:10206000FEF7D6FE834605E0FEF7D2FEA0EB0B009E
:10207000022825D830688007F6D4207840076DD52F
:102080006B484FF0000B10380068C0000BD4684854
:102090001038016841F08051016000684FF0010B79
:1020A00000F08050009064480168C90514D40168AC
:1020B00041F480710160FEF7ABFE009008E08DE016
:1020C00079E000BFFEF7A4FE0099401A642872D898
:1020D00059480068C005F5D5A06801280AD008B1A4
:1020E000052811D0306820F480703060306820F40A
:1020F000806002E0306840F480703060A068A8B171
:10210000FEF786FE00900DE0306840F4806030609D
:10211000F0E700BFFEF77CFE0099411A41F28830DB
:1021200081425AD830688005F4D50EE0FEF770FE83
:10213000009007E0FEF76CFE0099411A41F28830EA
:1021400081424AD830688005F4D4BBF1000F05D035
:1021500037481038016821F080510160606A58B337
:102160000C2F41D00228504605D0C8F86000FEF779
:102170004FFE044634E04746C8F86000FEF748FECC
:10218000064604E0FEF744FE801B022825D8286896
:102190008001F7D4D4E90A1001431E48226B03687A
:1021A00023F47D031A4311430160C7F86090FEF7E2
:1021B0002FFE044607E010E040E000BFFEF728FED7
:1021C000001B022809D828688001F7D536E000BF37
:1021D000FEF71EFE001B022802D90320BDE8F88F7F
:1021E00028688001F4D429E00128F7D00948006864
:1021F000A26A00F48031914209D1E26A00F47011C0
:10220000914204D1216B00F44000884216D0012095
:10221000E4E7000008380240003802400438024079
:1022200000004742B95100088000002074000020DF
:102230003438024080064742007000400020CDE75D
:1022400010B5401EB0F1807F01D3012010BD4FF0CA
:10225000E02460610F21601702F0ACFA0020A06159
:1022600007202061002010BD70B590F83820012AA9
:1022700026D0012480F83840022280F839200368F3
:102280005A689D6822F070060A6832435A600268F4
:10229000B2F1804F08D00B4B9A4205D00A4B9A42BC
:1022A00002D00A4B9A4204D1496825F080031943B1
:1022B000916080F83940002180F83810084670BDE0
:1022C000022070BD000400400008004000080140EA
:1022D00010B5040003D094F8390010B107E00120D4
:1022E00010BD002084F83800204600F017F80220C6
:1022F00084F83900211D206800F0F8FD012084F8E1
:102300003E0084F83A0084F83B0084F83C0084F8EE
:102310003D0084F83900002010BD000008B50068B9
:102320000B49884212D10B48016841F0100101604D
:102330000068002200F01000009011462B20FEF7EC
:102340007DFFBDE808402B20FEF76ABF08BD0000F6
:10235000001000402438024090F83910012901D0C3
:1023600001207047022180F839100168CA6842F0E4
:102370000102CA600068B0F1804F08D00949884264
:1023800005D00949884202D00849884204D18168B1
:1023900001F00701062903D0016841F00101016045
:1023A0000020704700040040000800400008014081
:1023B00001680A6A41F211131A4203D10A6822F035
:1023C00001020A60012180F839100020704770472F
:1023D00070B50446006801694FF00005C9438907DC
:1023E00015D4C168C943890711D4E91E01610120D0
:1023F0002076206880698007204602D0FFF7E7FF3B
:1024000004E000F078F8204600F0A0F82576206877
:102410000169C943490717D4C168C943490713D49F
:102420006FF004010161022020762068806910F4B9
:10243000407F204602D0FFF7CAFF04E000F05BF8BF
:10244000204600F083F8257620680169C943090712
:1024500016D4C168C943090712D46FF0080101619D
:10246000042020762068C0698007204602D0FFF74C
:10247000AEFF04E000F03FF8204600F067F8257654
:1024800020680169C943C90617D4C168C943C90690
:1024900013D46FF010010161082020762068C06914
:1024A00010F4407F204602D0FFF791FF04E000F0D7
:1024B00022F8204600F04AF8257620680169C943D1
:1024C000C90708D1C168C943C90704D1891E016180
:1024D000204600F03CF820680169C943490609D448
:1024E000C168C943490605D46FF040010161204627
:1024F00000F02EF870BD704770B50D46040003D093
:1025000094F8390010B107E0012070BD002084F874
:102510003800204600F019F8022084F83900211D07
:10252000206800F0E3FC2068016821F008010160E8
:1025300054F83E0B016829430160012004F81F098B
:10254000E0762077A076002070BD70477047704716
:102550007047FEE701684A69D24352050FD46FF411
:1025600080624A61002140F8301F2022427381734B
:10257000026942F0040202610173012070470020E9
:10258000704700002DE9F843044600680D46DDE978
:10259000089701689846164641F4807101604B46E1
:1025A00000224FF001112046009700F065F848B175
:1025B00020680068C00502D54FF400702064032035
:1025C000BDE8F883216805F0FE0008613B464A46F5
:1025D0001549204600F084F888B92068416980696F
:1025E00000903A464946204600F0C5F848B1206CB4
:1025F000042804D12068016841F4007101600120C1
:10260000DEE7F5B2B8F1010F09D02168300A0861A0
:102610003A464946204600F0AEF80028E7D1206847
:1026200005610020CCE700000200010070B51646ED
:102630000D4604460DE02046FFF78CFF08B101204F
:1026400070BD681C05D0FEF7E3FB801BA84207D8CD
:1026500035B120684069C0434007ECD4002070BD0C
:10266000002044F8300F20216173A073216941F0EC
:10267000200121612073E2E72DE9F0471E469046D4
:102680000D460446C1F30747DDF8209008E0701CB2
:1026900006D0FEF7BDFBA0EB0900B0420FD876B123
:1026A0002068012F18D0806925EA00000004000C82
:1026B00014D000214145EAD00020BDE8F087002079
:1026C00044F8300F20216173A073216941F020018B
:1026D000216120730120F0E74069E5E70121E9E786
:1026E0002DE9F0479A4691460E46044600254FF0E4
:1026F0002008C1F3074725E020684069C043400532
:1027000014D42068016841F40071016021686FF4FD
:1027100080604861256384F83D8084F83E50206CD9
:1027200040F00400206484F83C501FE0B9F1FF3F02
:1027300008D0FEF76DFBA0EB0A0149450CD8B9F1B2
:10274000000F09D02068012F13D0806926EA00000D
:102750000004000C0BD0CFE744F8305F84F80D8004
:10276000A573206940F02000206125730120BDE899
:10277000F0874069EAE770B516460D4604460DE05D
:102780002046FFF7E7FE08B1012070BD681C05D0A8
:10279000FEF73EFB801BA84207D835B12068406990
:1027A000C0430006ECD4002070BD002044F8300F78
:1027B00020216173A073216941F020012161207300
:1027C000E2E70000F0B500230A24302537261F4633
:1027D00011E000BFB4EB107F02D905EB107C01E0E3
:1027E00006EB107C01F813C001EB430C00015B1CED
:1027F0008CF80170DBB29342ECD3F0BD3EB50024FF
:1028000016480094019414490294C0E900148460AD
:10281000C460046144618461C461046280F824403E
:102820000125856280F82C401021C0E90D1480F844
:102830003C40FEF721F808B1FDF778FF0820CDE90C
:102840000005694602940548FDF772FF002801D093
:10285000FDF76CFF3EBD00000024014098030020FE
:10286000094808B5016841F08071016000680022E4
:1028700000F08070009011461020FEF7DFFCBDE8EC
:1028800008401020FEF7CCBC1C3802402DE9F04176
:1028900086B014216846FDF7EDFD4648016841F019
:1028A00004010160016801F004010591016841F033
:1028B00020010160016801F020010591016841F0EB
:1028C00001010160016801F001010591016841F019
:1028D000020101600068384F00F0020005900022FC
:1028E00006213846FEF78EFADFF8D0800022042158
:1028F0004046FEF787FA4FF460400325CDE9000516
:102900000024694602942E48FEF762F948F201005D
:10291000CDE90005694602943846FEF759F90620CC
:1029200000900126CDE90164694638460394FEF71C
:102930004FF94FF4FF6000904FF44410CDE90106C9
:1029400069463846FEF744F94FF63A70CDE900057E
:10295000694602944046FEF73BF904200090CDE919
:102960000164694640460394FEF732F9002211469D
:102970000920FEF763FC0920FEF752FC00221146F5
:102980000A20FEF75BFC0A20FEF74AFC00221146F3
:102990001720FEF753FC1720FEF742FC00221146D9
:1029A0002820FEF74BFC2820FEF73AFC06B0BDE8D5
:1029B000F08100001C380240000002400004024088
:1029C000000802400D4810B50B4901600C494160F8
:1029D00000214FF480428160C0E9031241618161AE
:1029E000C1610162FEF71AFA002803D0BDE8104069
:1029F000FDF79CBE10BD000000540040EC03002019
:102A0000801A06001CB50024124800941049019455
:102A100001604FF47A71C0E90114A0214461C160E2
:102A2000FFF756FC08B1FDF781FE08210948FFF7C2
:102A300063FD08B1FDF77AFE0094694605480194EC
:102A4000FFF712FC002801D0FDF770FE1CBD00004E
:102A5000001000408404002010B500220F491048E7
:102A600000F094FD08B1FDF761FE0E490C4800F03E
:102A70006FFF08B1FDF75AFE0B49094800F094FBBF
:102A800008B1FDF753FE064800F0B8FF002803D058
:102A9000BDE81040FDF74ABE10BD00001400002044
:102AA000C40400206001002064000020FEE7FEE76F
:102AB0002DE9F84F044640F68F7B48F60F7A4FF029
:102AC00002094FF4806874E1B0F8441011F00F0669
:102AD0003AD030F8267039047DD530F8261001EA56
:102AE0000B0141F0800120F8261006EB860004EB74
:102AF000C00595F8740105F5B47500286CD0E87828
:102B000002286AD02878226832F8201048F68F739D
:102B1000194048F2C003194322F820102878D4F84D
:102B200000C03CF82010BCF8502049047ED509EBC9
:102B3000C000111808EB41003CF800008005800D32
:102B4000009074D02A89D8E0C9062DD4018801EA02
:102B50000A0141F400410180216804F12805B1F81F
:102B600050202B7809EBC300024408EB4200085ABE
:102B7000C0F309006064E16B0844E0630021204673
:102B8000FEF7BAFB94F8240000289CD0A86900281E
:102B900099D194F82400216840F08000A1F84C00FD
:102BA000002084F8240004E1018804F5B4750A05C6
:102BB00021D5B0F850202B78062101EBC3010A443F
:102BC00008EB4201405A04F52C71C0F30903EB6194
:102BD000EA88206802E0ACE068E07AE001F0BAFD43
:102BE0002168088800EA0B0040F080000880204639
:102BF000FEF7D3FFDDE00904D5D5018801EA0B011A
:102C000041F0800101802068B0F850202B78062127
:102C100001EBC3010A4408EB4201405A83059B0DB6
:102C2000EB6110D0696971B1EA8801E058E056E0C3
:102C3000206801F08FFDE969686908446861002136
:102C40002046FEF762FB2068018809052DD4B0F804
:102C500050100844296900F20C4051B13E2910D8A7
:102C60004A08C90700D0521C4FF6FF7101EA8221C1
:102C70000FE0018821F4F8410180018841F400410E
:102C800007E04A09C90600D1521E4FF4004141EA4B
:102C900082210180206801884BF68F72114081F4F7
:102CA000405148F280021143018082E0D4F800C014
:102CB000BCF850102A78062000EBC200014408EB53
:102CC00041003CF800008005800D00901AD0EA8891
:102CD00013E03A4629462046FEF775FB009011E0C6
:102CE000062101EBC000111808EB41003CF8000080
:102CF0008005800D009005D06A89034660466969A9
:102D000001F028FDE96900980844E86169690098C4
:102D100008446861A86918B129690098814204D9FA
:102D200029782046FEF7F1FA03E02946206801F0F1
:102D3000E1F938063DD506EB860004EBC0012068BA
:102D400030F8262002EA0A0242F4004220F8262047
:102D500091F82B002831032804D018B1022824D17F
:102D6000F80522D42368B3F850200D7809EBC5008C
:102D7000024408EB4200185A8A69C0F309008242F3
:102D80000CD9121A8A610BD04A6902444A61CA6995
:102D90001044C861206801F0ADF90AE000208861A4
:102DA000E9B22046FEF7A8FA03E03A462046FEF7CD
:102DB0007DFB2068B0F8441009043FF585AE002083
:102DC000BDE8F88F7047000038B51C49002309683A
:102DD0001B4A11F0F00F23D118491C310C68E50093
:102DE000184C03D5216801F4C0540EE00D6845F07D
:102DF00080550D600D6805F08055009524680D68BC
:102E000004F4C05425F080550D60B4F5C05F07D1BF
:102E1000B0F5404F04D11068012340F00400106069
:102E2000106820F0010018431060106800F00100E5
:102E3000984201D0012038BD002038BD083802403A
:102E4000003C0240007000407047FEF791B900005E
:102E500010B592B034216846FDF70CFB14210DA883
:102E6000FDF708FB1648016821F4C05141F40061E8
:102E7000016003200124CDE900041020CDE90340C6
:102E800002200990C0030A90C0000B90C0000C9073
:102E90006846FEF7C1FF08B172B6FEE70F20CDE924
:102EA0000D0400200F901090014611900DA8FEF720
:102EB000A7FE002801D072B6FEE712B010BD0000D8
:102EC0000070004070470000064810B50168491CBA
:102ED00001600548FFF76CFABDE810400248FFF7B3
:102EE00077BA0000100000208404002070B502684A
:102EF0004FF08046154B164CB04203D0984201D09B
:102F0000A04205D122F070054A682A43B0420CD095
:102F100098420AD0A04208D00E4B984205D00E4BE2
:102F2000984202D00D4B984203D122F44073CA68F4
:102F30001A430B6922F080021A4302608A68C26257
:102F4000096881620121416170BD000000040040F8
:102F50000008004000080140000C01400010014042
:102F600010B586B0002001F0ADFC012000210090DA
:102F70001F237F22084601F083FC0221084601F04E
:102F80005FFD14220F4901A8FDF742FA0E4C012300
:102F900001A8D4E9001201F0F3FD0C480CA102686D
:102FA00001A8FDF7B1F90A21022001F049FDD4E999
:102FB0000012012301A801F0E3FD01F053FD06B06A
:102FC00010BD00009C5100080800002010000020E7
:102FD00074657374207465787420323A2025640017
:102FE0002DE9F041D0F89832D0F89022CAB101EB27
:102FF000810500EB85040026E7693FB103EBC503BB
:103000009B6BB7FBF3F503FB157323B1C2F8146296
:103010000020BDE8F08100231A46E66100F07BFC49
:10302000F6E70220F5E770B50546D0F8904200F0CB
:1030300078FBC4F80C02D5F8900248B1D5F8941288
:10304000D4F80402CA6804F503719047002070BDEB
:10305000022070BD70B504460026812100F0B4FA4C
:10306000002501212046E56200F0AEFA82212046CB
:10307000C4F8585100F0A8FA2564D4F8900248B179
:10308000D4F8940204F5247440688047206800F066
:1030900012FE2560304670BD10B5D0E9A44159B18B
:1030A00094F80002FF2807D08B6894F8012221468B
:1030B0009847FF2084F80002002010BD0A210180FB
:1030C0000048704788000020432101800048704775
:1030D000D800002043210180004870479400002060
:1030E00043210180004870471C0100202DE9F04178
:1030F00004460026007C4FF40077012590B340235E
:1031000002228121204600F063FB4023E562022277
:103110000121204600F05CFB082303228221204687
:10312000C4F8585100F054FB4FF40770256400F0C8
:10313000C3FDC4F89002F8B10546D4F894020068C3
:1031400080470020C5F81402C5F81802207CD5F885
:10315000042298B140230121204600F045FB30466F
:10316000BDE8F081FFE73B4602228121204600F0C6
:103170002FFB3B46E562CAE70126F0E73B46EAE75C
:1031800010B5D0F8901269B1027C002AD1F804225F
:1031900005D04023012100F027FB002010BD4FF493
:1031A0000073F7E7022010BD02460220002902D07A
:1031B0000020C2F894127047D0F89002C0F80412B0
:1031C00000207047D0F89002C0F81022C0F8081212
:1031D000002070472DE9FC410546D0F89072002090
:1031E0008DF80000ADF80400064608780C4610F093
:1031F000600121D020293BD1E288AAB10006607885
:1032000007D5D5F894128B6839469847E288394635
:1032100026E087F80002A07987F80102E2883946A3
:10322000284600F06AF828E0D5F894126078002269
:103230008B682146984720E0607820B10A2809D0A1
:103240000B2815D110E095F87402032810D1022242
:1032500001A905E095F87402032809D10122694605
:10326000284600F064F808E095F87402032804D0BA
:103270002146284600F036F802263046BDE8FC819B
:1032800010B5D0F89012A1B1D1F814220AB10120E2
:1032900010BD0122C1F81422D1F810220263B1F846
:1032A000102293B2D1F80822812100F034FB0020D3
:1032B00010BD022010BD10B5D0F88C225268904786
:1032C000002010BD134610B50A46002100F08CFA0C
:1032D000002010BD134610B50A46002100F01BFB6C
:1032E000002010BD10B50446802100F0F9FA2046F8
:1032F000BDE81040002100F0F3BA10B50323C0F878
:103300004821C0F86C32C0F84C2113460A4600210F
:1033100000F06AFA002010BD10B505210023C0F8A6
:103320006C121A46194600F05FFA002010BD10B565
:103330000223C261C0F86C32026213460A460021C1
:1033400000F0E9FA002010BD10B504210023C0F8F8
:103350006C121A46194600F0DEFA002010BD00007B
:1033600010B50A46024903A000F0E0F8004810BD7D
:103370006007002043444320436F6E666967000086
:1033800012200880004870473400002010B50A461B
:10339000024903A000F0CAF8004810BD60070020F1
:1033A00043444320496E74657266616365000000A2
:1033B00004200880004870473000002010B50A46FD
:1033C000024903A000F0B2F8004810BD60070020D9
:1033D00053544D6963726F656C656374726F6E6987
:1033E0006373000010B50A46024903A000F09EF87E
:1033F000004810BD6007002053544D3332205669F9
:10340000727475616C20436F6D506F7274000000B0
:1034100010B51A2008800948D0E91414806D0818E6
:1034200009D008220649FFF7CDF9054904221031D9
:103430002046FFF7C7F90248801E10BD0000F81FA4
:103440004A000020F8B5044648880D46010A0829BC
:103450004BD2DFE801F04A0409174A4A4048D4F841
:103460008812207C0A6832E0207C02260028D4F8EA
:103470008C0205D0C16A684688470146467041E023
:10348000816AF8E7C0B206282FD2DFE800F003080F
:103490000D12171CD4F88812207C4A6817E0D4F863
:1034A0008812207C8A6812E0D4F88812207CCA68CE
:1034B0000DE0D4F88812207C0A6908E0D4F888125C
:1034C000207C4A6903E0D4F88812207C8A69694626
:1034D0009047014616E0207C38B9D4F88C02416B45
:1034E00068468847F5E7207C20B129462046FFF74B
:1034F000F9FEF8BDD4F88C02016B68468847014696
:1035000007204870BDF8000048B1EA8852B18242F5
:1035100000D90246ADF800202046FFF708FFE888F2
:103520000028E6D12046FFF70FFFF8BD70B5002355
:1035300000281ED00446002502E06D1CEDB2641C7C
:103540002678002EF9D1022404EB45041480127869
:10355000CA545B1C0322CA5400245B1C06E0CA54F4
:103560005B1CDAB28C54521CD3B2401C0278002A85
:10357000F5D170BD01004FF0000004D0012901D049
:10358000022901D0022070470120704710B580B198
:10359000D0F88C3213B10023C0F88C3209B1C0F8D6
:1035A0008812012180F87412027000F0BFF8002028
:1035B00010BD022010BD10B5D0F89802FDF7D5FE61
:1035C000BDE81040FFF7D6BF10B5D0F89802FDF760
:1035D000A6FEBDE81040FFF7CDBF2DE9F04117462C
:1035E000044651B1D4F88C0242691AB194F87402BD
:1035F000032851D00220BDE8F081D4F86C320025B8
:1036000004F11400022B03D0042B3AD0C3B33CE0E6
:10361000D0E903639E4207D9F11AC1608AB23946E4
:103620002046FFF757FE12E08068B0FBF3F103FB82
:10363000110199B9984211D3D4F8701288420DD271
:10364000002211462046FFF745FEC4F870520023C1
:103650001A461946204600F0C7F816E0D4F88C0246
:10366000C16829B194F87402032801D12046884723
:103670008021204600F034F92046FFF74DFE04E09B
:10368000FFE78021204600F02BF994F8780201280A
:1036900004D184F8785201E0204690470020AAE740
:1036A00070B51546044649B1D4F88C0282691AB146
:1036B00094F87402032830D0022070BDD4F86C1244
:1036C00004F5A070032902D005291ED027E0D0E917
:1036D00003218A420BD9531AC3600846834200D3A0
:1036E00003469AB229462046FFF7ECFD17E0D4F8CE
:1036F0008C02016929B194F87402032801D1204693
:1037000088472046FFF720FE09E000200146C4F864
:103710006C02204600F0E4F801E0204690470020CB
:1037200070BDD0F89802FEF759B8000010B51E49D8
:103730000446C1F8E802C0F898121C480860082046
:10374000486002208860086101208861C86100200B
:1037500008620846FEF75EF908B1FCF7E7FF0022B1
:10376000D4F898021823114604F52674FDF798FD45
:103770005823002280212068FDF792FDC0230022FB
:1037800081212068FDF78CFD4FF488730022012110
:103790002068FDF785FD4FF48073002282212068A8
:1037A000FDF77EFD002010BD50130020005C00409E
:1037B0000A0601F07F01D0F8980201EB810100EBCD
:1037C000C10002D590F82A00704790F86A0170474E
:1037D00010B51C461346D0F898022246FEF707F8AB
:1037E000BDE81040FFF7C6BE10B5D0F89802FEF74E
:1037F0002EF8BDE81040FFF7BDBE70B500220446AC
:1038000040231146FFF7E4FF40260125C4F850612C
:103810003346002280212046C4F84451FFF7D8FFE8
:103820006662A56184F874520020C4F86C0260607E
:10383000C4F87C02D4F8900228B1D4F88C0200219C
:10384000426820469047002070BD90F8751280F8BD
:1038500074120020704710B590F87412032904D137
:10386000D0F88C12C96901B18847002010BD0174DD
:103870000020704710B5D0F89802FEF77AF9BDE83D
:103880001040FFF777BE70B5044600F5207005467E
:1038900000F04AF80120C4F86C02B4F88602C4F8BB
:1038A000700294F8800210F01F010AD001290DD097
:1038B000022910D000F08001204600F011F800200D
:1038C00070BD2946204600F09EF8F8E729462046BC
:1038D00000F0CAF9F3E72946204600F01DF9EEE7AB
:1038E00010B5D0F89802FDF7CBFFBDE81040FFF708
:1038F00041BE10B5D0F89802FEF756F9BDE8104069
:10390000FFF738BE90F8741280F87512042180F821
:1039100074120020704710B5D0F89802FDF7E0FF50
:10392000BDE81040FFF726BE0A7802704A78427060
:103930008A78CB7802EB032242800A794B7902EB3A
:10394000032282808A79C97902EB0121C180704704
:103950000246002011B1C2F88C1270470220704755
:1039600010B5D0F88C2202241AB11268904700B921
:103970000024204610BD000070B50E461E4D89780B
:1039800004462970012931D894F8740202280BD01A
:1039900003280FD031462046FFF7A4FC29782046A3
:1039A000BDE87040FFF787BCD9B10320616084F89F
:1039B000740209E071B16068884212D0C1B2204639
:1039C000FFF779FC297861602046FFF7C9FF0228DC
:1039D0000CD006E0022084F8740220466160FFF7F4
:1039E0006AFC2046BDE87040FFF7AEBC3146204679
:1039F000BDE87040FFF776BC8400002010B5FFF7EB
:103A000078FF002010BD2DE9F0410A78002612F061
:103A1000600208D0202A01D0402A70D1D0F88C2230
:103A2000926890476DE04B78002201250A2B66D200
:103A3000DFE803F0405D6557650805652C29FFF751
:103A400001FD5EE004468888D8B9C888C8B94888AE
:103A5000802816D200F07F0794F87402032810D053
:103A600084F8767239462046FFF704FF2046FFF7B8
:103A70006BFC1FB1022084F8740242E084F8745297
:103A80003FE020463BE0FFF777FF3AE0CB88012B91
:103A900035D190F87432012B04D0022B02D0032BC5
:103AA0002DD104E08260012200F1080116E001221C
:103AB000011D13E090F87422012A03D0022A01D0DC
:103AC000032A1CD1CA88022A19D1C560D0F87C12F9
:103AD00009B10321C160022200F10C01FFF727FCAC
:103AE0000FE0498801290CD1C0F87C5211E090F810
:103AF0007432012B08D0022B06D0032B04D0FFF721
:103B0000F1FB3046BDE8F08149880129F9D1C0F8C0
:103B10007C22FFF719FCF4E72DE9F0410A46044640
:103B200010780027097910F060030AD0202B01D00B
:103B3000402B50D1D4F88C02114683682046984718
:103B40008FE0C0F34110012806D05078D0B301288F
:103B50002AD003283FD107E0D4F88C0211468368AD
:103B60002046BDE8F041184794F87402022802D0BC
:103B7000032872D10AE071B380296ED02046FFF786
:103B8000AFFE80212046FFF7ABFE6AE0508838B9CF
:103B900031B1802904D0D08810B92046FFF7A0FEAB
:103BA0002046FFF7D1FB5CE094F874020228E2D0D3
:103BB000032852D1508898BB4806F1D02046FFF721
:103BC000FAFCEDE7FFE794F874020026022803D020
:103BD000032842D112E040E009B180293DD1080616
:103BE00001F07F0000EB800004EB800101D514316F
:103BF00001E001F5A07102220E602AE0080601F042
:103C00000F0000EB800004EB80000AD5806920B330
:103C100001F07F0000EB800004EB800514350BE021
:103C20001FE0D0F84401C0B101F07F0000EB80003C
:103C300004EB800505F5A07541B1802906D020462A
:103C4000FFF7B6FD10B10120286000E02E600222CF
:103C500029462046FFF76BFB03E011462046FFF79D
:103C600041FB3846BDE8F08170B5054608780C4642
:103C700010F0600003D0202801D0402816D195F81C
:103C80007402012803D0022801D003280ED1207924
:103C900001280BD8D5F88C02826828469047E18825
:103CA000014306D12846FFF74FFB02E02846FFF705
:103CB00019FB002070BD704700487047301100208C
:103CC0002DE9F0470C78002630F8243048F68F12A2
:103CD0001340CA78002A7DD0012A7CD0022A02D063
:103CE000032A7FD0012648F28002134320F82430B3
:103CF0000D7830F8254048F68F731C402C43144350
:103D000020F825400D7B48F2C00C48F6BF744CF2F9
:103D100080074BF68F79EDB391F80080C24630F8FA
:103D2000285048F280181D4045EA080520F82A501E
:103D3000B0F8505091F80080054405EB0815B1F833
:103D4000088028F00108A5F80084B0F8505091F8D8
:103D50000080054405EB0815B1F80A8028F0010839
:103D6000A5F808844D78002D0D7830F825804FEAAD
:103D700048487DD0B8F1000F07DA30F8258008EA0E
:103D8000030848EA070820F825800F7830F8275004
:103D90006D0600E02CE006D530F827501D4045EABE
:103DA0000C0520F82750CB780D78012B30F8253002
:103DB00003EA040301D083F02003134320F82530E5
:103DC0000B7830F8231001EA0901114320F8231081
:103DD000304602E003E008E004E0BDE8F08743F489
:103DE000007380E743F4C0637DE743F480637AE7C0
:103DF0004D782DB3B0F850500F78054405EB0715FA
:103E0000CF8827F00107A5F800740F7830F8275005
:103E10006D0606D530F827501D4045EA0C0520F800
:103E20002750CB78012B06D00B7830F82310214097
:103E300081F02001C9E70B7830F823102140C4E756
:103E4000B0F850400D78044404EB0514CD8825F0FB
:103E50000105A4F80854B0F850400D78044404EB70
:103E600005140D6904F20C4475B13E2D14D800E020
:103E700030E04FEA550CED0701D00CF1010C4FF684
:103E8000FF7505EA8C2511E0258825F4F845258085
:103E9000258845F4004509E04FEA551CED0601D19F
:103EA000ACF1010C4FF4004545EA8C2525800D78D6
:103EB00030F82540640405D530F825401C403C43CB
:103EC00020F825400B7830F8231001EA090181F42D
:103ED00040517AE7B8F1000F07DA30F8258008EA98
:103EE000030848EA070820F825800F7830F82750A3
:103EF0006D0606D530F827501D4045EA0C0520F820
:103F000027500D7830F8253003EA090383F4405335
:103F1000134320F825308EE72DE9F04391F80C800B
:103F20004F780A7848F6BF7C4BF68F7948F28003C9
:103F300048F2C0054CF2800648F68F74B8F1000FC5
:103F400028D0002F30F822704FEA474748D0002F82
:103F500005DA30F822702740374320F822700A78BB
:103F600030F822707F0605D530F8227027402F43A5
:103F700020F822700D7830F825202240324320F8B6
:103F800025200C7830F8242002EA0C021A4320F88D
:103F900024201AE07FB130F82260760605D530F88B
:103FA000226026402E4320F822600A7830F8221042
:103FB00001EA0C010EE030F822506D0405D530F80E
:103FC00022502540354320F822500A7830F822103C
:103FD00001EA0901194320F822100020BDE8F0830E
:103FE000002F05DA30F822702740374320F822707E
:103FF0000A7830F82260760605D530F8226026402F
:104000002E4320F822600E7830F8262022402A43E2
:1040100020F826200C7830F8242002EA09021A43FE
:1040200020F82420C1E700207047012120F8401F1C
:1040300000210180818001820846704730F8401FCE
:1040400021F43F4101800020704730B50A7BB2BBAC
:104050004A7848F68F7548F28004C2B10B7830F880
:104060002320520607D530F823202A4048F2C00505
:104070002A4320F82320CA78012A20D00A7830F871
:10408000221048F6BF73194081F0200114E00A782D
:1040900030F822305B0407D530F822302B404CF248
:1040A00080052B4320F822300A7830F822104BF696
:1040B0008F73194081F44051214320F822100020D1
:1040C00030BD10B54A780978002A48F2800330F8EC
:1040D000212005D048F6BF74224082F0100204E08F
:1040E0004BF68F74224082F480521A4320F821202C
:1040F000002010BD2DE9F0470E464B78097B0446A1
:104100004FF0000948F68F7248F2800A4FF6FF77A9
:104110004FF40048012B09D000296ED0F078022816
:104120006CD001286BD00120BDE8F087B5693069FB
:10413000854200D90546C9B1F17848F280130229B9
:1041400023D0317834F821001040184324F821009E
:10415000306A401B3062307834F82010490671789C
:104160007ED500297DD001297CD03FE1ABB2F28819
:104170002046716900F00AFBB4F850003178204401
:1041800000EB0110A0F80454EAE0316A81426AD9D8
:10419000317834F821001040184324F82100306AA7
:1041A000401B3062307834F82010490671786CD5A5
:1041B00011B1012924D02AE0B4F85010214401EBB8
:1041C000001000F20C404DB13E2D0FD86908EA07EF
:1041D00000D0491C07EA8121018018E0018821F400
:1041E000F8410180018841F40041F5E76909EA06D8
:1041F00000D1491E48EA8121EEE79CE1BCE126E2BC
:10420000B4F85020111901EB0010A0F80C54728979
:10421000ABB22046716900F0B9FA70692844706148
:104220003169306A884202D9401B306202E005469B
:10423000C6F82090707800287CD1B4F8500031780E
:10424000204400EB011000F204406DB13E2D13D864
:104250006908EA0700D0491C07EA8121018012E0C1
:1042600001E19BE0BBE084E0018821F4F84101809A
:10427000018841F40041F1E76909EA0600D1491ECD
:1042800048EA8121EAE7328965E011B1012921D0AC
:1042900027E0B4F85010214401EB001000F2044074
:1042A0004DB13E2D0FD86908EA0700D0491C07EA36
:1042B0008121018015E0018821F4F8410180018805
:1042C00041F40041F5E76909EA0600D1491E48EAD0
:1042D0008121EEE7B4F85010214401EB0010A0F862
:1042E00004543289ABB22046716900F04FFA70690C
:1042F000284470613169306A884202D9401B3062BB
:1043000002E00546C6F82090707800287ED1B4F807
:1043100050003178204400EB011000F20C4055B100
:104320003E2D10D86908EA0700D0491C07EA812110
:1043300001800FE072E0018821F4F84101800188DA
:1043400041F40041F4E76909EA0600D1491E48EA50
:104350008121EDE77289ABB22046716900F016FA4F
:10436000317834F8210048F6BF72104080F03000F8
:10437000C0E1327834F8220048F68F63184040EAF2
:104380000A0024F82200B4F850003278204400EBF0
:1043900002108BB2A0F804343289DDE7B4F8501073
:1043A000214401EB001000F20C404DB13E2D0FD81E
:1043B0006908EA0700D0491C07EA8121018015E05D
:1043C000018821F4F8410180018841F40041F5E7BA
:1043D0006909EA0600D1491E48EA8121EEE7B4F8EE
:1043E0005020111901EB0010A0F80C547289ABB2E7
:1043F0002046716900F0CAF970692844706131691A
:10440000306A884203D9401B306203E06EE0054603
:10441000C6F82090002DA3D0707858B101287FF401
:104420001EAFB4F850003178204400EB0110A0F822
:10443000045428E7B4F850003178204400EB01110F
:1044400001F204413E2D06D86808EA0700D0401C5E
:1044500007EA802005E06809EA0600D1401E48EA24
:10446000802008800FE711B1012921D027E0B4F89E
:104470005010214401EB001000F204404DB13E2DDC
:104480000FD86908EA0700D0491C07EA812101809A
:1044900015E0018821F4F8410180018841F40041D0
:1044A000F5E76909EA0600D1491E48EA8121EEE7ED
:1044B000B4F85010214401EB0010A0F804543289E4
:1044C000ABB22046716900F061F9706928447061EF
:1044D0003169306A884202D9401B306202E00546E9
:1044E000C6F82090002D96D0707858B101287FF43E
:1044F00020AFB4F850100819317800EB0110A0F883
:104500000C5427E7B4F850003178204400EB011137
:1045100001F20C413E2D06D86808EA0700D0401C85
:1045200007EA802005E06809EA0600D1401E48EA53
:10453000802008800EE7B1693069814202D9091AEA
:10454000B161B5E00846C6F81890B1E0088820F4DB
:10455000F8400880088840F400400BE03E2875D8F9
:104560004208C00700D0521C07EA822002E000BFC8
:1045700048EA82200880B5E093B9B4F85000317859
:10458000204400EB0110316900F2044069B13E297A
:1045900013D84B08C90700D05B1C07EA83210180B0
:1045A000707888B1012832D03AE0018821F4F841CE
:1045B0000180018841F40041F1E74B09C90600D1AF
:1045C0005B1E48EA8321EAE7B4F8500031782044C2
:1045D00000EB0110316900F20C4049B13E290FD8BF
:1045E0004B08C90700D05B1C07EA8321018017E054
:1045F000018821F4F8410180018841F40041F5E788
:104600004B09C90600D15B1E48EA8321EEE7B4F8E6
:1046100050100819317800EB0110318AA0F80C1401
:10462000F069A8B3317834F82100430401D543067A
:1046300003D444F24003184254D134F8210010400E
:1046400048F2C002104324F821004BE03CE0B1697D
:104650003069814202D9091AB16102E00846C6F800
:1046600018908BB9B4F850103278214401EB021144
:1046700001F2044168B13E2813D84208C30700D0B4
:10468000521C07EA82220A80717889B1012921D05F
:1046900028E00A8822F4F8420A800A8842F400429C
:1046A000F1E74209C30600D1521E48EA8222EAE736
:1046B000B4F850103278214401EB021101F20C41A0
:1046C00000287FF44BAF41E74209C0067FF450AFAA
:1046D000521E4DE7B4F850201119327801EB021147
:1046E000A1F80C04317834F821004BF68F72104099
:1046F00080F4405040EA0A0024F82100002013E52D
:104700000021A0F844104FF43F41A0F840100020D1
:1047100070470000074810B5806930B1064801684D
:1047200021F006010160FEF793FB04494FF480205D
:10473000086010BD5013002010ED00E0140401408B
:104740000148FDF7E7B8000050130020B0F844001E
:104750007047000010B500EB42005C0800F5806077
:1047600009D000BF30F8042B01F8012B120A01F820
:10477000012B641EF6D1DA0701D00088087010BD45
:1047800011B98021A0F84C100020704710B55B1CB7
:1047900000EB42005B0800F5806009D011F8012BA6
:1047A00011F8014B42EA042220F8042B5B1EF5D1DC
:1047B00010BDFEE70907090E002804DB00F1E02028
:1047C00080F80014704700F00F0000F1E02080F83E
:1047D000141D704710B50B46024603A11846FBF79F
:1047E00093FD002010BD0000256400001CB5FCF7FF
:1047F000C7FCFEF72DFBFEF749F8FDF7FFFFFEF7BC
:104800002FF8FEF7DFF8FEF727F9FEF7FBF80F4C5D
:10481000012204212046FCF7F5FA0122022120465C
:10482000FCF7F0FA00F05EF8012000F04BF800F021
:1048300019F9694643F23900FFF7CCFF6420FCF711
:10484000A7F905216846FBF713FFF7E700000240D0
:1048500030B580280ED220290CD2012401F00705A2
:10486000AC40064BC90800EBC110012A195C02D00C
:10487000A143195430BD2143FBE7000098010020FB
:104880002DE9F8419846079C17460E4605460B460B
:10489000009400F08BF83A464346314610460094A7
:1048A00000F084F843462A4619463846009400F042
:1048B0007DF82A46334641461046009400F076F8CB
:1048C000BDE8F88110B5064A00214FF4007328B105
:1048D000FF245454491C9942F9D310BD0024F8E731
:1048E0009801002010B56420FCF752F9002000F078
:1048F000ADF8202000F022F9002000F01FF9B020D0
:1049000000F01CF9C82000F019F9002000F016F999
:10491000102000F013F9402000F010F9FF2000F003
:1049200084F8A12000F00AF9A62000F007F9A820D9
:1049300000F004F91F2000F001F9A42000F0FEF8B7
:10494000D32000F0FBF8002000F0F8F8D52000F0AC
:10495000F5F8F02000F0F2F8D92000F0EFF822206E
:1049600000F0ECF8DA2000F0E9F8022000F0E6F8B8
:10497000DB2000F0E3F8202000F0E0F88D2000F0CC
:10498000DDF8142000F0DAF8012000F05FF80020D4
:10499000FFF798FF00F066F803480021018041808E
:1049A0000121017110BD0000000000202DE9FC4F25
:1049B00007469A4690460E46D41B00D56442BAEB91
:1049C000060000D5404281464FF0FF30474501D2F6
:1049D000012100E0014601915146564500D20120D7
:1049E0008346A4EB090540460B9AFFF731FFC9F156
:1049F0000000009013E0314638460B9AFFF728FF7D
:104A000000996800884204DD0199A5EB0905394445
:104A1000CFB2A04203DA06EB0B002544C6B24745ED
:104A2000E9D15645E7D1BDE8FC8F10B50446812099
:104A300000F084F82046BDE8104000F07FB8000088
:104A4000014A10805180704700000020044910B1D5
:104A5000AF20012201E0AE2000224A7100F06EB8C2
:104A60000000002070B50C4D002400BF04F1B00020
:104A7000C0B200F063F8002000F060F8102000F0F1
:104A80005DF805EBC410802100F06AF8641CE4B204
:104A9000042CEBD370BD0000980100202DE9FF4FDE
:104AA00093460098A0F1200ABAF15F0F0CD2224879
:104AB000CEB202883244802A06D881464088C1F3AB
:104AC00007273844202803D9002004B0BDE8F08F20
:104AD000002525E00AFB075100243BF811801CE06B
:104AE00008FA04F0000409D599F8021099F80000BA
:104AF00029442044C9B2C0B2039A0BE00398C0B164
:104B00005FF0000299F8021099F80000294420444F
:104B1000C9B2C0B2FFF79CFE641CA642E0D86D1C6F
:104B2000AF42D7D8B9F800103144A9F80010009866
:104B3000CBE70122E6E700000000002001B584B0C9
:104B400001214FF0FF3204A88DE807000B46002238
:104B500078210248FCF726FA05B000BDEC030020DE
:104B60000EB54FF0FF3289B28DE8070001234022D5
:104B700078210248FCF716FA0EBD0000EC03002075
:104B8000F0B51D460E46174604460AE02B463A4647
:104B90003146FFF783FF2178884201D0C8B2F0BDCB
:104BA000641C20780028F1D1C0B2F0BD00000000E4
:104BB00000000000000000000000000000200020B5
:104BC00000200020002000000020000000500050C5
:104BD00000500000000000000000000000500050E5
:104BE00000F8005000F8005000500000002000784D
:104BF00000A00070002800F00020000000C000C8E5
:104C0000001000200040009800180000004000A0A4
:104C100000A0004000A800900068000000300030B4
:104C200000200040000000000000000000100020F4
:104C30000040004000400020001000000040002024
:104C4000001000100010002000400000002000A80C
:104C5000007000F8007000A8002000000000002094
:104C6000002000F8002000200000000000000000EC
:104C700000000000003000300020000000000000B4
:104C8000000000F80000000000000000000000002C
:104C900000000000000000300030000000000008AC
:104CA000001000200040008000000000007000881C
:104CB000009800A800C80088007000000020006074
:104CC00000200020002000200070000000700088FC
:104CD000000800700080008000F8000000F8000864
:104CE0000010003000080088007000000010003044
:104CF0000050009000F800100010000000F8008044
:104D000000F0000800080088007000000038004033
:104D1000008000F0008800880070000000F80008A3
:104D20000008001000200040008000000070008893
:104D30000088007000880088007000000070008803
:104D4000008800780008001000E00000000000006B
:104D50000020000000200000000000000000000013
:104D6000002000000020002000400000000800108B
:104D7000002000400020001000080000000000009B
:104D800000F8000000F800000000000000400020D3
:104D90000010000800100020004000000070008893
:104DA0000008003000200000002000000070008893
:104DB00000A800B800B0008000780000002000507B
:104DC0000088008800F800880088000000F0008853
:104DD000008800F00088008800F000000070008863
:104DE00000800080008000880070000000F00088D3
:104DF000008800880088008800F0000000F800802B
:104E0000008000F00080008000F8000000F80080C2
:104E1000008000F0008000800080000000780088A2
:104E200000800080009800880078000000880088DA
:104E3000008800F8008800880088000000700020CA
:104E4000002000200020002000700000003800102A
:104E5000001000100010009000600000008800901A
:104E600000A000C000A0009000880000008000802A
:104E7000008000800080008000F80000008800D8DA
:104E800000A800A800A8008800880000008800880A
:104E900000C800A800980088008800000070008802
:104EA00000880088008800880070000000F00088FA
:104EB000008800F000800080008000000070008802
:104EC0000088008800A800900068000000F00088BA
:104ED000008800F000A000900088000000700088AA
:104EE00000800070000800880070000000F800A832
:104EF0000020002000200020002000000088008802
:104F00000088008800880088007000000088008801
:104F10000088008800880050002000000088008879
:104F2000008800A800A800A80050000000880088A1
:104F30000050002000500088008800000088008891
:104F400000500020002000200020000000F8000891
:104F5000001000700040008000F800000078004061
:104F60000040004000400040007800000000008049
:104F70000040002000100008000000000078000839
:104F80000008000800080008007800000020005019
:104F90000088000000000000000000000000000089
:104FA000000000000000000000F800000060006049
:104FB00000200010000000000000000000000000C1
:104FC00000600010007000900078000000800080F9
:104FD00000B000C8008800C800B000000000000059
:104FE0000070008800800088007000000008000841
:104FF0000068009800880098006800000000000029
:105000000070008800F80080007000000010002888
:1050100000200070002000200020000000000000A0
:105020000070009800980068000800000080008070
:1050300000B000C800880088008800000020000040
:105040000060002000200020007000000010000020
:105050000010001000100090006000000080008030
:10506000009000A000C000A00090000000600020A0
:105070000020002000200020007000000000000040
:1050800000D000A800A800A800A8000000000000B0
:1050900000B000C800880088008800000000000000
:1050A0000070008800880088007000000000000088
:1050B00000B000C800C800B0008000000000000080
:1050C00000680098009800680008000000000000D8
:1050D00000B000C8008000800080000000000000D8
:1050E000007800800070000800F000000020002020
:1050F00000F8002000200028001000000000000040
:105100000088008800880098006800000000000007
:105110000088008800880050002000000000000087
:105120000088008800A800A80050000000000000CF
:10513000008800500020005000880000000000009F
:105140000088008800780008008800000000000047
:1051500000F800100020004000F8000000100020BF
:10516000002000400020002000100000002000204F
:10517000002000000020002000200000004000204F
:10518000002000100020002000400000004000A887
:10519000001000000000000000000000746573743F
:1051A000207465787400000000000000000000001A
:1051B000030406080C101820300000000000000056
:1051C00000010203040607080900000000010203B1
:1051D00004000000F45100080000002098010000C5
:1051E00030010008C052000898010020081B000090
:1051F0008C0100088123060813AC4B19062113818A
:10520000331B08B1041ABD041AE5041311341B083A
:1052100061081A8D04170403090412011402020222
:10522000164083044057260201020301031A1A03A1
:105230001335061B0831041A2D041A5904321019AB
:1052400033515468FF1F130A0632022A40181C0902
:10525000024357111DC0320904291A020B130524F9
:105260001610010524011009010424020205240678
:10527000170107058203081C1009048D320A1D0757
:10528000050102432C070581070938442A40072AF3
:105290008107112B0907440A3B044413ED301B0816
:1052A000550413D53142081A990C13E12F1B082716
:1052B00008C11AD5102AC91C19041ABD040000001F
:04000005080000F5FA
:00000001FF
