:020000040800F2
:10000000C00E002091010008A7210008131D000860
:10001000A521000887030008E73A00080000000057
:100020000000000000000000000000004D25000856
:100030009503000800000000C92400084F250008AF
:10004000AB010008AB010008AB010008AB010008E0
:10005000AB010008AB010008AB010008AB010008D0
:10006000AB010008B1030008C9030008AB01000898
:10007000AB010008AB010008AB010008AB010008B0
:1000800089030008AB010008AB010008AB010008C0
:10009000753A0008AB010008AB010008E103000855
:1000A00000000000AB010008AB010008AB01000834
:1000B000AB010008AB010008AB010008AB01000870
:1000C000AB010008AB010008AB010008AB01000860
:1000D000AB010008AB010008AB010008AB01000850
:1000E00099030008AB010008493A0008CD25000833
:1000F000AD26000800F002F800F03AF80AA090E8F7
:10010000000C82448344AAF10107DA4501D100F0D2
:100110002FF8AFF2090EBAE80F0013F0010F18BF65
:10012000FB1A43F0010318471C3F00003C3F00004E
:10013000103A24BF78C878C1FAD8520724BF30C813
:1001400030C144BF04680C607047000000230024E5
:1001500000250026103A28BF78C1FBD8520728BFD7
:1001600030C148BF0B6070471FB51FBD10B510BD33
:1001700000F0D4F81146FFF7F7FF03F0C5FC00F0DC
:10018000F2F803B4FFF7F2FF03BC00F0F5F800004B
:100190000948804709480047FEE7FEE7FEE7FEE71B
:1001A000FEE7FEE7FEE7FEE7FEE7FEE70448054957
:1001B000054A064B70470000C9250008F5000008F5
:1001C000C0080020C00E0020C00A0020C00A002085
:1001D00053EA020C00F069802DE9F04B4FF0000665
:1001E000002B1FBFB3FA83F503FA05F424FA05F6D2
:1001F0005E4012BF1643B2FA82F502FA05F4C5F169
:1002000020051EBF22FA05FC44EA0C04203556EAFC
:10021000044C4FEA144418BF641C4FF000084FF020
:100220000009904271EB030C39D3002919BFB1FAD0
:1002300081F701FA07F6B0FA80F700FA07F6C7F17E
:1002400020071EBF20FA07FC46EA0C062037B6FB43
:10025000F4FCA7EB0507103F07F01F0BCBF12006BE
:100260000CFA0BFB2CFA06F644BFB3460026202FEF
:10027000A4BF5E464FF0000B5BEA060C08BF4FF0D0
:10028000010B19EB0B09ABFB027C48EB0608C01B0A
:1002900006FB02CC0BFB03CC71EB0C01C1E70B4658
:1002A000024641464846BDE8F08B13B54FF00000CA
:1002B0004FF00001AFF30080BDE81C4070474FF0E5
:1002C000000200B5134694469646203922BFA0E8A6
:1002D0000C50A0E80C50B1F12001BFF4F7AF0907B2
:1002E00028BFA0E80C5048BF0CC05DF804EB8900A3
:1002F00028BF40F8042B08BF704748BF20F8022BE6
:1003000011F0804F18BF00F8012B704770477047FD
:1003100070470000004870475C0800207546FFF7F2
:10032000F9FFAE4605006946534620F007008546B2
:1003300018B020B5FFF73AFFBDE820404FF00006A7
:100340004FF000074FF000084FF0000B21F00701BD
:10035000AC46ACE8C009ACE8C009ACE8C009ACE800
:10036000C0098D46704710B50446AFF300802046A3
:10037000BDE81040FFF705BF01491820ABBEFEE7FE
:10038000260002007047FEE7014800F045B8000073
:100390008C0200207047000010B5044801F0BCFB3F
:1003A000BDE810404FF4806000F0D6B8D0020020C5
:1003B00010B5044801F0B0FBBDE81040082000F083
:1003C000CBB80000D002002010B5044801F0A4FB17
:1003D000BDE81040102000F0BFB80000D00200209F
:1003E00010B50B4801F098FB202000F0B5F8402034
:1003F00000F0B2F8802000F0AFF84FF4807000F009
:10040000ABF8BDE810404FF4007000F0A5B8000054
:10041000D002002072B6FEE7F0B4C16B0C68016830
:100420000D6890F8402002F01C06042202FA06F340
:10043000234211D06B070FD50B689B0603D40B68C2
:1004400023F004030B6090F8401001F01C018A4077
:10045000C16B4A60C16A1DE0022303FA06F7274216
:100460004FF0000C4FF0010218D0AF0716D50C6802
:10047000A40605D40C6824F00A040C6080F821203E
:1004800090F8401001F01C018B40C16B4B6080F86C
:1004900020C0816A00291AD0F0BC08470823B34065
:1004A000234214D02B0712D50B6823F00E030B60E8
:1004B00090F84010C36B01F01C0102FA01F1596081
:1004C000826380F8212080F820C0016BE2E7F0BC55
:1004D0007047000030B528B308C8134914221944E6
:1004E000B1FBF2F18900C1631049816302214177B8
:1004F0001A6847F6F0718A43D0E900142143D0E925
:1005000002452C4321430469214344692143846902
:100510002143114319600021416301224277017791
:10052000084630BD012030BDF89FFDBF006002408D
:1005300070B5044600F040F90546601C02D004483E
:100540004068044400F038F9401BA042FAD370BD63
:100550002400002070470000044910B50A680242D8
:1005600002D00860FFF7F6FF10BD00001404014040
:100570002DE9F04FDFF80C92002209F1040A012561
:1005800003240AF1040B85B00F260BF1040EF0E0F2
:1005900005FA02F71CEA07037ED091F804C00CF0BC
:1005A000030CBCF1010F02D0BCF1020F26D1D0F830
:1005B00008C0CDF800C04FEA420C04FA0CF8CDF8A0
:1005C00010C0DDF800C02CEA080CCDF800C0D1F84E
:1005D0000C80DDF810C008FA0CF8DDF800C048EA1D
:1005E0000C08C0F80880D0F804C02CEA070C0F797A
:1005F000C7F30017974047EA0C0747600F79FF439E
:10060000BF070ED0C7684FEA420804FA08FC27EA81
:100610000C07D1F808C00CFA08FC4CEA070CC0F82B
:100620000CC00F7907F00307022F15D1D70800EB94
:10063000870702973F6A4FEA427C4FEADC6806FA76
:1006400008FC27EA0C07D1F810C00CFA08FC4CEAA9
:10065000070C029FC7F820C007684FEA420804FA57
:1006600008FC27EA0C0791F804C00CF0030C0CFA04
:1006700008FC4CEA070CC0F800C04F6817F4403F74
:1006800076D0414FD7F800C04CF0010CC7F800C03D
:100690003F6807F0010700E06AE000973B4F22F057
:1006A000030C67440297BF684FEA827C4FEA1C78CC
:1006B00006FA08FC27EA0C07DFF8D4C0604502D12F
:1006C0004FF0000C1DE0DFF8CCC0604502D14FF0C8
:1006D000010C16E0DFF8C0C0604502D14FF0020CFB
:1006E0000FE0DFF8B8C0604502D14FF0030C08E01E
:1006F000DFF8ACC0604502D14FF0040C01E04FF0D0
:10070000050C0CFA08FC4CEA070C029FC7F808C05D
:10071000D9F80070CC46D1F804809F435FEAC8380E
:1007200000D51F43CCF80070DAF80070D446D1F839
:1007300004809F435FEA883800D51F43CCF80070DF
:10074000DBF80070DC46D1F804809F435FEAC828DC
:1007500000D51F43CCF80070DEF80070F446D1F8E5
:1007600004809F435FEA882800D51F43CCF80070BF
:10077000521C0B689C46D3407FF40AAF05B0BDE81D
:10078000F08F0000000401402038024000000140CA
:10079000000002400004024000080240000C024039
:1007A000001002400069084000D0012070470AB1E3
:1007B000816170470904FBE70148806870470000C9
:1007C0002400002070B5040025D094F83D000025D9
:1007D00020B984F83C50204600F050F9242084F8D9
:1007E0003D002068016821F0010101602068016876
:1007F00041F4004101602068016821F4004101607A
:1008000000F09CFE4D4A6168914201D84C4900E0DD
:100810004C49884201D2012070BD4B492368B0FB8E
:10082000F1F15E6826F03F060E435E606368934216
:1008300006D94FF4967359434FF47A73B1FBF3F131
:100840002368491C1E6A26F03F063143196261681D
:10085000914210D84900401EB0FBF1F2521CC2F385
:100860000B02042A01D2042022E0B0FBF1F0401C6C
:10087000C0F30B001CE0A268F2B301EBC10303EB71
:100880000116431EB3FBF6F35B1C43F480431B05C8
:1008900049D092B301EBC10202EB0111401EB0FB43
:1008A000F1F0401CC0F30B0040F4804040F40040E5
:1008B0002168CA694CF6FF739A431043C861D4E9B2
:1008C000071001432068026822F0C0021143016052
:1008D000D4E9030101432068826848F2FF339A4358
:1008E00011438160D4E9050108432168CA6822F0F8
:1008F000FF021043C86001E00EE016E020680168C6
:1009000041F0010101602564202084F83D00256349
:1009100084F83E50002070BD01EB4106431EB3FB3E
:10092000F6F35B1CB3E70120C2E701EB4101401E77
:10093000B0FBF1F0401CC0F30B00B7E7A08601004C
:1009400080841E0000093D0040420F002DE9FF4F4A
:1009500083B09A46DDE9119793460446DDF840805E
:10096000FFF72AFF054694F83D0020287FD1192380
:10097000012240492046009501F05EFA002876D118
:1009800094F83C00012872D0012084F83C002068D3
:100990000168C90703D1016841F0010101602068C5
:1009A000016821F400610160212084F83D004020AD
:1009B00084F83E0000262664C4F82480A4F82A9017
:1009C000608D20852C48E062CDE9007553465A467B
:1009D0002046049901F0B6F970B930E02A4639464C
:1009E000204601F0A8FA58B1206C042804D12068F0
:1009F000016841F400710160012007B0BDE8F08F8B
:100A0000606A216800780861606A401C6062218D1C
:100A1000491E89B22185628D521E62852268536902
:100A2000DB435B070BD469B100781061606A401C3E
:100A30006062208D401E2085608D401E6085208D67
:100A40000028CBD12A463946204601F0CFF90028AC
:100A5000CAD154F83D0B016841F4007101602020B7
:100A600004F81E09E67766770020C6E7FFE7022054
:100A7000C3E70000020010000000FFFF30B587B0A0
:100A8000054614216846FFF71AFC1E49286888426B
:100A900035D11D48016841F00201016000686946D6
:100AA00000F002000590C02000901220019001206B
:100AB000029003200390042004901448FFF758FD8F
:100AC00011480830016841F4001101600068114CC0
:100AD00000F4001005900E48206010200021C4E9A9
:100AE00001018020C4E903016161A1612046E16147
:100AF000FFF7F0FC08B1FFF78DFC6C63656207B08F
:100B000030BD0000005400401C3802400004024088
:100B10006C6002408C0200200248816842681144E7
:100B2000816070472400002010B50024032000F0ED
:100B300079F80F2000F008F808B1012401E000F076
:100B400025F8204610BD000070B50E4E0546002465
:100B5000706898B14FF47A71B1FBF0F00A490968F6
:100B6000B1FBF0F000F038FF40B9102D06D20022A2
:100B70002946501E00F036F8356000E0012420467A
:100B800070BD000024000020300000200D4808B592
:100B9000016841F000410160016801F000410091ED
:100BA000011F0A6842F001020A60096801F00101B0
:100BB0000091016841F080510160006800F08050B0
:100BC000009008BD24380240002809DB00F01F0215
:100BD000012191404009800000F1E020C0F800119F
:100BE00070470000F0B40E4B1B680C46C3F30223A1
:100BF000C3F10705042D00D90425191D072901D2C9
:100C0000002300E0DB1E012606FA05F1491E214003
:100C100099409E40761E16403143F0BC02F064BFFE
:100C20000CED00E0064900F0070208684FF6FF03EC
:100C3000184040EA0220034A104308607047000051
:100C40000CED00E00000FA0501EB810200EBC202AE
:100C5000D0F8E802D26B01F05FBF01EB810200EB3C
:100C6000C202D0F8E802D2F87C2101F0B8BF70B51A
:100C7000044601F00F006268904201D9012070BD66
:100C80000B0601F0070000EB800104EBC1014FF0FF
:100C900001024FF0000503D581F82920283103E037
:100CA00081F8695101F5B4718D70087094F8A8024B
:100CB000012808D084F8A822206802F069FB84F893
:100CC000A852002070BD022070BD2DE9F05F0468BD
:100CD0005FEA424C0B788D69B4F850C04FF00006C3
:100CE0004BF68F7948F2800A48F68F7B48F2C00EA7
:100CF0004FF480672AD54FF0020808EBC308C444BC
:100D000007EB4C07E45BC4F30904A54203D32D1B96
:100D10008D6101D00BE08E61066836F8235005EA3C
:100D2000090585F4005545EA0A0526F823505206C0
:100D300009D50D78036833F8252002EA0B0242EA50
:100D40000E0223F8252084B30A8929E04FF0060813
:100D500008EBC308C44407EB4C07E45BC4F3090485
:100D6000A54203D32D1B8D6101D00BE08E61066877
:100D700036F8235005EA090585F4005545EA0A05C9
:100D800026F82350520609D40B78056835F823203D
:100D900002EA0B0242EA0E0225F823202CB14A890E
:100DA00049690068234602F06FFE2046BDE8F09FC7
:100DB0002DE9F05F054600680C465FEA426C164676
:100DC0008B692278B0F850C048F68F774CF28009D2
:100DD0004FF6FF7B4FF4004E4FF4806A4FF0000156
:100DE0007BD54FF0020808EBC208E0440AEB480C40
:100DF00030F80C00C0F30900834211D91B1AA3611B
:100E00000FD0730407D52E6836F822303B4043EAF2
:100E1000090326F8223094F82420012A50D04EE10C
:100E2000A161607810B1012813D01AE02868B0F8E9
:100E30005030184400EB0210B0F8042422F4F842B9
:100E4000A0F80424B0F8042442F40042A0F80424DA
:100E500007E02868B0F85030184400EB0210A0F802
:100E600004146278286812B1012A11D018E0B0F891
:100E700050100844217800EB0110B0F80C1421F454
:100E8000F841A0F80C14B0F80C1441F4004105E04E
:100E9000B0F850201044227800EB0210A0F80C1497
:100EA00021782846FFF7D0FE7004B8D521782A684B
:100EB00032F82100384040EA090022F82100FEE023
:100EC000626902446261E2690244E2612369226A62
:100ED0009A4203D31846111A04E038E084F824102B
:100EE0000AB110462162617811B1012923D02BE0AB
:100EF0002968B1F850201144227801EB021101F267
:100F0000044148B13E280FD84208C30700D0521C04
:100F10000BEA82220A8017E00A8822F4F8420A804B
:100F20000A8842F40042F5E74209C30600D1521E86
:100F30004EEA8222EEE72968B1F850201144227867
:100F400001EB0211A1F8040483B22289B3E04FF04F
:100F5000060808EBC208E0440AEB480C30F80C0025
:100F6000C0F30900834211D31B1AA3610FD073048D
:100F700007D42E6836F822303B4043EA090326F8AE
:100F8000223094F82420012A50D098E0A1616078A2
:100F900010B1012813D01AE02868B0F85030184476
:100FA00000EB0210B0F8042422F4F842A0F8042464
:100FB000B0F8042442F40042A0F8042407E02868B2
:100FC000B0F85030184400EB0210A0F80414627816
:100FD000286812B1012A11D018E0B0F85010084466
:100FE000217800EB0110B0F80C1421F4F841A0F8BE
:100FF0000C14B0F80C1441F4004105E0B0F8502096
:101000001044227800EB0210A0F80C142178284636
:10101000FFF71AFE700452D42278296831F82200B2
:10102000384040EA090021F8220048E062690244A1
:101030006261E2690244E2612369226A9A4203D34F
:101040001846111A216204E00AB11046216284F8A0
:1010500024106278296812B1012A22D029E0B1F85F
:1010600050201144227801EB021101F20C4148B1E9
:101070003E280FD84208C30700D0521C0BEA822238
:101080000A8016E00A8822F4F8420A800A8842F4AC
:101090000042F5E74209C30600D1521E4EEA822201
:1010A000EEE7B1F850201144227801EB0211A1F8CB
:1010B0000C04628983B26169286802F001FD21781D
:1010C0002A6832F8210048F6BF73184080F03000DB
:1010D00048F28003184322F821000020BDE8F09F69
:1010E0002DE9F04104460F0601F0070000EB8001F6
:1010F00004EBC1014FF001064FF0000503D581F864
:101100002960283103E081F8695101F5B471087054
:101110000A61CB704A7802B1C881022B00D10D71EF
:1011200094F8A802012809D084F8A862206802F087
:1011300003F8284684F8A852BDE8F0810220FBE7B6
:1011400070B50C4601F0070505EB850100EBC10108
:10115000C1E95F230022C1F8842181F8692181F867
:10116000685101F5B4716207006802F067F9002068
:1011700070BD70B5044601F007006268904201D965
:10118000012070BD0B064FF000054FF0010207D59E
:1011900000EB800104EBC10181F82920283107E030
:1011A00001EB810104EBC10181F8695101F5B471D2
:1011B0008A70087094F8A802012808D084F8A82240
:1011C000206802F021F984F8A852002070BD0220A6
:1011D00070BD70B50C4601F0070505EB850100EB0D
:1011E000C101C1E90F23012281F84C208B64002347
:1011F0004B6481F8292001F8285F6207006802F03B
:101200001DF9002070BD10B50446006802F038FCDE
:10121000000402D5204600F0CDFF206802F030FC2B
:1012200040050CD5206830F8441F21F4806101800E
:10123000204600F068F80021204600F07FF8206882
:1012400002F01EFC400405D5206830F8441F21F44C
:1012500080410180206802F013FC800405D52068DD
:1012600030F8441F21F400510180206802F008FC8E
:10127000C00414D5206830F8401F21F0040101801B
:10128000206830F8401F21F008010180204600F05E
:101290004DF8206830F8441F21F480510180206807
:1012A00002F0EEFB000514D5206830F8401F41F035
:1012B00008010180206830F8441F21F4006101809A
:1012C000206830F8401F41F004010180204600F002
:1012D00051F8206802F0D4FB800508D5206830F86A
:1012E000441F21F400710180204600F023F820689B
:1012F00002F0C6FBC00505D5206830F8441F21F474
:101300008071018010BD70B50446806801250228F7
:1013100001D0FFF77FF82946D4F8E80201F0FFFC7E
:10132000D4F8E802BDE8704001F0BFBCD0F8E80294
:1013300001F0E3BCD0F8E80201F0E5BC10B50446CA
:1013400090F8A80201280BD0012084F8A80284F8A4
:101350002410206802F0AEFB002084F8A80210BD23
:10136000022010BDD0F8E82200F52C71104601F0E3
:10137000E2BC000010B50446D0F8E80201F011FD0F
:10138000A069002804D00348016841F0060101600B
:1013900010BD000010ED00E02DE9F0470E460500FD
:1013A00079D0DFF88481D8F8000000F00100B04265
:1013B00014D2012E05D1D8F8001041F00401C8F86C
:1013C0000010D8F8001021F001013143C8F80010D6
:1013D000D8F8000000F00100B0425CD12878534CEE
:1013E000800705D52068A96820F0F0000843206038
:1013F0002878C0075CD04D496868083902281AD09F
:1014000003281BD0096801281BD08905002966DA4A
:10141000216821F0030101432160FFF7CDF96968DC
:10142000074641F28830022914D0032920D001292F
:1014300081462AD038E009688903E7E7096889010D
:10144000E4E78907E2E700BFFFF7B6F9C11B4945AA
:1014500001D926E081462068C0F381000228F3D13B
:1014600026E000BFFFF7A8F9C11B494501D918E0E4
:1014700081462068C0F381000328F3D118E000BF43
:10148000FFF79AF9C11B49450BD82068C0F38100CA
:101490000128F5D10CE022E0FFF78EF9C11B494588
:1014A00002D90320BDE8F087206810F00C0FF3D1BB
:1014B000D8F80010404601F00101B14211D9012EC7
:1014C00003D1016841F004010160016821F00101CC
:1014D00031430160006800F00100B04201D00120FA
:1014E000E0E72878400705D52068E96820F4E06047
:1014F000084320602878000706D52068296920F471
:10150000605040EAC100206000F028F82168084AD5
:10151000C1F30311515CC8400649086006480068E1
:10152000BDE8F047FFF710BB003C0240083802401E
:10153000294000083000002024000020044805490C
:1015400000680968044AC1F30221515CC840704731
:1015500030000020083802403940000810B5114C16
:101560002168114801F00C02042A0BD0082A09D086
:101570000C2A08D0201F0068C0F342314FF400400D
:10158000491C884010BD094AC1F38343D35CC1F3B1
:1015900081522168521CC903A3FB00010023FEF7FE
:1015A00017FE10BD083802400024F4002040000857
:1015B0002DE9F84F04007DD0FC480168006801F077
:1015C0000C0700F480362078F94DC00741D0082F71
:1015D00012D00C2F02D1B6F5803F0DD060680128E3
:1015E00011D008B1052818D0286820F48030286070
:1015F000286820F4802009E02868800329D56068E5
:101600000028D8D025E0286840F480302860606841
:1016100090B1FFF7D1F880460AE0286840F48020B6
:101620002860F0E7FFF7C8F8A0EB080064287BD833
:1016300028688003F6D50CE0FFF7BEF8804605E089
:10164000FFF7BAF8A0EB08006428F0D828688003F8
:10165000F6D42078DFF85CB3DFF85C8380074FF0C6
:1016600001094FF0000A35D5042F0AD00C2F00D104
:101670003EB1E068F8B1C8F80090FFF79DF8064663
:101680000BE0286880070BD5E068012812D107E03D
:10169000FFF792F8801B0228C9D828688007F7D581
:1016A000DBF80010226921F4F85141EA0221CBF85D
:1016B00000100FE077E1C8F800A0FFF77DF80646BC
:1016C00005E000BFFFF778F8801B0228AFD8286834
:1016D0008007F7D42078C00674D53FB1A069E0B385
:1016E000C8F82090FFF768F806464AE028688005A9
:1016F00002D5A069002884D0206ADBF800105E467D
:1017000001F46041884210D900F0E0FE0028BDD10C
:101710003068216A20F4604008433060217F3068DF
:1017200061F31F6030600FE096E0316821F46041A2
:1017300001433160217F306861F31F603060206AAF
:1017400000F0C4FE0028A1D1216A4FF4004009EB4B
:10175000513188409549096800E025E0974AC1F376
:101760000311515CC8409649086096480068FFF72D
:10177000EBF900286FD125E0FFF71EF8801B022847
:101780006AD828688005F7D5DBF80010226A21F4B2
:1017900060411143CBF80010227FDBF8001062F3A8
:1017A0001F61CBF800100DE0C8F820A0FFF704F887
:1017B000064604E0FFF700F8801B02284CD8286892
:1017C0008005F7D42078804E000722D57F486169D4
:1017D00081B1C0F80090FEF7EFFF834606E000BF3E
:1017E000FEF7EAFFA0EB0B00022835D8306880072F
:1017F000F6D50EE0C0F800A0FEF7DEFF834605E058
:10180000FEF7DAFFA0EB0B00022825D8306880072E
:10181000F6D4207840076DD56B484FF0000B103898
:101820000068C0000BD468481038016841F080514E
:10183000016000684FF0010B00F080500090644898
:101840000168C90514D4016841F480710160FEF794
:10185000B3FF009008E08DE079E000BFFEF7ACFF39
:101860000099401A642872D859480068C005F5D517
:10187000A06801280AD008B1052811D0306820F4EA
:1018800080703060306820F4806002E0306840F49E
:1018900080703060A068A8B1FEF78EFF00900DE068
:1018A000306840F480603060F0E700BFFEF784FFEE
:1018B0000099411A41F2883081425AD83068800537
:1018C000F4D50EE0FEF778FF009007E0FEF774FF16
:1018D0000099411A41F2883081424AD83068800527
:1018E000F4D4BBF1000F05D037481038016821F05F
:1018F00080510160606A58B30C2F41D002285046D5
:1019000005D0C8F86000FEF757FF044634E04746AC
:10191000C8F86000FEF750FF064604E0FEF74CFFF3
:10192000801B022825D828688001F7D4D4E90A1042
:1019300001431E48226B036823F47D031A431143BD
:101940000160C7F86090FEF737FF044607E010E03B
:1019500040E000BFFEF730FF001B022809D82868CE
:101960008001F7D536E000BFFEF726FF001B0228F6
:1019700002D90320BDE8F88F28688001F4D429E05B
:101980000128F7D009480068A26A00F4803191422A
:1019900009D1E26A00F47011914204D1216B00F484
:1019A0004000884216D00120E4E7000008380240D9
:1019B0000038024004380240000047422940000835
:1019C00030000020240000203438024080064742C6
:1019D000007000400020CDE710B5401EB0F1807FC0
:1019E00001D3012010BD4FF0E02460610F2160178A
:1019F00002F07AF80020A06107202061002010BDCD
:101A000070B590F83820012A26D0012480F838409B
:101A1000022280F8392003685A689D6822F0700617
:101A20000A6832435A600268B2F1804F08D00B4B0B
:101A30009A4205D00A4B9A4202D00A4B9A4204D1EC
:101A4000496825F080031943916080F839400021EE
:101A500080F83810084670BD022070BD00040040B8
:101A6000000800400008014010B5040003D094F8BD
:101A7000390010B107E0012010BD002084F83800C3
:101A8000204600F017F8022084F83900211D206854
:101A900000F01AFE012084F83E0084F83A0084F831
:101AA0003B0084F83C0084F83D0084F839000020B5
:101AB00010BD000008B5154A0168154891420ED1C5
:101AC000016841F0100101600068002200F0100080
:101AD000009011462B20FFF785F82B2010E00D4ACF
:101AE000914211D1016841F020010160006800229B
:101AF00000F02000009011462C20FFF773F82C20F6
:101B0000BDE80840FFF760B808BD000000100040C5
:101B1000243802400014004090F83910012901D007
:101B200001207047022180F839100168CA6842F02C
:101B30000102CA600068B0F1804F08D009498842AC
:101B400005D00949884202D00849884204D18168F9
:101B500001F00701062903D0016841F0010101608D
:101B600000207047000400400008004000080140C9
:101B700001680A6A41F211131A4203D10A6822F07D
:101B800001020A60012180F8391000207047704777
:101B900070B50446006801694FF00005C943890724
:101BA00015D4C168C943890711D4E91E0161012018
:101BB0002076206880698007204602D0FFF7E7FF83
:101BC00004E000F078F8204600F0A0F825762068C0
:101BD0000169C943490717D4C168C943490713D4E8
:101BE0006FF004010161022020762068806910F402
:101BF000407F204602D0FFF7CAFF04E000F05BF808
:101C0000204600F083F8257620680169C94309075A
:101C100016D4C168C943090712D46FF008010161E5
:101C2000042020762068C0698007204602D0FFF794
:101C3000AEFF04E000F03FF8204600F067F825769C
:101C400020680169C943C90617D4C168C943C906D8
:101C500013D46FF010010161082020762068C0695C
:101C600010F4407F204602D0FFF791FF04E000F01F
:101C700022F8204600F04AF8257620680169C94319
:101C8000C90708D1C168C943C90704D1891E0161C8
:101C9000204600F03CF820680169C943490609D490
:101CA000C168C943490605D46FF04001016120466F
:101CB00000F02EF870BD704770B50D46040003D0DB
:101CC00094F8390010B107E0012070BD002084F8BD
:101CD0003800204600F019F8022084F83900211D50
:101CE000206800F0F1FC2068016821F00801016023
:101CF00054F83E0B016829430160012004F81F09D4
:101D0000E0762077A076002070BD7047704770475E
:101D10007047FEE701684A69D24352050FD46FF459
:101D200080624A61002140F8301F20224273817393
:101D3000026942F004020261017301207047002031
:101D4000704700002DE9F843044600680D46DDE9C0
:101D5000089701689846164641F4807101604B4629
:101D600000224FF001112046009700F065F848B1BD
:101D700020680068C00502D54FF40070206403207D
:101D8000BDE8F883216805F0FE0008613B464A463D
:101D90001549204600F084F888B9206841698069B7
:101DA00000903A464946204600F0C5F848B1206CFC
:101DB000042804D12068016841F400710160012009
:101DC000DEE7F5B2B8F1010F09D02168300A0861E9
:101DD0003A464946204600F0AEF80028E7D1206890
:101DE00005610020CCE700000200010070B5164636
:101DF0000D4604460DE02046FFF78CFF08B1012098
:101E000070BD681C05D0FEF7D7FC801BA84207D820
:101E100035B120684069C0434007ECD4002070BD54
:101E2000002044F8300F20216173A073216941F034
:101E3000200121612073E2E72DE9F0471E4690461C
:101E40000D460446C1F30747DDF8209008E0701CFA
:101E500006D0FEF7B1FCA0EB0900B0420FD876B176
:101E60002068012F18D0806925EA00000004000CCA
:101E700014D000214145EAD00020BDE8F0870020C1
:101E800044F8300F20216173A073216941F02001D3
:101E9000216120730120F0E74069E5E70121E9E7CE
:101EA0002DE9F0479A4691460E46044600254FF02C
:101EB0002008C1F3074725E020684069C04340057A
:101EC00014D42068016841F40071016021686FF446
:101ED00080604861256384F83D8084F83E50206C22
:101EE00040F00400206484F83C501FE0B9F1FF3F4B
:101EF00008D0FEF761FCA0EB0A0149450CD8B9F106
:101F0000000F09D02068012F13D0806926EA000055
:101F10000004000C0BD0CFE744F8305F84F80D804C
:101F2000A573206940F02000206125730120BDE8E1
:101F3000F0874069EAE770B516460D4604460DE0A5
:101F40002046FFF7E7FE08B1012070BD681C05D0F0
:101F5000FEF732FC801BA84207D835B120684069E3
:101F6000C0430006ECD4002070BD002044F8300FC0
:101F700020216173A073216941F020012161207348
:101F8000E2E700002DE9F04186B014216846FEF733
:101F900096F94648016841F004010160016801F0CA
:101FA00004010591016841F020010160016801F020
:101FB00020010591016841F001010160016801F013
:101FC00001010591016841F0020101600068384F8C
:101FD00000F002000590002206213846FEF7E7FBDC
:101FE000DFF8D080002204214046FEF7E0FB4FF4EA
:101FF00060400325CDE900050024694602942E487F
:10200000FEF7B6FA48F20100CDE9000569460294F0
:102010003846FEF7ADFA062000900126CDE90164AE
:10202000694638460394FEF7A3FA4FF4FF60009028
:102030004FF44410CDE9010669463846FEF798FA98
:102040004FF63A70CDE90005694602944046FEF726
:102050008FFA04200090CDE901646946404603945C
:10206000FEF786FA002211460920FEF7BBFD092083
:10207000FEF7AAFD002211460A20FEF7B3FD0A2052
:10208000FEF7A2FD002211461720FEF7ABFD172038
:10209000FEF79AFD002211462820FEF7A3FD282016
:1020A000FEF792FD06B0BDE8F08100001C3802404A
:1020B0000000024000040240000802400D4810B534
:1020C0000B4901600C49416000214FF4804281605E
:1020D000C0E9031241618161C1610162FEF772FBD7
:1020E000002803D0BDE81040FEF794B910BD0000F1
:1020F0000054004038020020801A06001CB500245D
:10210000124800941049019401604FF47A71C0E9BB
:1021100001144FF448714461C160FFF7A5FC08B198
:10212000FEF778F908210948FFF7C6FD08B1FEF768
:1021300071F90094694605480194FFF761FC002895
:1021400001D0FEF767F91CBD00100040D00200204E
:102150001CB500241248009410490194016042F219
:102160001071C0E901144EF660214461C160FFF7AF
:102170007BFC08B1FEF74EF908210948FFF79CFDEA
:1021800008B1FEF747F90094694605480194FFF746
:1021900037FC002801D0FEF73DF91CBD00140040BB
:1021A00010030020FEE7FEE70149012008607047A8
:1021B0001C0000202DE9F84F044640F68F7B48F6BE
:1021C0000F7A4FF002094FF4806874E1B0F84410C0
:1021D00011F00F063AD030F8267039047DD530F86A
:1021E000261001EA0B0141F0800120F8261006EBD1
:1021F000860004EBC00595F8740105F5B475002858
:102200006CD0E87802286AD02878226832F820104A
:1022100048F68F73194048F2C003194322F8201082
:102220002878D4F800C03CF82010BCF850204904AD
:102230007ED509EBC000111808EB41003CF8000006
:102240008005800D009074D02A89D8E0C9062DD46D
:10225000018801EA0A0141F400410180216804F18A
:102260002805B1F850202B7809EBC300024408EB95
:102270004200085AC0F309006064E16B0844E0635F
:1022800000212046FEF7E0FC94F8240000289CD0B2
:10229000A869002899D194F82400216840F08000B2
:1022A000A1F84C00002084F8240004E1018804F522
:1022B000B4750A0521D5B0F850202B78062101EB22
:1022C000C3010A4408EB4201405A04F52C71C0F3E3
:1022D0000903EB61EA88206802E0ACE068E07AE09C
:1022E00001F0D2FB2168088800EA0B0040F0800072
:1022F00008802046FFF736F8DDE00904D5D50188CF
:1023000001EA0B0141F0800101802068B0F8502003
:102310002B78062101EBC3010A4408EB4201405A25
:1023200083059B0DEB6110D0696971B1EA8801E00A
:1023300058E056E0206801F0A7FBE96968690844A5
:10234000686100212046FEF788FC206801880905A5
:102350002DD4B0F850100844296900F20C4051B156
:102360003E2910D84A08C90700D0521C4FF6FF7109
:1023700001EA82210FE0018821F4F84101800188FF
:1023800041F4004107E04A09C90600D1521E4FF44A
:10239000004141EA82210180206801884BF68F725A
:1023A000114081F4405148F280021143018082E0E3
:1023B000D4F800C0BCF850102A78062000EBC20008
:1023C000014408EB41003CF800008005800D0090BE
:1023D0001AD0EA8813E03A4629462046FEF775FCF3
:1023E000009011E0062101EBC000111808EB41003C
:1023F0003CF800008005800D009005D06A890346F6
:102400006046696901F040FBE96900980844E861A9
:102410006969009808446861A86918B12969009839
:10242000814204D929782046FEF717FC03E02946AB
:10243000206801F003F838063DD506EB860004EB72
:10244000C001206830F8262002EA0A0242F4004265
:1024500020F8262091F82B002831032804D018B149
:10246000022824D1F80522D42368B3F850200D782F
:1024700009EBC500024408EB4200185A8A69C0F310
:10248000090082420CD9121A8A610BD04A690244AF
:102490004A61CA691044C861206800F0CFFF0AE0B1
:1024A00000208861E9B22046FEF7CEFB03E03A4601
:1024B0002046FEF77DFC2068B0F8441009043FF583
:1024C00085AE0020BDE8F88F7047000038B51C4984
:1024D000002309681B4A11F0F00F23D118491C3161
:1024E0000C68E500184C03D5216801F4C0540EE0D7
:1024F0000D6845F080550D600D6805F0805500951C
:1025000024680D6804F4C05425F080550D60B4F5BE
:10251000C05F07D1B0F5404F04D11068012340F0EF
:1025200004001060106820F001001843106010686B
:1025300000F00100984201D0012038BD002038BDD4
:1025400008380240003C0240007000407047FEF72F
:10255000E3BA000010B592B034216846FDF7AFFE33
:1025600014210DA8FDF7ABFE1648016821F4C051F7
:1025700041F40061016003200124CDE90004102032
:10258000CDE9034002200990C0030A90C0000B90DF
:10259000C0000C906846FFF70BF808B172B6FEE772
:1025A0000F20CDE90D0400200F90109001461190EE
:1025B0000DA8FEF7F1FE002801D072B6FEE712B0BA
:1025C00010BD0000007000407047000070B5324838
:1025D0000168491C01603148FFF7CAFA304C4FF4DA
:1025E00080712046FEF7DEF840B100254FF40071FF
:1025F0002046FEF7D7F818B1002002E00125F5E7E4
:10260000022005444FF480612046FEF7CBF808B164
:10261000002000E00420054408212046FEF7C2F80F
:1026200008B1002000E00820054410212046FEF7F4
:10263000B9F808B1002000E0102005442021204610
:10264000FEF7B0F808B1002000E02020054440214A
:102650002046FEF7A7F808B1002000E0402005441E
:1026600080212046FEF79EF808B1002000E080207F
:102670000C492844086001F0F9FA08B901F0D8FBC8
:102680000948FFF749FA0849002009684862BDE88F
:1026900070400248FFF77CBA18000020D0020020EA
:1026A00000000240140000201003002010B505486F
:1026B000FFF75EFA01F052FABDE810400148FFF75B
:1026C00067BA00001003002070B502684FF0804622
:1026D000154B164CB04203D0984201D0A04205D110
:1026E00022F070054A682A43B0420CD098420AD0C2
:1026F000A04208D00E4B984205D00E4B984202D013
:102700000D4B984203D122F44073CA681A430B69F7
:1027100022F080021A4302608A68C26209688162FC
:102720000121416170BD000000040040000800402C
:1027300000080140000C0140001001402DE9FC415F
:10274000002001F083FA8A4E01241E25706898B992
:10275000CDE900541E23874A0021222001F004FA0B
:10276000844ACDE900541E2378320021442001F030
:10277000FBF901F063FB7460002001F067FA7E4F03
:1027800002E00120FDF7D4FE3A68002AF9D00020CB
:102790004FF0FF3804FA00F1114203D028B10128AC
:1027A00009D00CE0401C0828F4DBB068C6F80080B3
:1027B000401EB06003E0B0683460401CB0601F236E
:1027C000442219462420009401F0B4FA1F233A222F
:1027D00019462E20009401F0ADFA3168032001293A
:1027E000B16801F1020107D0072944D2DFE801F006
:1027F0007F7A818DA27278000729F6D2DFE801F096
:10280000777279043C6A70002026002001F01EFADD
:10281000CDE90054F0B21E23564A002101F0A4F97C
:10282000544ACDE9005406F12200C0B21E2378328A
:10283000002101F099F91F23442219462420009415
:1028400001F078FA1F233A2219462E20009401F055
:1028500071FA022E08D1474ACDE900541E23F03206
:102860000021442001F080F901F0E8FA0220FDF790
:102870005FFEB61EC9D175E02026002001F0E6F902
:102880003C4ACDE90054F0B21E237832002101F019
:102890006BF9384ACDE9005406F12200C0B21E237C
:1028A000F032002101F060F91F2344221946242050
:1028B000009401F03FFA1F233A2219462E2000947B
:1028C00001F038FA01F0BAFA0220FDF731FEB61E27
:1028D000D3D147E0274A1E23F0320021084637E0D3
:1028E000C6F80880234A1E230021442030E0B0604F
:1028F000F0E7CDE900541E231E4A0021222001F0FA
:1029000033F91C4A1E237832EEE7CDE9005400214A
:102910001E23184A084601F027F9164ACDE900544B
:102920001E2378320021222001F01EF9114A1E23B5
:10293000F032D9E70F4ACDE9005400211E23783246
:10294000084601F011F90B4A1E23F0320021222023
:10295000CDE9005401F008F901F070FA02E001201D
:10296000FDF7E6FD38680028F9D1BDE8FC810000DC
:1029700008000020B83E00081400002010B5D0F870
:102980008C2252689047002010BD134610B50A46AD
:10299000002100F081F9002010BD134610B50A4651
:1029A000002100F007FA002010BD10B50446802178
:1029B00000F0EEF92046BDE81040002100F0E8B933
:1029C00010B505210023C0F86C121A46194600F014
:1029D00063F9002010BD10B50223C261C0F86C324B
:1029E000026213460A46002100F0E4F9002010BDFF
:1029F00010B504210023C0F86C121A46194600F0E5
:102A0000D9F9002010BDF8B5044648880D46010AE2
:102A100008294BD2DFE801F04A0409174A4A404826
:102A2000D4F88812207C0A6832E0207C0226002834
:102A3000D4F88C0205D0C16A6846884701464670C2
:102A400041E0816AF8E7C0B206282FD2DFE800F043
:102A500003080D12171CD4F88812207C4A6817E06E
:102A6000D4F88812207C8A6812E0D4F88812207C7E
:102A7000CA680DE0D4F88812207C0A6908E0D4F80E
:102A80008812207C4A6903E0D4F88812207C8A6985
:102A900069469047014616E0207C38B9D4F88C028C
:102AA000416B68468847F5E7207C20B129462046DF
:102AB000FFF77BFFF8BDD4F88C02016B68468847AE
:102AC000014607204870BDF8000048B1EA8852B1BD
:102AD000824200D90246ADF800202046FFF77BFF76
:102AE000E8880028E6D12046FFF782FFF8BD010004
:102AF0004FF0000004D0012901D0022901D00220AA
:102B000070470120704710B5D0F89802FEF7AFF873
:102B1000BDE81040FFF7EBBF2DE9F0411746044632
:102B200051B1D4F88C0242691AB194F874020328A6
:102B300051D00220BDE8F081D4F86C32002504F1B8
:102B40001400022B03D0042B3AD0C3B33CE0D0E9ED
:102B500003639E4207D9F11AC1608AB23946204602
:102B6000FFF71BFF12E08068B0FBF3F103FB1101DC
:102B700099B9984211D3D4F8701288420DD200222C
:102B800011462046FFF709FFC4F8705200231A4689
:102B90001946204600F080F816E0D4F88C02C1688F
:102BA00029B194F87402032801D120468847802176
:102BB000204600F0EDF82046FFF702FF04E0FFE7B3
:102BC0008021204600F0E4F894F87802012804D12E
:102BD00084F8785201E0204690470020AAE770B5BB
:102BE0001546044649B1D4F88C0282691AB194F8AA
:102BF0007402032830D0022070BDD4F86C1204F5A2
:102C0000A070032902D005291ED027E0D0E90321B6
:102C10008A420BD9531AC3600846834200D3034645
:102C20009AB229462046FFF7B0FE17E0D4F88C028E
:102C3000016929B194F87402032801D1204688471C
:102C40002046FFF7D5FE09E000200146C4F86C02DB
:102C5000204600F09DF801E020469047002070BD1E
:102C60000A0601F07F01D0F8980201EB810100EB28
:102C7000C10002D590F82A00704790F86A017047A9
:102C800010B51C461346D0F898022246FEF728FAE3
:102C9000BDE81040FFF72BBF10B5D0F89802FEF743
:102CA0004FFABDE81040FFF722BF70B5002204467E
:102CB00040231146FFF7E4FF40260125C4F8506188
:102CC0003346002280212046C4F84451FFF7D8FF44
:102CD0006662A56184F874520020C4F86C026060DA
:102CE000C4F87C02D4F8900228B1D4F88C020021F8
:102CF000426820469047002070BD90F8751280F819
:102D000074120020704710B590F87412032904D192
:102D1000D0F88C12C96901B18847002010BD017438
:102D20000020704710B5D0F89802FEF707FBBDE809
:102D30001040FFF7DCBE70B5044600F52070054674
:102D400000F041F80120C4F86C02B4F88602C4F81F
:102D5000700294F8800210F01F010AD001290DD0F2
:102D6000022910D000F08001204600F011F8002068
:102D700070BD2946204600F087F8F8E7294620462E
:102D800000F0B3F9F3E72946204600F006F9EEE734
:102D900010B5D0F89802FEF7ECF9BDE81040FFF747
:102DA000A6BE90F8741280F87512042180F874128F
:102DB0000020704710B5D0F89802FEF70AFABDE877
:102DC0001040FFF794BE0A7802704A7842708A7801
:102DD000CB7802EB032242800A794B7902EB032283
:102DE00082808A79C97902EB0121C180704710B5D0
:102DF000D0F88C2202241AB11268904700B900243E
:102E0000204610BD70B50E461E4D897804462970C7
:102E1000012931D894F8740202280BD003280FD06E
:102E200031462046FFF7C1FD29782046BDE87040B5
:102E3000FFF7A4BDD9B10320616084F8740209E0F2
:102E400071B16068884212D0C1B22046FFF796FD8A
:102E5000297861602046FFF7CAFF02280CD006E0FF
:102E6000022084F8740220466160FFF787FD204647
:102E7000BDE87040FFF7BCBD31462046BDE870405C
:102E8000FFF793BD340000202DE9F0410A780026B9
:102E900012F0600208D0202A01D0402A70D1D0F868
:102EA0008C22926890476DE04B78002201250A2B16
:102EB00066D2DFE803F0405D6557650805652C299B
:102EC000FFF7A1FD5EE004468888D8B9C888C8B974
:102ED0004888802816D200F07F0794F874020328EF
:102EE00010D084F8767239462046FFF71BFF204643
:102EF000FFF77EFD1FB1022084F8740242E084F8DF
:102F000074523FE020463BE0FFF77CFF3AE0CB887D
:102F1000012B35D190F87432012B04D0022B02D052
:102F2000032B2DD104E08260012200F1080116E09C
:102F30000122011D13E090F87422012A03D0022A15
:102F400001D0032A1CD1CA88022A19D1C560D0F841
:102F50007C1209B10321C160022200F10C01FFF7CC
:102F60003AFD0FE0498801290CD1C0F87C5211E0EC
:102F700090F87432012B08D0022B06D0032B04D01A
:102F8000FFF713FD3046BDE8F08149880129F9D1EA
:102F9000C0F87C22FFF72CFDF4E72DE9F0410A464A
:102FA000044610780027097910F060030AD0202B1E
:102FB00001D0402B50D1D4F88C02114683682046B2
:102FC00098478FE0C0F34110012806D05078D0B365
:102FD00001282AD003283FD107E0D4F88C021146FB
:102FE00083682046BDE8F041184794F8740202282F
:102FF00002D0032872D10AE071B380296ED0204636
:10300000FFF7C6FE80212046FFF7C2FE6AE0508827
:1030100038B931B1802904D0D08810B92046FFF7E3
:10302000B7FE2046FFF7E4FC5CE094F87402022847
:10303000E2D0032852D1508898BB4806F1D02046F0
:10304000FFF761FDEDE7FFE794F874020026022820
:1030500003D0032842D112E040E009B180293DD1DC
:10306000080601F07F0000EB800004EB800101D531
:10307000143101E001F5A07102220E602AE0080679
:1030800001F00F0000EB800004EB80000AD580699E
:1030900020B301F07F0000EB800004EB80051435C5
:1030A0000BE01FE0D0F84401C0B101F07F0000EB5D
:1030B000800004EB800505F5A07541B1802906D09C
:1030C0002046FFF7CDFD10B10120286000E02E6002
:1030D000022229462046FFF77EFC03E011462046E7
:1030E000FFF763FC3846BDE8F08170B50546087807
:1030F0000C4610F0600003D0202801D0402816D1E3
:1031000095F87402012803D0022801D003280ED1BB
:10311000207901280BD8D5F88C0282682846904780
:10312000E188014306D12846FFF762FC02E0284609
:10313000FFF73BFC002070BD2DE9F0470C7800261E
:1031400030F8243048F68F121340CA78002A7DD018
:10315000012A7CD0022A02D0032A7FD0012648F21D
:103160008002134320F824300D7830F8254048F6CB
:103170008F731C402C43144320F825400D7B48F2EC
:10318000C00C48F6BF744CF280074BF68F79EDB354
:1031900091F80080C24630F8285048F280181D404F
:1031A00045EA080520F82A50B0F8505091F8008000
:1031B000054405EB0815B1F8088028F00108A5F8CA
:1031C0000084B0F8505091F80080054405EB0815D4
:1031D000B1F80A8028F00108A5F808844D78002D80
:1031E0000D7830F825804FEA48487DD0B8F1000FBF
:1031F00007DA30F8258008EA030848EA070820F8CB
:1032000025800F7830F827506D0600E02CE006D5B9
:1032100030F827501D4045EA0C0520F82750CB78A0
:103220000D78012B30F8253003EA040301D083F038
:103230002003134320F825300B7830F8231001EADF
:103240000901114320F82310304602E003E008E0B2
:1032500004E0BDE8F08743F4007380E743F4C06303
:103260007DE743F480637AE74D782DB3B0F8505092
:103270000F78054405EB0715CF8827F00107A5F85F
:1032800000740F7830F827506D0606D530F82750B7
:103290001D4045EA0C0520F82750CB78012B06D0BD
:1032A0000B7830F82310214081F02001C9E70B781A
:1032B00030F823102140C4E7B0F850400D780444A2
:1032C00004EB0514CD8825F00105A4F80854B0F8E6
:1032D00050400D78044404EB05140D6904F20C44CD
:1032E00075B13E2D14D800E030E04FEA550CED07E3
:1032F00001D00CF1010C4FF6FF7505EA8C2511E0A9
:10330000258825F4F8452580258845F4004509E001
:103310004FEA551CED0601D1ACF1010C4FF400450C
:1033200045EA8C2525800D7830F82540640405D5C4
:1033300030F825401C403C4320F825400B7830F8FD
:10334000231001EA090181F440517AE7B8F1000F36
:1033500007DA30F8258008EA030848EA070820F869
:1033600025800F7830F827506D0606D530F82750A5
:103370001D4045EA0C0520F827500D7830F825301F
:1033800003EA090383F44053134320F825308EE702
:1033900030B50A7BB2BB4A7848F68F7548F2800494
:1033A000C2B10B7830F82320520607D530F823201D
:1033B0002A4048F2C0052A4320F82320CA78012A6F
:1033C00020D00A7830F8221048F6BF73194081F0F7
:1033D000200114E00A7830F822305B0407D530F879
:1033E00022302B404CF280052B4320F822300A7803
:1033F00030F822104BF68F73194081F4405121436D
:1034000020F82210002030BD10B54A780978002A33
:1034100048F2800330F8212005D048F6BF742240DE
:1034200082F0100204E04BF68F74224082F4805246
:103430001A4320F82120002010BD00002DE9F0479C
:103440000E464B78097B04464FF0000948F68F7210
:1034500048F2800A4FF6FF774FF40048012B09D05D
:1034600000296ED0F07802286CD001286BD00120A2
:10347000BDE8F087B5693069854200D90546C9B114
:10348000F17848F28013022923D0317834F82100F2
:103490001040184324F82100306A401B3062307815
:1034A00034F82010490671787ED500297DD0012995
:1034B0007CD03FE1ABB2F2882046716900F000FB9E
:1034C000B4F850003178204400EB0110A0F8045407
:1034D000EAE0316A81426AD9317834F8210010403B
:1034E000184324F82100306A401B3062307834F8E9
:1034F0002010490671786CD511B1012924D02AE039
:10350000B4F85010214401EB001000F20C404DB112
:103510003E2D0FD86908EA0700D0491C07EA81212F
:10352000018018E0018821F4F8410180018841F40C
:103530000041F5E76909EA0600D1491E48EA812100
:10354000EEE79CE1BCE126E2B4F85020111901EB52
:103550000010A0F80C547289ABB22046716900F0DB
:10356000AFFA7069284470613169306A884202D9C3
:10357000401B306202E00546C6F8209070780028B3
:103580007CD1B4F850003178204400EB011000F2F7
:1035900004406DB13E2D13D86908EA0700D0491CDC
:1035A00007EA8121018012E001E19BE0BBE084E0B9
:1035B000018821F4F8410180018841F40041F1E7DC
:1035C0006909EA0600D1491E48EA8121EAE7328901
:1035D00065E011B1012921D027E0B4F85010214451
:1035E00001EB001000F204404DB13E2D0FD86908E8
:1035F000EA0700D0491C07EA8121018015E0018813
:1036000021F4F8410180018841F40041F5E769099E
:10361000EA0600D1491E48EA8121EEE7B4F85010CD
:10362000214401EB0010A0F804543289ABB22046CB
:10363000716900F045FA7069284470613169306A37
:10364000884202D9401B306202E00546C6F820904D
:10365000707800287ED1B4F850003178204400EB17
:10366000011000F20C4055B13E2D10D86908EA0750
:1036700000D0491C07EA812101800FE072E0018837
:1036800021F4F8410180018841F40041F4E769091F
:10369000EA0600D1491E48EA8121EDE77289ABB202
:1036A0002046716900F00CFA317834F8210048F6B0
:1036B000BF72104080F03000C0E1327834F8220050
:1036C00048F68F63184040EA0A0024F82200B4F854
:1036D00050003278204400EB02108BB2A0F8043482
:1036E0003289DDE7B4F85010214401EB001000F2FC
:1036F0000C404DB13E2D0FD86908EA0700D0491C97
:1037000007EA8121018015E0018821F4F841018058
:10371000018841F40041F5E76909EA0600D1491E34
:1037200048EA8121EEE7B4F85020111901EB0010AE
:10373000A0F80C547289ABB22046716900F0C0F950
:103740007069284470613169306A884203D9401B2E
:10375000306203E06EE00546C6F82090002DA3D04D
:10376000707858B101287FF41EAFB4F8500031785A
:10377000204400EB0110A0F8045428E7B4F85000EE
:103780003178204400EB011101F204413E2D06D8AE
:103790006808EA0700D0401C07EA802005E06809B5
:1037A000EA0600D1401E48EA802008800FE711B1E8
:1037B000012921D027E0B4F85010214401EB00107A
:1037C00000F204404DB13E2D0FD86908EA0700D041
:1037D000491C07EA8121018015E0018821F4F841A4
:1037E0000180018841F40041F5E76909EA0600D14A
:1037F000491E48EA8121EEE7B4F85010214401EB5C
:103800000010A0F804543289ABB22046716900F070
:1038100057F97069284470613169306A884202D969
:10382000401B306202E00546C6F82090002D96D07D
:10383000707858B101287FF420AFB4F850100819FF
:10384000317800EB0110A0F80C5427E7B4F85000D1
:103850003178204400EB011101F20C413E2D06D8D5
:103860006808EA0700D0401C07EA802005E06809E4
:10387000EA0600D1401E48EA802008800EE7B169C0
:103880003069814202D9091AB161B5E00846C6F82B
:103890001890B1E0088820F4F8400880088840F4C7
:1038A00000400BE03E2875D84208C00700D0521CEB
:1038B00007EA822002E000BF48EA82200880B5E0E3
:1038C00093B9B4F850003178204400EB011031690D
:1038D00000F2044069B13E2913D84B08C90700D053
:1038E0005B1C07EA83210180707888B1012832D0FF
:1038F0003AE0018821F4F8410180018841F4004157
:10390000F1E74B09C90600D15B1E48EA8321EAE7CB
:10391000B4F850003178204400EB0110316900F216
:103920000C4049B13E290FD84B08C90700D05B1C99
:1039300007EA8321018017E0018821F4F841018022
:10394000018841F40041F5E74B09C90600D15B1E2F
:1039500048EA8321EEE7B4F850100819317800EBFB
:103960000110318AA0F80C14F069A8B3317834F84A
:103970002100430401D5430603D444F24003184216
:1039800054D134F82100104048F2C002104324F80A
:1039900021004BE03CE0B1693069814202D9091A4B
:1039A000B16102E00846C6F818908BB9B4F850101F
:1039B0003278214401EB021101F2044168B13E2842
:1039C00013D84208C30700D0521C07EA82220A809B
:1039D000717889B1012921D028E00A8822F4F842BF
:1039E0000A800A8842F40042F1E74209C30600D186
:1039F000521E48EA8222EAE7B4F850103278214495
:103A000001EB021101F20C4100287FF44BAF41E7BA
:103A10004209C0067FF450AF521E4DE7B4F8502063
:103A20001119327801EB0211A1F80C04317834F845
:103A300021004BF68F72104080F4405040EA0A009B
:103A400024F82100002013E5074810B5806930B143
:103A50000648016821F006010160FEF77BFD04497C
:103A60004FF48020086010BD7005002010ED00E0CC
:103A7000140401400148FDF7C6BB0000700500209A
:103A8000B0F844007047000010B500EB42005C083D
:103A900000F5806009D000BF30F8042B01F8012B3D
:103AA000120A01F8012B641EF6D1DA0701D0008852
:103AB000087010BD11B98021A0F84C10002070478B
:103AC00010B55B1C00EB42005B0800F5806009D07C
:103AD00011F8012B11F8014B42EA042220F8042BC3
:103AE0005B1EF5D110BDFEE70907090E002804DBB7
:103AF00000F1E02080F80014704700F00F0000F1A2
:103B0000E02080F8141D704708B5FDF70DF8FEF7AA
:103B100021FDFEF737FAFEF7D1FAFEF7EFFAFEF7CE
:103B200017FB012000F05EF9002000F08FF8012063
:103B3000002100901F237F22084600F065F800F066
:103B40007DF9054C2068012802D0FEF72DFBF9E72E
:103B5000FEF7F4FDF6E700001C00002001490120FB
:103B600008707047200000202DE9FF4FD81D4FEA54
:103B7000D00900980026DDF834A01F46884680282A
:103B800027D2B8F1200F24D2002520E0002405FB25
:103B900009FB14E0600702D07006060E04E00299EB
:103BA00001EBD4011BF80160300606D500984146B0
:103BB0002044C0B20E9A00F00FF8641CE4B2BC427C
:103BC000E8D36D1C08F10100EDB200F0FF08554587
:103BD000DCD3BDE8FF8F000030B580280ED220294D
:103BE0000CD2012401F00705AC40064BC90800EBDC
:103BF000C110012A195C02D0A143195430BD2143E0
:103C0000FBE70000380000202DE9F8419846079CAA
:103C100017460E4605460B46009400F08BF83A46D0
:103C2000434631461046009400F084F843462A4645
:103C300019463846009400F07DF82A46334641463E
:103C40001046009400F076F8BDE8F88110B5064AF9
:103C500000214FF4007328B1FF245454491C9942A9
:103C6000F9D310BD0024F8E738000020014840795E
:103C7000704700000000002010B55020FCF758FCF1
:103C8000002000F0A1F8202000F0F4F8002000F05F
:103C9000F1F8B02000F0EEF8C82000F0EBF80020BA
:103CA00000F0E8F8102000F0E5F8402000F0E2F81D
:103CB000FF2000F07EF8A12000F0DCF8A62000F044
:103CC000D9F8A82000F0D6F81F2000F0D3F8A420DF
:103CD00000F0D0F8D32000F0CDF8002000F0CAF8B2
:103CE000D52000F0C7F8F02000F0C4F8D92000F08B
:103CF000C1F8222000F0BEF8DA2000F0BBF8022064
:103D000000F0B8F8DB2000F0B5F8202000F0B2F8A1
:103D10008D2000F0AFF8142000F0ACF8012000F086
:103D200053F803480021018041800121017110BD39
:103D3000000000202DE9FC4F07469A4690460E46AB
:103D4000D41B00D56442BAEB060000D54042814640
:103D50004FF0FF30474501D2012100E001460191BB
:103D60005146564500D201208346A4EB0905404642
:103D70000B9AFFF731FFC9F10000009013E03146C4
:103D800038460B9AFFF728FF00996800884204DD47
:103D90000199A5EB09053944CFB2A04203DA06EB3D
:103DA0000B002544C6B24745E9D15645E7D1BDE8E9
:103DB000FC8F10B50446812000F05CF82046BDE879
:103DC000104000F057B80000054900228A7118B170
:103DD00001204871AF2001E0AE204A7100F04AB8DE
:103DE0000000002010B5104C68B1012204212046CB
:103DF000FCF7DDFC012202212046FCF7D8FCBDE8DF
:103E00001040FFF739BF094A002120465171117156
:103E100091710A460421FCF7CAFC20460022BDE845
:103E200010400221FCF7C3BC00000240000000204B
:103E300001490120887170470000002070B50C4DC9
:103E4000002400BF04F1B000C0B200F013F800205D
:103E500000F010F8102000F00DF805EBC4108021E0
:103E600000F01AF8641CE4B2042CEBD370BD00001F
:103E70003800002001B584B001214FF0FF3204A8C2
:103E80008DE807000B46002278210248FCF75EFD12
:103E900005B000BD380200200EB54FF0FF3289B2E8
:103EA0008DE807000123402278210248FCF74EFDEF
:103EB0000EBD000038020020C18F87F8C19FC7FCEB
:103EC000C198060CC198060CC198060CC19F87F8D2
:103ED000C18FC7F8C180C60CC180C60CE380C60C78
:103EE0007F1FC7FC3E0F87F8000000000000007035
:103EF00000000020FFFFFFFC800000248000002461
:103F0000A4A4A4A4951515248E0E0E248E0E0E24A2
:103F100095151524A4A4A4A48000002480000024E6
:103F2000FFFFFFFC00000020000000700000000008
:103F3000C18007F8C18787FCC18C860CC198860CAC
:103F4000C180860CC18087F8C18107F8C182060C48
:103F5000C186060CE38C060C7F0FC7FC3E0007F8F9
:103F6000000000000000007000000020FFFFFFFCC8
:103F70008000002480000024A4A4A4A49515152486
:103F80008E0E0E248E0E0E2495151524A4A4A4A422
:103F90008000002480000024FFFFFFFC00000020C0
:103FA0000000007000000000C18007F8C18007FC1D
:103FB000C18F860CC198860CC180860CC18787F89A
:103FC000C18787F8C180860CC180860CE380860C8F
:103FD0007F0187FC3E3F07F80000000000000070F2
:103FE00000000020FFFFFFFC800000248000002470
:103FF000A4A4A4A4951515248E0E0E248E0E0E24B2
:1040000095151524A4A4A4A48000002480000024F5
:10401000FFFFFFFC00000020000000700000000017
:10402000030406080C1018203000000000000000F7
:104030000001020304060708090000000001020352
:104040000400000064400008000000203800000068
:10405000300100089C40000838000020880E000055
:104060004C010008000000000000000000000000FB
:104070000000000000000000000000000000000040
:10408000000000000000000010000000010000001F
:0C4090000000000068FF1F00000000009E
:04000005080000F5FA
:00000001FF
