:020000040800F2
:1000000050210020F1010008613C00083939000846
:100010005D3C000831100008396300080000000052
:10002000000000000000000000000000693C000823
:100030005912000800000000653C00086D3C0008F3
:100040000B0200080B0200080B0200080B0200085C
:100050000B0200080B0200080B0200080B0200084C
:100060000B0200080B0200080B0200080B0200083C
:100070000B0200080B0200080B0200080B0200082C
:100080000B0200080B0200080B0200080B0200081C
:10009000D55F00080B0200080B0200080B020008E5
:1000A000000000000B0200080B0200080B02000811
:1000B0000B0200080B0200080B0200080B020008EC
:1000C0000B0200080B0200080B0200080B020008DC
:1000D0000B0200080B0200080B0200080B020008CC
:1000E0000B0200080B0200080B020008193D000873
:1000F0004D3F000800F002F800F06BF80AA090E80D
:10010000000C82448344AAF10107DA4501D100F0D2
:1001100060F8AFF2090EBAE80F0013F0010F18BF34
:10012000FB1A43F001031847C4B10000E4B100001A
:100130000A444FF0000C10F8013B13F0070408BF0D
:1001400010F8014B1D1108BF10F8015B641E05D0AB
:1001500010F8016B641E01F8016BF9D113F0080F60
:100160001EBF10F8014BAD1C0C1B09D16D1E58BFF2
:1001700001F801CBFAD505E014F8016B01F8016B29
:100180006D1EF9D59142D6D370470000002300249C
:1001900000250026103A28BF78C1FBD8520728BF97
:1001A00030C148BF0B607047642900F04B81732950
:1001B00000F0F183002070471FB500F0E3FE04005B
:1001C0000020002108F008FF401C60601FBD10B532
:1001D00010BD00F0B2FE1146FFF7EEFF06F0D4FAB4
:1001E00000F0D4FE03B4FFF7F2FF03BC00F018FFE9
:1001F0000948804709480047FEE7FEE7FEE7FEE7BB
:10020000FEE7FEE7FEE7FEE7FEE7FEE704480549F6
:10021000054A064B70470000153D0008F500000830
:10022000501B002050210020501D0020501D002098
:1002300053EA020C00F069802DE9F04B4FF0000604
:10024000002B1FBFB3FA83F503FA05F424FA05F671
:100250005E4012BF1643B2FA82F502FA05F4C5F108
:1002600020051EBF22FA05FC44EA0C04203556EA9C
:10027000044C4FEA144418BF641C4FF000084FF0C0
:100280000009904271EB030C39D3002919BFB1FA70
:1002900081F701FA07F6B0FA80F700FA07F6C7F11E
:1002A00020071EBF20FA07FC46EA0C062037B6FBE3
:1002B000F4FCA7EB0507103F07F01F0BCBF120065E
:1002C0002CFA06F60CFA0BFB44BFB3460026202F8F
:1002D000A4BF5E464FF0000B5BEA060C08BF4FF070
:1002E000010B19EB0B0948EB0608ABFB027C06FB84
:1002F00002CC0BFB03CCC01B71EB0C01C1E70B461E
:10030000024641464846BDE8F08B13B5084318BF86
:100310004FF0FF300146AFF30080BDE81C4070474E
:100320000FB41CB5074B06AA7B446946009005989C
:1003300000F0FFFA0020694600F00EFB1CBC5DF8DF
:1003400014FB00002D0600000FB41CB50C0007AA1A
:10035000009007D04142A14202D32044401E01E058
:100360004FF0FF30074B7B4469460190069800F040
:10037000E0FA0020002C01D0009908701CBC5DF848
:1003800014FB0000F90500002DE9F0410E4604467B
:10039000002020622046E168884730B3252805D038
:1003A000D4E901219047206A401CF2E7E168204629
:1003B00000278847050018D0A5F14100192802D868
:1003C00020354FF400673246294620462760FFF764
:1003D000EBFE40B1012804D0F61D26F007060836D2
:1003E000D8E7361DD6E72846DAE7206ABDE8F0816F
:1003F00070B50C460546012A05D02878800600D540
:10040000EA69002302E0012305E05B1C934202D26B
:10041000E05C0028F9D1A869E618C01AA861286A2A
:10042000184428622846AFF3008004E0D5E9012192
:1004300014F8010B9047B442F8D32846AFF300807C
:1004400070BD00002DE9F0410646002410687529B2
:10045000314616A510D0AFF30080002802DA4042E2
:1004600013A507E031688A0701D512A502E0490704
:1004700004D511A5012401E0AFF3008000210A2278
:1004800006F1240709E0B0FBF2FCB0FBF2F302FB3B
:100490001C00303078541846491C0028F3D12346FC
:1004A0002A463046BDE8F04100F0E4B90000000003
:1004B0002D0000002B000000200000000FB400B54C
:1004C0008DB010A9099000910B904FF0FF300A9069
:1004D00000200C90064878440690064878446A4606
:1004E00007900F9909A800F06FFA0DB05DF814FBA2
:1004F0000F050000270500002DE9FF5F1D464FF0A6
:10050000FF3B91464FF000085F46D5E90146A969D7
:1005100001987F1C8847296A824688470028F6D1BF
:10052000BAF1FF3F0CD0002E24F4C06419DD600640
:1005300014D5BAF12B0F09D0BAF12D0F0ED103E06B
:10054000584604B0BDE8F09F44F48064A96901985E
:100550007F1C8847761E8246002E02DDBAF1300FDE
:1005600003D0B9F1000F26D032E0A969761E0198B8
:100570007F1C44F400748847002E824605DDBAF1E2
:10058000780F06D0BAF1580F03D0B9F1000F10D090
:100590001EE0B9F1000F02D0B9F1100F18D1A9690E
:1005A000761E01987F1C24F4007488478246102030
:1005B00002E0082000E00A20814609E0A96908FB62
:1005C0000908761E01987F1C44F40074884782460F
:1005D000002E05DD4946504600F0E1F90028EDDA2D
:1005E000E96901988847A00502D46FF00100A8E7E7
:1005F000E00725D1600613D5600502D5C8F10000DB
:1006000000E0404629680A1D2A600968220501D5D4
:10061000087015E0220701D5088011E008600FE09E
:100620002868011D29600068210502D580F8008036
:1006300006E0210702D5A0F8008001E0C0F80080A4
:1006400038467EE72DE9FF5F4FF0000899461446D3
:1006500046469169D2E901A7DDF838B0019888478C
:10066000054659EA0B0005D009E0A1690198761CFE
:1006700088470546216A284688470028F5D1681C26
:1006800003D05FEACA7005D015E04FF0FF3004B028
:10069000BDE8F09F2068011D2160D0F800800AE0CD
:1006A0005FEACA7001D108F8015BA169761C019864
:1006B0007F1E88470546002F1ADD681C18D0B9F147
:1006C000000F0DD0E81705EBD060421120F01F009D
:1006D00059F822102A1A012090400142E0D107E087
:1006E000BBF1000FDCD12846216A88470028D7D00B
:1006F000E16901988847BBF1000F07D1002E05DDA5
:100700005FEACA7002D1002188F80010A068B842E0
:1007100003DDBBF1000F03D017B16FF00100B6E7A6
:100720003046B4E770B5064600F0A0F80468054608
:1007300030460A22002100F077F92C6070BD10B518
:10074000431C02E010F8011B71B18107FAD14FF090
:10075000013202C88C1A8C4314EAC211F9D0C01AB3
:100760000A0603D0C01E10BDC01A10BD0A0401D075
:10077000801E10BD0902FCD0401E10BD032A40F2AD
:10078000308010F0030C00F0158011F8013BBCF133
:10079000020F624498BF11F801CB00F8013B38BF4B
:1007A00011F8013BA2F1040298BF00F801CB38BF59
:1007B00000F8013B11F0030300F06E81083AC0F02D
:1007C000088051F8043B083A51F804CBA0E808101F
:1007D000F5E7121D5CBF51F8043B40F8043BAFF352
:1007E0000080D20724BF11F8013B11F801CB48BFAC
:1007F00011F8012B24BF00F8013B00F801CB48BFE2
:1008000000F8012B704702F0FF0343EA032242EA9B
:10081000024200F002B84FF0000200B513469446C1
:100820009646203922BFA0E80C50A0E80C50B1F148
:100830002001BFF4F7AF090728BFA0E80C5048BF5C
:100840000CC05DF804EB890028BF40F8042B08BFFA
:10085000704748BF20F8022B11F0804F18BF00F8F6
:10086000012B704770477047704700000048704781
:10087000C80200202DE9F0470D46994692460446ED
:1008800000F124080168880604D5E06921F0100110
:10089000216000E00120A84201DD471B00E00027A5
:1008A000A1697A1902EB0900081AA0612078C00634
:1008B00002D42046AFF30080002608E0D4E90121ED
:1008C0001AF806009047206A401C761C20624E45AC
:1008D000F4DB2078C0060AD52046AFF3008006E09E
:1008E000D4E9012130209047206A401C2062381E44
:1008F000A7F10107F4DC07E0D4E9012118F80500AD
:100900009047206A401C2062281EA5F10105F3DCF7
:100910002046AFF300802078000602D50220BDE813
:10092000F0870120FBE7000001694A1C026108789A
:10093000704700B58FB0CDE901310021059105491F
:100940007944CDE9031011466846FFF71DFD0FB04D
:1009500000BD0000E5FFFFFF0A6802F8010B0A6016
:100960007047D1E900239A4202D2531C0B601070E9
:10097000704710B5436913B1AFF3008001E0FFF792
:1009800037FD012010BD127800F124010A70002209
:100990004A700122EDE711684FF0FF32E9E73A288B
:1009A00000D2303820F02002412A01D3A2F13700D2
:1009B000884201D34FF0FF307047000002681144B5
:1009C0001378016018467047D16005497944516138
:1009D00004497944116200211161114600F0A4B864
:1009E000EDFFFFFF3F010000426842B1016811F8CE
:1009F000013B23B1521EC0E9001218467047012185
:100A0000C160881E704742685AB1C368016843B923
:100A100083688B4205D0491E521CC0E90012002099
:100A200070474FF0FF3070472DE9F04791460F4671
:100A300080460446002614F8015B2DB100F062F8F0
:100A40000068405DC007F6D12B2D02D02D2D18D0A7
:100A5000641E4A463946204600F020FA27B139681C
:100A6000A14201D1C7F800804FF0020471050BD5F7
:100A70004042002803DDFFF7F9FE0460A007BDE84F
:100A8000F08746F48066E4E70028F8DAFFF7EEFE28
:100A900004606FF00040F2E710B5203AC0F00B8020
:100AA000B1E81850A0E81850B1E81850A0E8185064
:100AB000203ABFF4F5AF5FEA027C24BFB1E81850DA
:100AC000A0E8185044BF18C918C0BDE810405FEA3C
:100AD000827C24BF51F8043B40F8043B08BF7047B8
:100AE000D20728BF31F8023B48BF11F8012B28BFBD
:100AF00020F8023B48BF00F8012B704700487047C0
:100B0000C802002010B500F03DFA001D10BD00BF66
:100B1000C984000010B50446FFF7F4FF0068005DCB
:100B200000F0010010BD00002DE9F34F4FF0000A66
:100B30000C4656468DB001200C9001F10C000B9034
:100B400062690B9801219047051E2DD0252D2CD0D0
:100B5000216A8847C0B162690B9801219047216AD8
:100B600088470028F7D16269411E0B98904700E042
:100B7000761CA1690D988847216A88470028F7D11B
:100B8000E1690D988847DBE7A1690D988847A8427D
:100B9000074601D1761CD3E7E1690D9888477F1C91
:100BA00002D1BAF1000F6FD06BE162690B98002798
:100BB0003D46394690472A2804D162690B980121A5
:100BC00090470125DFF8D08262690B980121904798
:100BD000A0F130010A290AD24745E5DC07EB87017D
:100BE00000EB4107303FDFD445F01005ECE7E906A4
:100BF00001D46FF000476C280AD04C2814D0682824
:100C000015D06A280DD074281CD07A281AD01DE07F
:100C100062690B98012190476C2802D045F00405C9
:100C200014E045F002050DE045F020050AE0626998
:100C30000B9801219047682802D045F0080505E08F
:100C400045F4006562690B9801219047C4E901579A
:100C500065283DD019DC58287AD00CDC452837D0DF
:100C600004DC252826D041289ED131E046282FD00B
:100C7000472899D12CE05B2877D0612828D06328B9
:100C80007CD0642823D15AE0F6E06F2848D008DCF5
:100C900066281DD067281BD0692821D06E2816D160
:100CA00027E0702845D0732868D0752847D0782869
:100CB0000DD14DE0A1690D988847252805463FF4E0
:100CC00069AFE1690D9888476D1C3FF46AAFD8E0C1
:100CD0000D9923466A466FF00100AFF30080C5E02E
:100CE00045F0400023464FF000026060A80736D46C
:100CF0003EE0E8077FF447AF2068011D21600068EF
:100D0000290501D506701BE7290701D5068017E7DD
:100D1000A90703D5F117C0E9006111E706600FE7E5
:100D200045F0400023464FF008026060A80716D443
:100D30001EE040F60E0125EA0100606016E045F075
:100D4000400023464FF00A026060A80707D40FE076
:100D500045F040006060A80708D5234610220D9991
:100D60006FF00100AFF3008080E007E0102223461F
:100D70000D996FF00100FFF7BFFB77E04FF000091E
:100D800063284F46C8464B46CB4602D05B2806D068
:100D900038E0E80601D40120A060012732E0626952
:100DA000D4F80CB00B98012190475E2807D14FF082
:100DB000010949466269D4F80CB00B989047216943
:100DC00039B900210A4603AB43F82120491C082900
:100DD000FADBD8B3216949B308F1010862690B98BD
:100DE000012190475D28F4D1B9F1000F09D000200E
:100DF00003A951F82020D24341F82020401C0828A4
:100E0000F7DB03AB2069002820794FEA40701ED041
:100E10005B462246CDF80080CDE901970D99002868
:100E20006FF0010020DAAFF300801FE0C11703AAC2
:100E300000EBD1614B1121F01F0102EB8302411A3B
:100E400013680120884003431360C7E719E00D9938
:100E5000224600286FF00100009702DAAFF300800D
:100E600004E0FFF7EFFB01E0AFF3008000280ADAAF
:100E7000401C06D10C9820B14FF0FF300FB0BDE8F8
:100E8000F08F5046FAE7E90701D10AF1010A06445A
:100E900000200C9054E60000CCCCCC0C2DE9F05F87
:100EA000824615468B4600270AF10104B9460078B0
:100EB000302801D09DB113E014F8010B01277828E8
:100EC00003D0582801D045B10AE00DB1102D07D14B
:100ED000002714F8010B102502E0082500E00A2580
:100EE0000026B0460EE005FB080005FB06F10127D1
:100EF0001FFA80F801EB1046B6F5803F00D3B946E3
:100F000014F8010B2946FFF74AFD0028EBDABBF184
:100F1000000F05D00FB1641E00E05446CBF800402E
:100F2000B9F1000F06D0FFF7A1FC02210160C81E35
:100F3000BDE8F09F48EA0640FAE77546FFF7DEFD98
:100F4000AE4605006946534620F00700854618B0B6
:100F500020B5FFF75BF9BDE820404FF000064FF0E9
:100F600000074FF000084FF0000BAC46ACE8C0099A
:100F7000ACE8C009ACE8C009ACE8C00921F0070141
:100F80008D46704700487047E802002010B50446BF
:100F9000AFF300802046BDE81040FFF723B9000002
:100FA0004FF0013C50F8042B51F8043B9A4221D1F8
:100FB000A2EB0C03934313EACC1317D150F8042B84
:100FC00051F8043B9A4215D1A2EB0C03934313EA68
:100FD000CC130BD150F8042B51F8043B9A4209D1A1
:100FE000A2EB0C03934313EACC13DBD04FF00000C9
:100FF000704700BFD01A01BAB1FA81F101F01801AF
:1010000022FA01F0CB40DBB2C0B2C01AC1F120011C
:101010002CFA01F3D11A914311EAC311E6D17047BA
:1010200001491820ABBEFEE7260002007047000011
:10103000FEE70000002070470020704710B541F225
:101040005444C2F2000441F26001C2F200012046A1
:10105000002203F025F940F67841C2F20001204653
:1010600003F018F9002010BD2DE9F0419CB041F2C9
:1010700054440546C2F200040E462046294603F0B9
:1010800009F9204603F0E8F840F20000C2F200003F
:101090000078002840F0BD8040F23837C2F20007E7
:1010A000B86818B3022843D0012840F0B2803878DD
:1010B000042800F2A980DFE800F04503898F990039
:1010C00040F25434C2F2000420464FF48071FFF71E
:1010D000A2FB04F1400004F1800600903A1D58A1E3
:1010E000284623460196FFF7E9F989E02878722817
:1010F00008D0622822D0612840F08B800020387010
:1011000001201EE0D4F89002D0F81402002840F02C
:10111000808041F25448C2F2000844A140460422B3
:1011200003F0BEF8404603F027F9B8680228BBD1A7
:10113000387801281CD028B166E000BF0020387044
:101140000220B860D4F89002D0F8140200285DD1D3
:1011500041F25444C2F200044BF2E321C0F6000114
:101160002046052203F09CF8204603F005F94DE0E7
:101170002846FFF7D7FA40F25435C2F2000501467F
:101180007860284605F0DAF80DF10C0805F18006C4
:1011900005F1400327A140462A460096FFF7C0F814
:1011A0004046FFF7CCFAD4F89012D1F8141259BB8C
:1011B00041F25444C2F2000482B203A9204603F073
:1011C0006FF8204603F0D8F81EE000BF326840F206
:1011D0005430C2F2000005E040F254303268C2F2EE
:1011E000000040302946FFF7C9FA0FE040F25434BE
:1011F0003268C2F2000404F180002946FFF7BEFA0B
:101200007968204605F07AFA0020B8603878013015
:10121000387040F67840C2F200004FF47A71FFF760
:10122000FAFA00201CB0BDE8F08100BF4F4B210A44
:101230000000000025730A25730A25730A000000C8
:10124000256420255B5E0A5D20255B5E0A5D202506
:101250005B5E0A5D0000000070470000EFF3108045
:1012600072B600BFFEE7000070B543F618460446AC
:10127000C4F2020600F026FC3168C90720D13068AC
:10128000800744BF022030603068C0055CBF306812
:101290005FEA00500BD4306880045CBF30685FEABE
:1012A000405004D4306880055CBF002070BD3068B9
:1012B000C00521D40020316889052AD433E000BF5D
:1012C000C4B10546601C10D13068C007D7D0306863
:1012D000C0071CBF30685FEAC070D0D03068C0075C
:1012E000F2D1CCE73068C007C9D000F0EBFB401B5F
:1012F000A042F7D9032070BD41F62C30C2F20000A5
:10130000416941F0020141614FF480703168890503
:1013100009D541F62C31C2F200014A6900F500708E
:1013200042F001024A613168090509D43168890433
:1013300013D4316849051DD43060012070BD00BF51
:1013400041F62C31C2F200014A6900F5006042F01A
:1013500004024A6131688904EBD541F62C31C2F2AE
:1013600000014A6900F5005042F010024A613168FC
:101370004905E1D541F62C31C2F200014A6940F439
:10138000806042F008024A613060012070BD0000B8
:1013900010B581B00022009290F84820012A03D1B4
:1013A0000221084601B010BD4B680122062B80F8CF
:1013B000482015D8D0F800E003EB83035A1F1F2301
:1013C000DEF840C003FA02F40B682CEA040403FAC6
:1013D00002F22243CEF84020092B48D881E000BF1A
:1013E0000C2B15D8D0F800E003EB8303A3F1230402
:1013F0001F23DEF83CC003FA04F20B682CEA020259
:1014000003FA04F42243CEF83C20092B2FD868E0DD
:10141000122B15D8D0F800E003EB8303A3F14104AD
:101420001F23DEF838C003FA04F20B682CEA02022C
:1014300003FA04F42243CEF83820092B17D850E0E1
:10144000D0F800E0182B39D803EB8303A3F15F0435
:101450001F23DEF834C003FA04F20B682CEA020200
:1014600003FA04F42243CEF83420092B39D9132B84
:101470000ED803EB4304DEF810C01E3C0722896837
:10148000A2402CEA0202A1401143CEF8101035E030
:101490001A2B0FD803EB4304DEF80CC03C3C0722A8
:1014A0008968A2402CEA0202A1401143CEF80C1038
:1014B00024E000BF00BF0B6820E000BF03EB830304
:1014C000A3F17D041F23DEF830C003FA04F20B6899
:1014D0002CEA020203FA04F42243CEF83020092B4E
:1014E000C5D8DEF814C003EB430407228968A24084
:1014F0002CEA0202A1401143CEF8141023F001019E
:10150000102934D142F20471C4F201010A681202B6
:101510002DD40A68102B42F400020A6027D140F251
:10152000C001C2F2000109684DF68362C4F21B32A9
:10153000A1FB0212910C01EB81014900009100997D
:10154000A9B100BF009901390091009979B10099C2
:1015500001390091009951B1009901390091009928
:1015600029B100990139009100990029EAD100219F
:1015700080F84810084601B010BD0000F0B581B0F9
:10158000002868D00646044656F84C0F00284BD079
:101590003068C0065FD4E06C41F20211884302302B
:1015A00042F2047CE064C4F2010CDCF800106268D2
:1015B00021F44031E36860691143256ACCF80010DA
:1015C000184394F83C3094F824702843616B40EA47
:1015D0004320102940EA470002D0A36B0843184378
:1015E00021680B685B0649D4D4F808C02569D4E9A2
:1015F00006E3012D43EA0C0343F4807208BF13464F
:10160000B5F5807F94F82C5008BF1346012D40EAB1
:101610000E002BD117B3E26C42F02002E264226D7F
:1016200042F00102226521E00020206584F8480094
:1016300043F62000C4F20200016841F0010101609C
:10164000006800F0010000900098204600F056F875
:101650003068C0069FD5012001B0F0BD226B4EF668
:101660000007CFF6FF7707EB423213434A6841F297
:10167000FF67CFF6FC473A401A434A608A684FF248
:101680008D13CCF2FF031A4002438A602269B2F53F
:10169000807F01D0012A0BD10A6BA36A0027CFF605
:1016A000F07722F0F87207EB03531A4303E000BF10
:1016B0000A6B22F0F8720A6389684FF6FE72CBF665
:1016C00080721140814209D100202065E16C21F037
:1016D000030141F00101316001B0F0BDE06C40F068
:1016E000100020F00200E06454F8501F012026464C
:1016F00041F00101316001B0F0BD000080B586B05D
:1017000042F200410068C4F20101002288420592C1
:10171000049201D006B080BD43F61C00C4F2020062
:10172000436843F400734360436803F40073009319
:10173000009B036843F002030360006800F00200AE
:10174000009000984FF4804001900320CDE9020200
:1017500001F5604001A900F0BFF806B080BD0000AF
:10176000B0B5044600F0AEF9054640F23800C2F2CA
:1017700000004068611C18BF044400BF00F0A2F9DB
:10178000401BA042FAD3B0BD2DE9F04381B041F631
:101790002C39C2F2000999F81020012A04D102263E
:1017A000304601B0BDE8F0830546012089F81000FD
:1017B0004CF250308846FFF757FD0646A8BB4FF065
:1017C000FF30C8F80000D5E90140002604EB0020F6
:1017D00084422AD243F60447C4F20207C9F81460CF
:1017E000386840F400703860386840F008003860AD
:1017F00024F0FF0006604CF25030FFF735FD3968E9
:1018000021F008013960396821F40071396048B964
:10181000D5E9010104F5807400EB01208442DDD399
:10182000002602E0C8F800400646002089F81000B3
:10183000304601B0BDE8F08343F60441C4F2020132
:10184000086840F0020200200A60704770B541F657
:101850002C36C2F20006307C012804BF022070BD85
:10186000012030744CF2503014460D46FFF7FCFC5A
:1018700010B10021317470BD002070614CF2503005
:101880002C60FFF7F1FC0021317470BD43F6044079
:10189000C4F20200016889071AD50168C90740F23D
:1018A0000541C0F2032108D04CF6EF52C8F6AB1246
:1018B000826081600268D2070CD14AF6BF62C8F626
:1018C0009D4201F11131C260C1600068800701D4FE
:1018D00000207047012070472DE9F04F84B08E46FC
:1018E00041F20002C4F20202DEF8004005219042FB
:1018F000019008BF0421002C009100F0D9800198CC
:10190000002500F13E4202F1FF724FEAB223009837
:10191000012700264FF00008042B38BF184600901E
:10192000CDF808E00EE000BFDEF8004008F1010845
:1019300034FA07F106F1020607F1010705F1040583
:1019400000F0B680A7F1010A012000FA0AF314EAB8
:101950000309E9D0DEF804C00CF0030BABF101047D
:10196000012C17D80198744681680322E468B240BC
:101970009143B4402143816041684FEA480E994346
:10198000CCF3001303FA0AF30446D0431943616011
:101990000CE000BF0321B140019CC843BBF1030F21
:1019A000B64603D1B6464FF0030B23E0E168029A36
:1019B00001409368BBF1020F03FA0EF341EA030101
:1019C000E16017D16FF0030101EA5A01214405F0EB
:1019D0001C040F23D1F820C003FA04FB13692CEA7E
:1019E0000B0CA34043EA0C03019C0B62D2F804C029
:1019F0000CF0030B21680BFA0EF201401143216039
:101A0000DDF808E01CF4403F8ED043F62000C4F21D
:101A10000200016840F2004C41F0010101600168E0
:101A2000C4F2010C01F00101039103992AF00301B2
:101A30004FF6084A6144CFF6FF7A05F00C030F20F9
:101A400051F80A2000FA03F40098A24300FA03F3C5
:101A50001A4341F80A20DCF80010DEF8042041EABD
:101A60000903D40358BF21EA0903CCF80030DCF89D
:101A70000410940341EA090358BF21EA0903CCF892
:101A80000430DCF8081040F20C4041EA0903D402AB
:101A900058BF21EA0903CCF80830C4F201000168FC
:101AA000920241EA090358BF21EA090303603BE7B8
:101AB00004B0BDE8F08F0000002A08BF090481616E
:101AC0007047000041F64830C2F2000000687047DD
:101AD00040F2380041F64831C2F20000C2F2000183
:101AE00040680A68104408607047000080B5032011
:101AF00000F094F80F2000F009F800281CBF012026
:101B000080BD00F029F8002080BD000070B540F2D3
:101B10003806C2F200067168E1B1044640F2C00026
:101B2000C2F200004FF47A720068B2FBF1F1B0FB30
:101B3000F1F001F07BFC0F2C4FF0010508D838B90B
:101B40004FF0FF3021460022002500F03BF83460C2
:101B5000284670BD012070BD83B043F62400C4F256
:101B60000200016841F000410160016801F000419C
:101B70000291029950F8041C41F0010140F8041C44
:101B800050F8041C01F0010101910199016841F034
:101B900080510160006800F080500090009803B010
:101BA00070470000002848BF704700F01F01012265
:101BB00002FA01F14EF200124009CEF2000242F8A0
:101BC0002010704710B54EF60C5CCEF2000CDCF81D
:101BD0000030C3F3022E8EF00704042C28BF042427
:101BE000BEF103034FF0FF3E0EFA04F438BF0023AA
:101BF000A14399400EFA03F39A43114300F00F02F8
:101C0000043A624409010C3200F16043B0F1FF3F35
:101C1000C8BF03F56442117010BD00004EF60C51B0
:101C2000CEF200010A684FF6FF031A4060F30A2261
:101C300042F0806040F0FD700860704780B501F0B0
:101C4000070C0CEB8C0C00EBCC0C01EB810E0CF1B7
:101C5000280C00EBCE00090658BF00F5B47C00202C
:101C6000002A19BFCCF808300121ACF80630002159
:101C70008CF80C1080BD00000420C4F20100026842
:101C8000012922F0010208BF013202607047000002
:101C900001EB8102D0F8E83200EBC200C26B1846BB
:101CA00002F07EBE01EB8102D0F8E83200EBC20008
:101CB000D0F87C21184602F0D9BE000010B50446C9
:101CC000080601F0070000EB800104EBC10205D417
:101CD00002F5B471002382F8693104E0012302F1B6
:101CE000280182F8293094F8A8220870012A04BF3C
:101CF000022010BD2068012284F8A82203F0DEFB38
:101D0000002084F8A80210BDB0B50446406801F078
:101D10000F02824284BF0120B0BD080601F0070017
:101D200000EB800104EBC10206D402F5B47100237C
:101D300082F8693105E000BF012302F1280182F831
:101D4000293094F8A8220025012A8D70087004BF5C
:101D50000220B0BD2068012284F8A82203F03CFCD8
:101D6000284684F8A852B0BD01F0070101EB8101BB
:101D700000EBC100D0F8840170470000B0B5054603
:101D8000080601F0070000EB800105EBC10C05D44B
:101D90000CF5B47100248CF8694104E001240CF1C5
:101DA00028018CF829404C780870002C0A61CB700F
:101DB00018BFC881022B04BF0020087195F8A80243
:101DC000012804BF0220B0BD2868012285F8A8229E
:101DD00003F064FA002085F8A802B0BD10B501F048
:101DE000070C0CEB8C0100EBC10E00680EF5B47112
:101DF0000024CEF87C21CEF88031CEF884418EF8D4
:101E000069418EF868C103F03FFC002010BD00005E
:101E100010B54268044601F00700904284BF0120DB
:101E200010BD0A060AD401EB810104EBC10202F5E0
:101E3000B471002382F8693109E000BF00EB800132
:101E400004EBC102012302F1280182F8293094F841
:101E5000A8320122012B8A70087004BF022010BD35
:101E6000206884F8A82203F0F5FB002084F8A8027B
:101E700010BD000080B501F0070C0CEB8C0100EBED
:101E8000C10101F828CF00684FF0010C01F11407DF
:101E900081F824C04FF0000E87E80C400B6281F8F7
:101EA00001C003F0F1FB002080BD00002DE9F04FE0
:101EB00081B00446006804F093F8000402D420685E
:101EC00007E000BF2068B0F94410B1F1FF3F40F3D4
:101ED0009D8004F085F8400519D52068B0F84410BD
:101EE00021F48061A0F84410204600F085FC94F8AD
:101EF000A80201280BD00120002584F8A80284F84C
:101F000024502068002104F0BFF884F8A85220680B
:101F100004F066F801462068490405D5B0F844107D
:101F200021F48041A0F8441004F05AF801462068DA
:101F3000890405D5B0F8441021F40051A0F84410EC
:101F400004F04EF801462068C90411D404F048F8A2
:101F5000000527D4206804F043F880053DD42068AC
:101F600004F03EF8C00547D401B0BDE8F08F00BFD3
:101F7000B0F8401021F00401A0F84010B0F8401073
:101F800021F00801A0F84010204600F047FC20682E
:101F9000B0F8441021F48051A0F8441004F020F867
:101FA0000005D7D52068B0F8401041F00801A0F82E
:101FB0004010B0F8441021F40061A0F84410B0F8CB
:101FC000401041F00401A0F84010204600F088FCC9
:101FD000206804F005F88005C1D52068B0F84410E9
:101FE00021F40071A0F84410204600F025FC206880
:101FF00003F0F6FFC005B7D52068B0F8441021F40F
:102000008071A0F8441001B0BDE8F08F04F52C7188
:1020100040F60F7B009109E02046FFF739FE00BF34
:102020002068B0F9441000297FF553AFB0F8442080
:1020300012F00F094AD030F829804FEA490A5FEAC6
:10204000084140F16D8130F81A1040F60F7501EA31
:102050000B01803120F81A1009EB890104EBC10B48
:102060009BF874110BF5B476002900F0A1809BF861
:102070006B11022940F0B080B0F8502031785FEA4F
:10208000484302EBC10200EB420200F1DD80B2F8EE
:102090000C74DBF880216FF39F27D21B4FF00003F5
:1020A00038BF1A46CBF8802140F2E8805FEA4862E8
:1020B00000F1F48030F8212048F2C0032A401A438E
:1020C00020F82120002F40F0EA800DE10188D2069F
:1020D0002CD401EA0B0101F500410180B0F8501049
:1020E00094F8282001EBC20100EB4100B0F8040491
:1020F000E16B6FF39F2060640844E0632046002199
:10210000FFF7C6FD94F82400002889D0206C002831
:1021100086D194F82400216840F08000C0B2A1F874
:102120004C00002084F824007AE700BF0A056DD433
:1021300009047FF575AF018801EA0B018031018048
:10214000B0F8501094F8682101EBC20100EB410196
:10215000B1F80C346FF39F23C4F8843193B1D4F8F1
:102160007C1179B1B4F86E2103F03EFFD4F87C0104
:10217000D4F884110844C4F87C0120460021FFF7FC
:1021800091FD2068018809053FF54AAFB0F850106D
:10219000D4F8783100F20C42002B00F0CB813E2BBA
:1021A00000F2D48103F0010707EB53039B02DAE14D
:1021B000B0F85010327801EBC20100EB4101B1F8E8
:1021C0000C746FF39F27002F00F08E80DBF87C11DA
:1021D000BBF86E2184E000BF317848F2C00330F8CC
:1021E00021202A401A4320F8212030F82120B0F87D
:1021F0005030520403EBC10100EB410138D4B1F877
:102200000C746FF39F27002F49D16DE0B0F8501088
:1022100094F8682101EBC20100EB4101B1F80C34E4
:10222000B4F86E2100996FF39F23C4F8843103F052
:10223000DBFE2068018801EA0B0180310180204625
:1022400000F012FBECE600BFB2F80474DBF880216A
:102250006FF39F27D21B4FF0000338BF1A46CBF80D
:10226000802121D95FEA48622DD4AFBB3CE000BF9A
:10227000B1F804746FF39F2777BB35E030F8212065
:1022800043F60F731A404CF28003A3F500535A40F3
:1022900020F821205FEA48627FF50CAF27B3DBF816
:1022A0007C11BBF872211BE030F8212043F60F733C
:1022B0001A404CF28003A3F500535A4020F8212025
:1022C0005FEA4862D1D530F8212048F2C0032A40A5
:1022D0001A4320F821203FB1DBF87C11BBF87021B4
:1022E0003B4603F081FE00E00027DBF88411DBE9C8
:1022F0005F0239443844CBF88411CBF87C011AB121
:10230000DBF87801B84205D931782046FFF7CAFCDE
:1023100004E000BF2068314603F0B6F940F60F7BB9
:102320005FEA08607FF57CAE206809EB890130F830
:102330001A3004EBC10203EA0B0101F5004120F859
:102340001A1092F82B1002F12806002918BF032951
:102350001CD1B0F850303178176C03EBC10300EB9F
:102360004303B3F8043400256FF39F23FF1A38BFEB
:102370002F4617647FF650AED16B576C1944D1636A
:10238000F9185164314603F07FF949E6022902D178
:102390005FEAC851DDD5B0F8503031785FEA486760
:1023A00003EBC10344D400F20C4939F81370136CE9
:1023B0006FF39F27DB1B4FF0000538BF2B461364DC
:1023C00070D95FEA484308D430F821304CF28005D8
:1023D00003EA0B032B4320F82130154615F84C3F38
:1023E000012B40F07B81134653F8488F53E904ECEE
:1023F00053F804ACBC44BA44F04543F80CCC43F861
:1024000004AC80F0F180B8F1000F00F02B810027C0
:10241000C6461F602F7092F82930012B40F0EC80E7
:10242000B0F8503009EB011121F803E040E100BFA2
:1024300000F2044939F81370136C6FF39F27DB1B0C
:102440004FF0000538BF2B4613644FD95FEA48436D
:1024500008D530F821304CF2800503EA0B032B43FA
:1024600020F82130134613F84C5F012D40F03681DF
:10247000154655F848EF55E904AC55F8048CBC44B2
:10248000B844D64545F80CCC45F8048C80F0C6809D
:102490004FF00008BEF1000F83F8008040F0C180CB
:1024A000BE46C0E092F82920012A69D0002A74D1E2
:1024B000B0F8502000EB01131A44B2F8043423F4AE
:1024C000F843A2F80434B2F8043443F40043A2F809
:1024D0000434B0F8500009EB0112135A23F4F84306
:1024E0001352135A43F4004356E000BF92F82920D8
:1024F000012A59D0002A64D1B0F8502009EB011309
:102500009F5A27F4F8479F529F5A47F400479F521B
:10251000B0F8502000EB01101044B0F80C2422F465
:10252000F842A0F80C24B0F80C2442F40042A0F8C1
:102530000C2446E08B5A48F2000723F4F8438B52F0
:102540008B5ACFF6FF773B430DE000BF5F09DE06F5
:102550004FF0FF3608BF06EB531748F20003CFF6E3
:10256000FF7343EA87238B52018843F60F721140B1
:102570004CF28002A2F580525140018050E500BF2C
:10258000B0F8502000EB01131A440023A2F80434E1
:10259000B0F8500009EB011213522046FFF778FB08
:1025A0005FEA484014D599E0B0F8502009EB0113D8
:1025B00000279F52B0F8502000EB01101044A0F803
:1025C0000C742046FFF764FB5FEA484040F18680C8
:1025D000206831784CF2800330F8212002EA0B02A7
:1025E0001A4320F8212079E0A8EB0E051D6092F82F
:1025F0002930012B3FF414AF002B59D1B0F85070A3
:10260000BEF1000F09EB011134D0BEF13E0F41D8ED
:102610000EF0010303EB5E039B0248E0AEEB0A08F9
:10262000D646C5F8008092F82930012B12D0002B35
:102630004ED1B0F85050BEF1000F09EB011121D07E
:10264000BEF13E0F36D80EF0010303EB5E039B0292
:102650003DE000BFB0F8503009EB011121F803E074
:1026600036E000BF00232B70BE4692F82930012BC4
:10267000C2D1D5E67B5A23F4F8437B527B5A43F40C
:10268000004314E06B5A23F4F8436B526B5A43F443
:1026900000431CE05FEACE654FEA5E134FF0FF3562
:1026A00008BF05EB5E134FF4004545EA83237B52D8
:1026B000528E0EE05FEACE674FEA5E134FF0FF37AF
:1026C00008BF07EB5E134FF4004747EA83236B52C2
:1026D000128E1FFA8EF3614603F0DEFC206831781B
:1026E00040F63F7330F821201A4048F2C003103BF7
:1026F0005A4020F8212093E4002804BF01207047AD
:10270000F0B585B0054690F8A90228B9002085F8F3
:10271000A802284600F04CF8032085F8A902286892
:1027200002F050FF696869B300204FF0010C0022ED
:10273000002300BF02EB820205EBC20484F82830BC
:10274000DAB20133E286DAB2914284F829C084F821
:102750002B00C4E90E002064ECD8002000230022E6
:1027600003EB830305EBC30484F868210132D3B281
:10277000994284F8690184F86B01C4E95E00C4F8E9
:102780008001EDD805F1080E28689EE81C50D5E9B7
:1027900007678DE81050CDE9036702F005FF0020C0
:1027A000012185F8240085F8A91205B0F0BD0000CC
:1027B00080B582B0006845F60041C4F2000188424D
:1027C0001CBF02B080BD43F62400C4F202000168C1
:1027D000002241F4000101600068002100F40000C3
:1027E000019001981420FFF7EDF9142002B0BDE824
:1027F0008040FFF7D7B9000010B504468068022872
:1028000018BFFEF72BFDD4F8E802012102F032FADE
:10281000D4F8E802BDE8104002F0ECB910B5044667
:1028200041F6E820C2F2000000F056FFD4F8E802BA
:10283000BDE8104002F008BAD0F8E80202F00CBA85
:1028400010B5044690F8A802012804BF022010BD6C
:10285000012084F8A80284F82410206803F014FCF6
:10286000002084F8A80210BDD0F8E82200F52C71F1
:10287000104602F015BA000010B5044690F8A80200
:10288000012804BF022010BD2068012184F8A8128D
:1028900003F096FB20460121FFF7EEF9206802F0D5
:1028A0007FFE002084F8A80210BD0000B0B50446E9
:1028B00090F8A802012804BF0220B0BD20680121C1
:1028C00084F8A81202F07EFE204600210025FFF7C2
:1028D000D3F9206802F066FE284684F8A852B0BDFD
:1028E00010B5D0F8E80202F043FA41F6E824C2F24B
:1028F0000004204600F0A2FE20680121416210BDC4
:1029000047F2000CC4F2000CDCF800304EF6105216
:1029100023F003031843CEF20002CCF80000106845
:10292000012940F0040010600FBF30BF40BF20BF3E
:1029300020BF106820F00400106070472DE9F041BE
:1029400082B004460078C00762D043F62406C4F281
:102950000206306810F0805808D1306840F080508E
:102960003060306800F080500190019847F2000715
:10297000C4F200073868C00512D4386840F480708B
:102980003860FFF79FF805463868C00508D4FFF7A0
:1029900099F8401B6428F7D9032002B0BDE8F08104
:1029A00056F8240C6168484010F0C04F01F44030E4
:1029B00006D0B0F5403F03D156F8241C89032BD430
:1029C000316911F4403105D081421CBF20785FEAA3
:1029D000C07025D12078C0070FD0616801F4403065
:1029E000B0F5403F06D156F8242C490F61F35E72D2
:1029F00046F8242C316908433061B8F1000F07D143
:102A0000306820F080503060002002B0BDE8F081D6
:102A1000002002B0BDE8F081012002B0BDE8F081E5
:102A2000306940F2DC62C4F24722012320F44031D5
:102A300013600023C00513603161CBD5FFF742F866
:102A4000054641F2883700BF30698005C2D4FFF7E0
:102A500039F8401BB8424FF00300F5D9D5E7000024
:102A60002DE9F041002800F0A18043F60807C4F2E8
:102A700002070446D7F8F8030D4600F0010088422B
:102A800015D2012D05D1D7F8F80340F00400C7F89E
:102A9000F803D7F8F80320F001002843C7F8F8033B
:102AA000D7F8F80300F00100A84240F07F802068CA
:102AB000810705D53968A26821F0F001114339601A
:102AC000C00737D1D7F8F80300F00100A84209D9B0
:102AD000D7F8F80320F00100C7F8F803D7F8F80397
:102AE000C00763D12068410705D53968E26821F441
:102AF000E06111433960000706D53868216920F488
:102B0000605040EAC10038603968C1F3810242F286
:102B10000040C0F2F400DFE802F003A41D2300BF70
:102B200057F8040C4FF48031C0F3423001FA00F042
:102B300097E000BF6068012824D003282AD002282B
:102B400030D157F8081C89035CBF0120BDE8F08133
:102B500030E000BF43F20060C0F26E1081E000BFC1
:102B60004BF2BC03C1F38342C0F600039B5C3A689E
:102B7000C1F38151D20301F1010269D45843B0FB82
:102B8000F2F06EE057F8081C89075CBF0120BDE831
:102B9000F0810FE057F8081C89015CBF0120BDE8F7
:102BA000F08107E057F8081C890503D40120BDE82F
:102BB000F08100BF396821F0030108433860FEF757
:102BC00081FF61680646032941F288382BD002292B
:102BD00037D0012910D100BF386800F00C0004285C
:102BE0003FF470AFFEF76EFF801B40454FF00300CF
:102BF000F2D9BDE8F08100BF386810F00C0F3FF447
:102C000061AFFEF75FFF801B40454FF0030088BFB8
:102C1000BDE8F081F0E700BFFEF754FF801B4045A0
:102C20004FF00300E5D8386800F00C000C28F3D111
:102C300048E700BFFEF746FF801B40454FF003000A
:102C4000D7D8386800F00C000828F3D13AE700BF65
:102C500043F20060C0F26E10A3FB00010023FDF7F9
:102C6000E7FA396849F20402C1F30311C0F6000221
:102C7000515C40F2C00220FA01F140F23800C2F289
:102C800000000068C2F200021160BDE8F041FEF7EA
:102C90003DBF00002DE9F04383B0002800F0AE8274
:102CA00043F600060446C4F20206B068B168227812
:102CB00000F00C09D00701F4803710D0B9F1080FEB
:102CC00006D0B9F10C0F40F0E580002F00F0E28053
:102CD0003068800303D56068002800F08F82207878
:102CE00080072FD5B9F1040F1ED0B9F10C0F08BF22
:102CF000002F19D0E068002800F04C810020C4F2B9
:102D0000472001210160FEF7DDFE0546306880079F
:102D100011D4FEF7D7FE401B02284FF00300F5D96F
:102D200003B0BDE8F08300BF3068800703D5E068DA
:102D3000012840F063827068216920F4F85040EA6D
:102D4000012070602078C00626D4207800073DD48A
:102D50002078400750D4656ACDB1B9F10C0F40F02E
:102D6000D580012D00F04A82B068A16A00F480325B
:102D70008A4240F04382E16A00F470128A4240F0D5
:102D80003D82216B00F44000884240F037820020F1
:102D900003B0BDE8F08300BFB9F1000F66D0A069B1
:102DA000002800F09F800020C4F24720012101622A
:102DB000FEF788FE054600BF3068800500F1C88038
:102DC000FEF780FE401B0228F6D927E16069002843
:102DD00072D00020C4F247200121C0F88016FEF70F
:102DE00071FE0546706B8007B2D4FEF76BFE401B88
:102DF0000228F7D912E100BF706A10F0805808D19C
:102E0000706A40F080507062706A00F080500090EC
:102E1000009847F20007C4F200073868C00513D4D1
:102E2000386840F480703860FEF74CFE054600BFFD
:102E30003868C00508D4FEF745FE401B64284FF0F3
:102E40000300F5D96CE700BFA068002800F0B68049
:102E5000052800F0CD80012800F0CE80706B20F4B2
:102E600080707063706B20F48060C8E0306880050B
:102E700003D5A069002800F0C181206A716801F4BF
:102E80006041884272D9B16811F0F00F00F00481FE
:102E900000215BE16068002800F0CE80052800F08A
:102EA000E380012800F0E480306820F48030306056
:102EB000306820F48020DEE00020C4F247200021AA
:102EC000C0F88016FEF7FEFD054600BF706B800758
:102ED0007FF53EAFFEF7F6FD401B02284FF00300E2
:102EE000F4D91DE70020C4F2472000210162FEF75B
:102EF000E9FD0546306880057FF527AFFEF7E2FD66
:102F0000401B02284FF00300F4D909E70027C4F260
:102F1000472700203866FEF7D5FD022D05460BD168
:102F20003068800140F1CE80FEF7CCFD401B0228C6
:102F30004FF00300F4D9F3E6306880017FF527AF46
:102F4000FEF7C0FD401B02284FF00300F4D9E7E66E
:102F50007068D4E9072120F460400843706070680D
:102F600020F07F4040EA02607060EEE6716821F474
:102F70006041014371607168E26921F07F4141EA7B
:102F800002617160B16811F0F00F00F0B7800021AC
:102F900008E100BF0020C4F2472000210160FEF7D5
:102FA00091FD0546306880077FF5CCAEFEF78AFDBF
:102FB000401B02284FF00300F4D9B1E6706B20F4F7
:102FC00080707063706B20F480607063FEF77AFD30
:102FD000054641F2883700BF706B800522D5FEF7A9
:102FE00071FD401BB8424FF00300F5D998E600BFD1
:102FF000706B40F480607063706B40F4807070633D
:10300000FEF760FD054641F2883700BF706B800512
:1030100008D4FEF757FD401BB842F7D9032003B090
:10302000BDE8F083B8F1000F7FF495AE706A20F030
:10303000805070628FE600BF306820F480303060CE
:10304000306820F480203060FEF73CFD054600BF6C
:10305000306880037FF543AEFEF734FD401B6428E3
:103060004FF00300F4D95BE6306840F48020306014
:10307000306840F480303060FEF724FD054600BF24
:10308000306880033FF52BAEFEF71CFD401B642823
:103090004FF00300F4D943E6716AC90047F200011A
:1030A000C4F2000140D4726A42F080527262726AC5
:1030B00002F080520192019A0A68716A21F08051EF
:1030C000716232E0B06804F128030ECB20F47D0079
:1030D000084310431843B06001203866FEF7F2FC45
:1030E000044600BF306880013FF551AEFEF7EAFCB0
:1030F000001B02284FF00300F4D911E6716AC900E1
:1031000047F20001C4F200013AD4726A42F08052E0
:103110007262726A02F080520292029A0A68716ABE
:1031200021F0805171622CE00A68B0F5404F4FF0F9
:1031300000010BD102F4C052B2F5C05F06D1D6F83F
:10314000001441F00401C6F800140121D6F800244F
:1031500022F001020A44C6F80024D6F8002402F046
:1031600001028A424AD1716821F4604101437160D1
:103170007168E26921F07F4141EA026171601EE0FD
:103180000A68B0F5404F4FF000010BD102F4C05275
:10319000B2F5C05F06D1D6F8001441F00401C6F8BC
:1031A00000140121D6F8002422F001020A44C6F8D6
:1031B0000024D6F8002402F001028A421ED1B16830
:1031C00049F20402C1F30311C0F60002400B515C46
:1031D0004FF4803202FA00F020FA01F140F2380098
:1031E000C2F2000040F2C0020068C2F200021160A8
:1031F000FEF78CFC00287FF493ADA6E5012003B018
:10320000BDE8F083002804BF01207047B0B5044634
:10321000407F20B900202077204600F067F8022088
:1032200060772168CA20486253204862C868400617
:1032300012D44FF0FF30C860FEF744FC054600BFD3
:103240002168C868400607D4FEF73CFC401BB0F577
:103250007A7FF5D942E000BF88684FF6BF72CFF69B
:103260008F7210408860D4E9010CD4E9033562699B
:1032700028438D681043284388600B61086940EA41
:103280000C400861C86820F08000C860886880062B
:103290005CBF88685FEA80600ED5086C20F48020EF
:1032A0000864A0690A6C1043086400200122FF230F
:1032B0004B626277B0BD00BFC86820F0A000C86054
:1032C000FEF700FC054600BF2168C8688006E4D40C
:1032D000FEF7F8FB401BB0F57A7FF5D92168012095
:1032E0000422FF234B626277B0BD0000006842F603
:1032F0000001C4F20001884218BF704740F2D86054
:10330000C4F2472001210160704700004EF2100016
:10331000CEF20000016841F0020101607047000038
:1033200070B538B10446406A30B10020206104F124
:10333000140007E0012070BD6068B0F5827F03D003
:1033400004F11C00002101600026A66294F85100DF
:1033500020B9204684F8506000F034F8022084F848
:10336000510094E8071001F48271036802F40442EA
:1033700023F040030360236911440CF400621144FC
:1033800003F002026369114403F00102A369E569D5
:10339000114403F40072114405F03802256A114407
:1033A00005F08002A56A114305F400521143016043
:1033B000042101EA134141600120666584F851004F
:1033C000304670BD80B586B0016843F20000C4F29B
:1033D0000100814202D006B080BD00BF43F61C014F
:1033E000C4F202014A6800F5544042F480524A6037
:1033F0004A6802F480520192019A0A6842F002027D
:103400000A60096801F002010191019938210191D6
:1034100002210291002103910321049105210591CC
:1034200001A9FEF759FA06B080BD0000411E002038
:10343000B0EB116F1CBF012070474EF21002CEF2AC
:10344000000251604EF62351CEF20001F0230B70C2
:1034500007219060116070474EF21000CEF200001C
:10346000016821F0020101607047000010B590F87A
:103470003820012A4FF0020233D080F83920026848
:10348000D2F804E0D2F808C00C682EF07003234391
:1034900040F2FF74C4F20004A24253600ADCB2F1AD
:1034A000804F13D040F20043C4F200039A420DD083
:1034B00011E000BF40F60003C4F201039A4205D0B8
:1034C00040F60003C4F200039A4204D149682CF08C
:1034D0008003194391600121002280F8391080F89F
:1034E0003820104610BD0000002804BF012070479E
:1034F00010B5044690F8390028B9002084F8380047
:10350000204600F061F8022084F839002068016844
:10351000B0F1804F0BD040F60002C4F2000290429E
:1035200005D040F20042C4F20002904203D1A268EA
:1035300021F07001114340F2FF72C4F20102904287
:1035400010DCB0F1804F1FD040F20042C4F2000204
:10355000904219D040F60002C4F20002904213D00B
:1035600016E000BF40F60002C4F2010290420BD008
:1035700041F20002C4F20102904205D040F600423E
:10358000C4F20102904203D1226921F44071114337
:10359000636921F08001D4F804C0E2681943016036
:1035A0000121C262C0F828C04161002084F83E10A9
:1035B00084F83A1084F83B1084F83C1084F83D10ED
:1035C00084F8391010BD000010B582B0006841F2D7
:1035D0000041C4F20001884214D041F20001C4F25B
:1035E0000001884228D143F62400C4F20200016899
:1035F0002B2441F010010160006800F010000190E0
:1036000001980DE043F62400C4F2020001682C2466
:1036100041F020010160006800F020000090009857
:10362000204600210022FEF7CDFA204602B0BDE878
:103630001040FEF7B7BA00BF02B010BD90F83910C5
:1036400001291CBF01207047022180F83910006851
:1036500040F2FF72C168C4F20002904241F00101E1
:10366000C16009DCB0F1804F12D040F20041C4F2D9
:10367000000188420CD012E040F60001C4F20101C2
:10368000884205D040F60001C4F20001884206D10C
:10369000816801F00701062904BF00207047016816
:1036A00041F0010101600020704700000146006800
:1036B00041F21113026A1A4204D00122002081F85B
:1036C00039207047026822F00102026001220020C6
:1036D00081F83920704700000146006841F211135B
:1036E000C26822F00102C260026A1A4204D00122BA
:1036F000002081F839207047026822F00102026040
:103700000122002081F83920704700007047000036
:1037100010B5016804460869800744BFC8685FEABD
:1037200080702BD40869400744BFC8685FEA4070C6
:1037300030D40869000744BFC8685FEA007037D416
:103740000869C00644BFC8685FEAC0603CD4086925
:10375000C0071CBFC8685FEAC07043D10869400653
:1037600046BFC8685FEA406010BD6FF04002204667
:103770000A61BDE8104000F0DDB800BF6FF0020044
:103780000861012020768869800733D02046FFF742
:10379000BDFF35E06FF004000861022020768869E3
:1037A00010F4407F30D02046FFF7B0FF32E000BF7A
:1037B0006FF00800086104202076C86980072DD0CA
:1037C0002046FFF7A3FF2FE06FF0100008610820EC
:1037D0002076C86910F4407F2AD02046FFF796FF74
:1037E0002CE000BF6FF001000861204600F0A0F857
:1037F0002168B3E7204600F025F8204600F096F84F
:103800002168002020768DE7204600F01BF8204636
:1038100000F08CF82168002020768AE7204600F02E
:1038200011F8204600F082F821680020207687E712
:10383000204600F007F8204600F078F821680020C4
:10384000207684E770470000002804BF01207047FD
:1038500070B5044690F839000E4628B9002084F867
:103860003800204600F060F8022084F83900206813
:103870000168B0F1804F0BD040F60002C4F20002A4
:10388000904205D040F20042C4F20002904203D1BF
:10389000A26821F07001114340F2FF72C4F20102EC
:1038A00090420FDCB0F1804F1ED040F20042C4F2D3
:1038B0000002904218D040F60002C4F2000290428A
:1038C00012D015E040F60002C4F2010290420BD083
:1038D00041F20002C4F20102904205D040F60042DB
:1038E000C4F20102904203D1226921F440711143D4
:1038F000636921F080016268E56819430160012174
:10390000C56282624161026822F0080202600268B8
:1039100032430260002084F83E1084F83A1084F8A4
:103920003B1084F8391070BD7047000070470000EC
:103930007047000070470000FEE7000070B584B0DB
:1039400041F2F06442F20040C2F20004C4F201000D
:103950002060201D2121FCF75EFF0026102001259C
:10396000C4E90D062046A56284F82C6084F83C600A
:10397000FDF704FE002818BFFDF770FC142001A914
:1039800061C141F2F060C2F2000001A9FDF700FD43
:10399000002818BFFDF762FC04B070BD2DE9F04FA0
:1039A00087B0002743F61C00CDE90577C4F202007A
:1039B000016840F2000B41F0040101600168C4F2AB
:1039C000020B01F004010191019901680BF580657A
:1039D00041F0200101600168002201F02001019105
:1039E000019901684BF2803941F0010101600168E1
:1039F00001F0010101910199016841F002010160AA
:103A000000684BF2803100F00200019001982846D6
:103A1000FEF752F858464FF4807100224FF4807838
:103A2000FEF74AF84FF4005002AE02904FF0030A3E
:103A30000BF500603146CDE903A7FDF74DFF40F2DD
:103A40001940CDE9020A584631460497FDF744FF74
:103A500048F2E620CDE90207012458463146049495
:103A6000FDF73AFF40F24340CDE9020728463146D0
:103A70000494FDF731FF40F60400CDE9020A284620
:103A800031460497FDF728FF28463146CDE90294D8
:103A9000CDE90477FDF720FF58463146CDE9028491
:103AA000CDE90477FDF718FF07B0BDE8F08F0000FF
:103AB00080B541F6302042F60001C2F20000C4F2A7
:103AC000000100227F234FF0FF0C80E80E10C0E9B8
:103AD00004228261FFF796FB002808BF80BDBDE885
:103AE0008040FDF7BBBB000080B541F6502043F29B
:103AF0000001C2F20000C4F201014FF482720023FF
:103B00004FF4007C80E80E000A21C0E90333C0E9CD
:103B1000053CC361C0E90833C0E90A31FFF700FC86
:103B2000002808BF80BDBDE88040FDF797BB0000BE
:103B300080B582B041F6A82041F200020021C2F215
:103B40000000C4F20002172342F20F7CCDE90011FD
:103B5000C0E90023C0E9021C4161FFF7C5FC002851
:103B600018BFFDF77BFB41F6A820C2F200006946B2
:103B7000FFF77CFC002818BFFDF770FB02B080BD8A
:103B800080B582B041F6E82041F200420021C2F245
:103B90000000C4F2000242F210734FF4FA5CCDE967
:103BA0000011C0E90023C0E9021C4161FFF79CFC41
:103BB000002818BFFDF752FB41F6E820C2F20000D2
:103BC0000821FFF741FE002818BFFDF747FB41F62B
:103BD000E820C2F200006946FFF748FC002818BF41
:103BE000FDF73CFB02B080BD80B541F2544040F28D
:103BF0008C01C2F20000C2F20001002200F094FE2B
:103C0000002818BFFDF72AFB41F2544040F2C401DE
:103C1000C2F20000C2F2000101F0D2F8002818BF81
:103C2000FDF71CFB41F2544040F29821C2F2000023
:103C3000C2F2000100F026FB002818BFFDF70EFBC2
:103C400041F25440C2F2000001F0D0F8002808BF51
:103C500080BDBDE88040FDF701BB0000FEE700002D
:103C6000FEE700007047000070470000FDF730BF1E
:103C7000B0B594B0002447F200000F94CDE90D4494
:103C8000CDE90B44CDE90944CDE90044C4F200007C
:103C90000168012262F3CC2101600B20CDE907020B
:103CA0001020CDE90B024FF4803011904FF48020AA
:103CB00012904FF400000225139007A80A92109565
:103CC000FEF7E8FF20B1EFF3108072B6FEE700BF09
:103CD0000F20CDE9020502A80121CDE90444069494
:103CE0000124FEF7BDFE28B1EFF3108072B600BFCD
:103CF000FEE700BF4FF40030019068460094FEF7E5
:103D00001DFE28B1EFF3108072B600BFFEE700BFC2
:103D100014B0B0BD704700002DE9F04F83B041F6FC
:103D2000A820C2F20000FFF7C1FC1020C4F202007C
:103D3000016801F400730168D0F80054D0F800B0B5
:103D4000D0F800A0026801F400480092026841F631
:103D5000443101920068C2F20001029040F2180062
:103D6000C2F20000078AB0F800E0DF1BB7FA87F75D
:103D7000BEEB03024FEA571718BF012252EA0706AB
:103D800006D0D1F800C089460022002406E000BF1A
:103D9000012484EA5322894694460A6005F04007CC
:103DA0004588A0F810E04545038014D1438A984522
:103DB00011D0022383EA9833B8F1000F41466FEA2D
:103DC000060642EA030C4FF0010418BF01210E421F
:103DD00008BFC9F800C083880BF00406BB424582C7
:103DE000A0F8028010D1818A8F420DD0042181EA8F
:103DF0001711002C18BF41EA0C018C464FF001044A
:103E000014BF002FC9F800C0C1880AF08005B14274
:103E10008382878010D1C28A96420DD0082282EA1E
:103E20004602002C18BF42EA0C0294464FF00104EF
:103E300014BF002EC9F800C0009A078902F04003A1
:103E4000AF42C182C68010D1018B8D420DD01021AE
:103E500081EAD501002C18BF41EA0C018C464FF0D5
:103E6000010414BF002DC9F800C00199468901F072
:103E700002019E420783058110D1428B93420DD0EF
:103E8000202282EA5302002C18BF42EA0C02944618
:103E90004FF0010414BF002BC9F800C0029A8589B5
:103EA00002F020078D424683438110D1828B9142DC
:103EB0000DD0402282EA4112002C18BF42EA0C02C7
:103EC00094464FF0010414BF0029C9F800C0C2890C
:103ED0008583BA42818115D1C18B8F4212D0002CCB
:103EE00018BF002F08D1802181EA8701002C18BF5C
:103EF00041EA0C01C9F80010C283C78103F020F920
:103F000006E000BF002CC283C78118BF03F018F978
:103F100003F044FC002808BF04F076FD41F6E824D5
:103F2000C2F200042046FFF789FB206841F6A8246E
:103F30000121C2F2000441622046FFF77FFB2046C8
:103F400003B0BDE8F04FFFF7E3BB000010B541F64A
:103F5000E824C2F200042046FFF7A8FB2046BDE893
:103F60001040FFF7D5BB0000B0B540F20004C2F22C
:103F700000046078002808BFB0BD207800213028F8
:103F8000617021D8DFE800F0341A1A462E2E2E2E4A
:103F90002E2E2E2E2E2E2E2E2E2E2E2E2E2E2E2E41
:103FA0002E2E2E2E2E2E2E2E2E2E2E2E2E2E2E2E31
:103FB0002E2E2E2E2E2E2E2E5A0000BF02F0A6FEE2
:103FC000BDE8B04004F028BDFB3803280AD8DFE87C
:103FD00000F0033B414700BF03F01CF8BDE8B040D0
:103FE00004F01ABD02F0F4FCBDE8B04004F014BDCA
:103FF00040F24430C2F200000178B9B38178002267
:104000000229027032D14FF4FF702080BDE8B04029
:1040100004F002BD41F64435C2F20005286828B11B
:104020000120FDF79DFB28680028F9D103F078F8FE
:10403000FF202070BDE8B04004F0EEBC02F08CFC24
:10404000BDE8B04004F0E8BC02F014FFBDE8B040A9
:1040500004F0E2BC02F082FFBDE8B04004F0DCBC3A
:1040600002F04AFDBDE8B04004F0D6BC022002F0E8
:104070005DF9002003F084FB0420042104F0AAFB76
:1040800040F2A800C2F20000D0E900124BF2DA20A0
:10409000C0F60000012304F009FFBDE8B04004F0C1
:1040A000BBBC000010B5D0F89022CAB101EB81036F
:1040B00000EB830E5EF81C4F64B1D0F898C201EBA0
:1040C00081030CEBC303D3F838C0B4FBFCF303FB50
:1040D0001C433BB100242046C2F8144210BD00BF6F
:1040E000022010BD002400220023CEF8004000F082
:1040F00049FE204610BD0000B0B5D0F890520446ED
:1041000000F0FAFCD4F89012C5F80C0251B1D4F8C2
:10411000940205F50371C268D5F8040290470020A7
:10412000B0BD00BF0220B0BDB0B58121044600F093
:1041300025FC002520460121E56200F01FFC2046F9
:104140008221C4F8585100F019FCD4F8900225647B
:1041500048B1D4F8940240688047D4F8900201F046
:1041600095F8C4F890520020B0BD000010B5D0F80A
:10417000941269B1D0F8904294F80002FF2807D059
:104180008B6894F8012221469847FF2084F80002AA
:10419000002010BD014640F284100A22C2F2000045
:1041A0000A807047014640F2FC004322C2F2000040
:1041B0000A807047014640F240104322C2F20000DC
:1041C0000A807047014640F290104322C2F200007C
:1041D0000A807047F0B581B00546007C4027002872
:1041E00008BF4FF400772846812102223B46402435
:1041F00000F0DAFC01262846012102223B46EE624D
:1042000000F0D2FC2846822103220823C5F8586119
:1042100000F0CAFC4FF407702E6401F039F8C5F8BD
:104220009002A8B10746D5F894020068804700269E
:10423000C7F81462C7F81862287CD7F8042200284F
:1042400008BF4FF4007428460121234600F0C0FC4B
:10425000304601B0F0BD000080B5D0F8901279B1C1
:1042600090F810C0D1F8042240230121BCF1000FC6
:1042700008BF4FF4007300F0ABFC002080BD00BF0E
:10428000022080BD00290EBF0220C0F89412002039
:1042900070470000D0F890220020C2F80412704746
:1042A000D0F890320020C3F80812C3F810227047EB
:1042B00070B582B00446D0F8906208780D460022AE
:1042C00010F060018DF80720ADF8042012D02029ED
:1042D0004AD1EA88E2B1000626D46878314686F8E9
:1042E0000002204686F8012200F086F800242046CD
:1042F00002B070BD68780B2820D00A2826D098BB61
:1043000094F8740203282FD101A92046022225E047
:10431000D4F89402294683686878002200249847DC
:10432000204602B070BD00BFD4F8940231468368C5
:1043300068789847EA88204631460FE094F874027E
:10434000032811D10024204602B070BD94F87402F5
:10435000032809D10DF107012046012200F066F87B
:104360000024204602B070BD2046294600F038F8EF
:104370000224204602B070BD80B5D0F890223AB138
:10438000D2F8141200294FF0010103D0084680BD75
:10439000022080BDC2F81412D2F81012D2F80822FE
:1043A00001638BB2812100F0EDFC0021084680BD45
:1043B00080B5D0F88C2252689047002080BD000064
:1043C00080B513460A46002100F002FC002080BDA3
:1043D00080B513460A46002100F0D4FC002080BDC1
:1043E00010B58021044600F08DFC20460021BDE878
:1043F000104000F087BC000080B513460A46032138
:10440000C0F86C120021C0E9523300F0E1FB00203B
:1044100080BD000080B50521C0F86C12002100228B
:10442000002300F0D5FB002080BD000080B51346BE
:104430000A460221C0F86C120021C0E9073300F0DF
:10444000A1FC002080BD000080B50421C0F86C12E2
:1044500000210022002300F095FC002080BD000018
:1044600010B540F65804C2F200040A4602A02146E4
:1044700000F006F9204610BD43444320436F6E66AA
:104480006967000040F2D4101222C2F200000A80D4
:104490007047000010B540F65804C2F200040A4606
:1044A00002A0214600F0ECF8204610BD4344432012
:1044B000496E7465726661636500000040F2A82071
:1044C0000422C2F200000A807047000010B540F6D6
:1044D0005804C2F200040A4602A0214600F0D0F8B7
:1044E000204610BD4E6F4E616D65000010B540F660
:1044F0005804C2F200040A4602A0214600F0C0F8A7
:10450000204610BD5553425F4B4559484F4C4445DA
:1045100052000000B0B55020C1F6F8700268836800
:104520004FF01A0C9B18A1F800C000F0A3804FF0C8
:10453000370C1A0F0CEB13714068B3F1204F38BFE2
:1045400002F1300140F2AC22C2F200029170190176
:104550004FF0000E0CEB117582F803E0C3F3036417
:10456000B1F1204F38BF04F13005190215710CEB81
:10457000117582F805E0C3F30354B1F1204F38BF41
:1045800004F13005190395710CEB117582F807E001
:10459000C3F30344B1F1204F38BF04F130051904CF
:1045A00015720CEB117582F809E0C3F30334B1F115
:1045B000204F38BF04F13005190595720CEB1175C9
:1045C00082F80BE0C3F30324B1F1204F38BF04F1AC
:1045D000300519061573C3F303140CEB1175B1F113
:1045E000204F4FEA037103F00F0382F80DE038BF4C
:1045F00004F1300503F13704957382F80FE0B1F14F
:10460000204F38BF03F13004010F0CEB107314740A
:1046100082F811E0B0F1204F38BF01F13003010101
:104620000CEB1174937482F813E0C0F30363B1F1DF
:10463000204F38BF03F1300401021475C0F3035357
:104640000CEB1174B1F1204F4FEA003182F815E004
:1046500038BF03F130040CEB1173947582F817E046
:10466000C0F30340B1F1204F38BF00F1300313769F
:1046700082F819E040F2AC20C2F20000B0BD0000A8
:1046800010B5002868D00378B3B100F1020E4FF0E6
:10469000000C00BF1EF8013C93B19EF800309BB1A6
:1046A0009EF80130A3B19EF802300CF1040C002BEF
:1046B0000EF1040EEED10DE04FF0000C0AE000BF49
:1046C0004CF0010C06E000BF4CF0020C02E000BF11
:1046D0004CF0030C5FFA8CFC022303EB4C031380B9
:1046E00003220B704A7090F800E0BEF1000F33D047
:1046F000023002224FF0000C1AE000BF141DE4B299
:1047000044F0010E0B5501F80EC04378002B08BF92
:1047100010BD941DE4B244F0010E0B5501F80EC01B
:1047200090F802E00832BEF1000F00F1040013D04F
:10473000D3B243F0010401F803E001F804C010F81B
:10474000013C4BB1941CE4B244F0010E0B5501F84E
:104750000EC00378002BD1D110BD0000D0F890120C
:10476000002200200A737047B0B58121044600F092
:1047700005F9D4F890020025E56218B100F086FD35
:10478000C4F890520020B0BD014640F268200A22D1
:10479000C2F200000A807047014640F22020222227
:1047A000C2F200000A807047014640F244202222F3
:1047B000C2F200000A807047014640F274202222B3
:1047C000C2F200000A80704710B581210322042341
:1047D000044600F0E9F90120E062102000F058FDE5
:1047E0000028C4F890020FBF022001460020087381
:1047F00010BD000080B590F87432032B05D19446AB
:104800000A46D0F890120B7B13B1002080BD00BF88
:1048100001230B738121634600F0B4FA002080BDB0
:1048200080B582B00B78D0F890C2002213F06003FC
:10483000ADF8062012D0202B40F062804A78931EFB
:10484000092B00F25D80DFE803F0052F5B5B5B5B0B
:104850005B5B21370CF1040127E000BF4B780B2B89
:104860004ED8DFE803F0074D4D4D4D4D2F4D4D4DCA
:10487000194300BF90F87422032A41D10DF10601BB
:104880000222FFF7D3FD002002B080BDC878CCF82B
:104890000400002002B080BD90F87422032A2FD1BA
:1048A0000CF1080101E000BF61460122FFF7BEFDE7
:1048B000002002B080BD00BF8878CCF80000002046
:1048C00002B080BDCA78212A20D0222A18D1CA88F5
:1048D00040F24001C2F200013F2A28BF3F220C31C2
:1048E000FFF7A4FD002002B080BD00BF90F8742245
:1048F000032A05D18878CCF80800002002B080BDDA
:10490000FFF76EFD022002B080BD00BFCA8840F2F2
:104910004001C2F20001092A28BF0922FFF786FDE3
:10492000002002B080BD0000002804BF02207047B4
:1049300080B5D0F88C32002B1CBF0023C0F88C321D
:10494000002918BFC0F88812012180F87412027083
:1049500000F0D6F8002080BD80B5D0F89802FDF7B1
:10496000D3F940F200220223C100C0F20122042840
:1049700038BF22FA01F3D8B280BD000080B5D0F86C
:104980009802FDF79BF940F200220223C100C0F219
:104990000122042838BF22FA01F3D8B280BD0000FA
:1049A000B0B5044671B1D4F88C02426942B194F8B2
:1049B0007402032804D120469047002054E000BF31
:1049C0000220B0BDD4F86C02002818BF042805D11D
:1049D0002046802100F096F93DE000BF02283AD140
:1049E000D4E90810814209D9081A83B2206220460E
:1049F00011461A46FFF7ECFC14E000BFE169814262
:104A000018D3B1FBF0F202FB101098B9D4F8700281
:104A100081420FD22046002100220025FFF7D8FC5A
:104A2000C4F87052204600210022002300F0D0F884
:104A300011E000BFD4F88C02C16829B194F8740267
:104A4000032801D1204688472046802100F05AF9EA
:104A50002046FFF7DFFC94F8780201284FF00000B1
:104A600004BF84F87802B0BDB0BD0000B0B5044604
:104A700071B1D4F88C02826942B194F874020328AF
:104A800004D12046904700251CE000BF0220B0BDA5
:104A9000D4F86C020025052816D0032812D1D4E9D9
:104AA0005310814218D9091AC4F84C11814238BFF9
:104AB000084683B2204611461A46FFF781FC0020C3
:104AC000B0BD00BF2846B0BD20460021C4F86C52DE
:104AD00000F018F92846B0BDD4F88C02016929B15C
:104AE00094F87402032801D1204688472046FFF736
:104AF000ABFC0020B0BD0000D0F89802FDF734B93F
:104B000010B5044641F2447045F60041C2F200007F
:104B1000C4F200010822022380E80E000021C0F840
:104B2000E842C4F89802036181610162FDF7E4FD87
:104B3000002818BFFCF792FBD4F89802002100224D
:104B40001823FDF77BF8D4F898028021002258231F
:104B5000FDF774F8D4F8980281210022C023FDF7F4
:104B60006DF8D4F89802012100224FF48873FDF704
:104B700065F8D4F89802822100224FF48073FDF783
:104B80005DF8002010BD0000D0F8980201F07F020F
:104B900002EB820200EBC20000F12A02090658BFB4
:104BA00000F5B5721078704780B59446D0F8980239
:104BB0001A466346FDF7E2F840F200220223C100E4
:104BC000C0F20122042838BF22FA01F3D8B280BD16
:104BD00080B5D0F89802FDF701F940F200220223D7
:104BE000C100C0F20122042838BF22FA01F3D8B272
:104BF00080BD0000F0B581B00021002240230446B2
:104C000000254026FFF7D0FF012720468021002203
:104C10004023C4F84471C4F85061FFF7C5FFD4F8CD
:104C20009002A761666284F87472C4F86C52656081
:104C3000C4F87C5228B1D4F88C0200214268204686
:104C40009047002001B0F0BD90F875220146002089
:104C500081F874227047000080B590F8741203291F
:104C600005D1D0F88C12C969002918BF88470020E7
:104C700080BD0000024600201174704780B5D0F856
:104C80009802FDF7DDFD40F200220223C100C0F2D0
:104C90000122042838BF22FA01F3D8B280BD0000F7
:104CA000B0B500F520750446284600F07DF894F86C
:104CB00080020121B4F88622C4F86C1200F01F01B2
:104CC0000229C4F8702209D001290DD091B92046DB
:104CD000294600F091F80020B0BD00BF20462946CB
:104CE00000F0E4F90020B0BD2046294600F084FA27
:104CF0000020B0BD00F08001204600F003F8002045
:104D0000B0BD000080B5D0F89802FDF781F840F200
:104D100000220223C100C0F20122042838BF22FA77
:104D200001F3D8B280BD000080B5D0F89802FDF73D
:104D3000A3FD40F200220223C100C0F20122042898
:104D400038BF22FA01F3D8B280BD000080B5D0F898
:104D50009802FDF7ABFD40F200220223C100C0F231
:104D60000122042838BF22FA01F3D8B280BD000026
:104D7000014690F87402042281F87502002081F83F
:104D80007422704780B5D0F89802FDF773F840F2AE
:104D900000220223C100C0F20122042838BF22FAF7
:104DA00001F3D8B280BD00000A7802704A784270E0
:104DB0004A8842808A888280C988C1807047000002
:104DC00000290EBF0220C0F88C120020704700009E
:104DD00080B5D0F88C223AB112689047002818BFED
:104DE0000120400080BD00BF022080BD80B5FFF7DC
:104DF0009BFF002080BD0000B0B582B00D46097851
:104E0000044611F060010DD0402902D0202940F065
:104E10000381D4F88C0229468268204690470020FE
:104E200002B0B0BD6878092800F2F680DFE810F023
:104E30000A002400F4003000F40066008A00F40048
:104E40003800460094F874020138022800F2E48029
:104E5000E888022840F0E080D4F87C02214600284F
:104E600018BF0120400041F80C0F20460222FFF736
:104E7000DDFA002002B0B0BD94F8740201380228B7
:104E800000F2CA8068880128C9D1002004E000BF70
:104E900068880128C3D10120C4F87C02ECE000BF7F
:104EA000E888012840F0B88094F87402411E022975
:104EB00060D20020214641F8080F5EE0688840F685
:104EC0005405C1B2C2F200050229287080F0A48006
:104ED00094F87402032857D0022840F07380002908
:104EE00000F0CA80032084F8740220466160FFF756
:104EF0006FFF022840F0C0808EE000BFA888002825
:104F000040F08A80E888002840F0868068887F2802
:104F100000F2828094F87412032900F07D80C5B2FB
:104F200084F8760220462946FFF7A8FE2046FFF7C0
:104F30008BFA002D0CBF0120022084F8740200209F
:104F400002B0B0BD68884FF0FF3101EB1021062997
:104F500000F26280DFE801F004462A6060545E00DF
:104F6000D4F888020268207C0DF1060190470146C2
:104F700071E000BF03284FD1211D20460122FFF719
:104F800055FA002002B0B0BD002951D06068012858
:104F900000F07280C1B22046FFF70AFA2978204655
:104FA0006160FFF715FF022866D135E0C0B2052821
:104FB00032D8DFE800F003676B6F7377D4F88802AC
:104FC0004268D0E720468021FFF79CFE2046002162
:104FD000FFF798FE29782046FFF7EAF9002002B093
:104FE000B0BD00BF217CD4F88C0200290CBF816ABF
:104FF000C16A0DF106008847014602202AE000BF81
:10500000207C48B9D4F88C02416B0DF1060088472A
:10501000ADE700BF207CA8B120468021FFF772FEDB
:1050200020460021FFF76EFE002002B0B0BD00BF99
:10503000022084F87402002060602046FFF7B8F96F
:105040001AE000BFD4F88C02016B0DF1060088470E
:10505000014607204870BDF8060048B1EA883AB119
:10506000904238BF02462046ADF80620FFF7DEF931
:10507000E88800287FF4D3AE2046FFF7E5F900204A
:1050800002B0B0BDD4F8880282686CE7D4F8880218
:10509000C26868E7D4F88802026964E7D4F8880235
:1050A000426960E7D4F8880282695CE7B0B50A46D5
:1050B0000978044611F060010CD0402901D0202964
:1050C00020D1D4F88C0211468368204698470020EE
:1050D000B0BD00BF50781179F0B1012836D0032857
:1050E00068D194F87402032834D15088002873D111
:1050F00011F07F0070D0D08800286DD12046FFF7D6
:1051000001FE69E020468021FFF7FCFD20460021DA
:10511000FFF7F8FD0020B0BD94F87402032827D0F3
:10512000022808BF5FEA416044D101F07F0000EB34
:10513000800004EB800000F11402090658BF00F55E
:10514000A07200201060204611464FE094F87402CF
:10515000032839D002282DD148062BD02046FFF74E
:10516000D1FD20468021FFF7CDFD0020B0BD00BF5E
:1051700001F00F0202EB820211F0800004EB8202C8
:1051800014BF9269D2F84421A2B101F07F0202EB70
:10519000820204EB820202F11405002808BF02F526
:1051A000A07548061ED02046FFF7EEFCD0B10120C6
:1051B00019E000BF20468021FFF7A4FD2046002112
:1051C000FFF7A0FD0020B0BD50880028A2D14806FE
:1051D00002D02046FFF7C0FB2046FFF735F900203C
:1051E000B0BD00BF00202860204629460222FFF7FC
:1051F0001DF90020B0BD0000B0B50D460978044689
:1052000011F0600118BF402912D194F874020138DE
:10521000022803D8A88810F0FE0F15D02046802160
:10522000FFF770FD20460021FFF76CFD0020B0BDA8
:105230002029EAD020468021FFF764FD2046002186
:10524000FFF760FD0BE000BFD4F88C0229468268AE
:1052500020469047E988002908BF002802D0002096
:10526000B0BD00BF2046FFF7EFF80020B0BD000042
:1052700010B50446D0F88C02217942682046904748
:105280002046FFF763FD002010BD000070470000BE
:1052900040F65820C2F2000070470000F0B50C78CC
:1052A000024691F803E000EB840730F8240047F24F
:1052B0007063BEF1030F20EA030309D80020DFE882
:1052C0000EF00309100D00BF43F4007308E000BFA7
:1052D000012006E043F4806302E000BF43F4C063B2
:1052E000002048F28005CFF6FF752B433B803B88BA
:1052F00040F60F76334023432B433B800B7B48F231
:10530000800C002B44D03B8840F60F652B400CF5F9
:1053100080752B433B80B2F850300D8902EB0414AA
:10532000234425F00105A3F80054B2F850204B891E
:10533000224423F00103A2F8083449783A8800296E
:1053400002F480414AD039B1398840F60F721140D9
:105350000CF58042114339803988490607D53988D0
:1053600040F60F7211400CF1400211433980398828
:1053700040F63F7211400CF120024A40BEF1010F8D
:1053800008BF41EA0C023A80398843F60F7244E0C4
:105390004D78B2F85030002D4FEA041442D0C9883D
:1053A00022441A4421F00101A2F800143988490668
:1053B00007D5398840F60F7211400CF140021143B5
:1053C0003980398840F63F72BEF1010F01EA0201CF
:1053D00024D00CF1200251403980F0BD39B1398818
:1053E00040F60F7211400CF5804211433980398824
:1053F000490607D5398840F60F7211400CF140027A
:1054000011433980398843F60F7211400CF5405230
:1054100051403980398840F63F72114041EA0C0111
:105420003980F0BDCD881619334425F00105A3F865
:105430000854B2F850200B6906F20C4163B13E2BC0
:105440001AD803F0010606EB53039B025352398826
:1054500049042AD521E000BF535A48F2000623F43C
:10546000F8435352535ACFF6FF7633435352398899
:1054700049041AD511E000BF5E094FF0FF35DC0684
:1054800008BF05EB531648F20003CFF6FF7343EA5B
:10549000862353523988490407D5398840F60F725C
:1054A00011400CF5804211433980398843F60F7260
:1054B00011400CF5405251403980F0BDB0B50C7828
:1054C0004B78097B024630F824004CF2800C4CF2F9
:1054D000800500294FEA44013AD0002B00F48040B7
:1054E00040D040B132F8110040F60F73184040EA46
:1054F0000C0022F8110032F8110043F60F7E40062E
:1055000040F63F7009D532F8113040F60F74234051
:10551000ACF57F54234322F8113032F8113040F6B5
:105520000F7423402B43ACF5804522F8113032F83C
:1055300011301840284322F8110032F81100ACF560
:10554000804300EA0E000343002022F81130B0BD72
:10555000F3B1400640F63F7EEFD5ACF57F5540F6FF
:105560000F70E4E740B132F8110040F60F731840B5
:1055700040EA0C0022F8110032F81100ACF57F551A
:10558000400640F63F7E43F60F70BCD4C5E700BF2F
:10559000400443F60F7ED0D540F60F70C7E70000F9
:1055A000002070470020704701460120A1F840000C
:1055B00000220020A1F84020A1F84420A1F85020AA
:1055C000704700000146B0F8400044F2FF0202407C
:1055D0000020A1F84020704780B50A7B12B100205E
:1055E00080BD00BF0A784B7830F822C04FEA4202F3
:1055F000B3B15FEA4C6348F2A00E0BD530F812C08D
:1056000040F60F730CEA030C0EF1200343EA0C037F
:1056100020F81230C9780129E1D040F63F7110E03E
:105620005FEA4C414BF2800E09D530F8121040F67B
:105630000F7319400EF58053194320F8121043F6EA
:105640000F7130F81230194081EA0E0120F8121063
:10565000002080BD02460B78487832F823C040F61F
:105660003F71002848F2900008BF43F60F71CFF653
:10567000FF7008BF00F57F6001EA0C014140002087
:1056800022F82310704700002DE9F04F81B04A78CE
:10569000012A55D18A69D1F810900F7B4A4588BFFD
:1056A0004A46002F48F2801B6CD0CF78022F40F082
:1056B000A9800D780C6A30F8257040F60F664FEA25
:1056C000450E4C4507EA060740F2008147EA0B0702
:1056D000A4EB020820F81E70C1F8208030F81E707C
:1056E000B0F850607F064FEA051700EB070300F1A2
:1056F0005D819F190093A7F80424D1F814A0170422
:1057000000F088830F894FF0FF3600EB470707F55D
:10571000806B97B20137C7F3410506EB5704002DA4
:105720004FEA5707D44600F062833CF8023B5E46DE
:10573000012D26F8043B40F03B82013FB34656E37F
:105740000B7B002B42D0CB78012B00F09D80022BED
:1057500040F0B880002A40F0F381B0F850300A7869
:105760000F6903441201002F03F2044300F0A281E9
:105770003F2F80F0D18107F0010606EB5707BF02EB
:10578000D7E100BF130400F06381CB88D1F814C0C7
:1057900000EB430303F5806893B201334FF0FF370A
:1057A000C3F3410407EB530E002C4FEA530300F000
:1057B0003C81674637F8025B4646012C26F8045BBD
:1057C00040F01C81013BBC46B0462EE18B690A6962
:1057D0009F1A38BF00278F61B0F850700E780744C9
:1057E00088BF13463201002B07F20C4700F0C68039
:1057F0003E2B00F2CD8003F0010606EB53039B0223
:10580000D353C9E10F7840F60F6530F827604FEAAF
:10581000470E2E4046EA0B0620F827600E6AB41A9F
:105820000C6230F82760B0F850503F01760600EB6C
:1058300007087BD408EB0503A3F80424D1F814A0CF
:10584000130400F0EF810B89CDF800E000EB430377
:1058500003F5806B93B25F1C4FF0FF33C7F3410534
:1058600003EB570E002D4FEA5707D44600F0C581D1
:105870003CF8023B5E46012D26F8043B40F0F480E4
:10588000013FB346B9E100BF0F698B69DE1B38BF2A
:10589000002688BF3B46002A8E6140F07D81B0F82B
:1058A00050700A7807441201002B07F2044700F0F9
:1058B0001B813F2B80F05C8103F0010606EB530354
:1058C0009B0262E1012001B0BDE8F08FABF5807270
:1058D0003A4320F81E20B0F8502000EB05131A447C
:1058E0002304A2F8044400F021830B894A6900EBE9
:1058F000430101F58067A1B201314FF0FF33C1F3DD
:10590000410503EB510C002D4FEA510100F0C98114
:10591000164636F8024B3B46012D23F8044B40F067
:10592000B180013932461F46BBE100BF08EB0507D5
:10593000A7F80C24D1F814A0170400F0E5814F89D2
:1059400095B26E1C4FF0FF3500EB470705EB560391
:10595000C6F3410507F5806C002D4FEA560759D074
:105960005646CDF800E036F802EBE346012D2BF861
:1059700004EB40F09180013FDC46B0E1D35B23F4BF
:10598000F843D353D35B43F40043D35304E100BF44
:105990005E094FF0FF35DC0608BF05EB53164FF4E8
:1059A000004343EA8623D353F6E000BF9F190093D8
:1059B000A7F80C24D1F814A0170400F083824F89B3
:1059C0004FF0FF3600EB470707F5806B97B20137C2
:1059D000C7F3410506EB5704002D4FEA5707D4469D
:1059E00000F05D823CF8023B5E46012D26F8043B48
:1059F00040F0EC80013FB34651E200BFBCF80250DA
:105A0000022CA8F8045007D108F108080CF1040C86
:105A1000023B0AE0564666E1BCF804400CF1060C75
:105A2000A8F8084008F10C08033BBEF1030F0FD3A0
:105A3000ACF10807A8F1100637F8085F043B26F818
:105A4000105F7D88B580BD883581FD88B581F3D133
:105A5000B0F850300978034403EB0113A3F8042491
:105A60004FEA410E62E200BFBAF80230022DABF8F5
:105A7000043040F0B9800BF1080B0AF1040C023F2E
:105A8000BBE000BF5388022DBB8040F00581083782
:105A90000432023905E100BFBAF80260022DACF809
:105AA000046040F013810CF1080C0AF10406023F77
:105AB00015E100BFD75A27F4F847D752D75A47F411
:105AC0000047D752B0F8503003441A44B2F80C34AF
:105AD00023F4F843A2F80C34B2F80C3443F4004336
