:020000040800F2
:1000000038100020A1010008E52600084D24000852
:10001000E126000865040008F54100080000000022
:10002000000000000000000000000000D1270008D0
:100030006904000800000000E9260008D527000830
:10004000BB010008BB010008BB010008BB010008A0
:10005000BB010008BB010008BB010008BB01000890
:10006000BB010008BB010008BB010008BB01000880
:10007000BB010008BB010008BB010008BB01000870
:10008000BB010008BB010008BB010008BB01000860
:10009000A9400008BB010008BB0100086D0400086E
:1000A00000000000BB010008BB010008BB01000804
:1000B000BB010008BB010008BB010008BB01000830
:1000C000BB010008BB010008BB010008BB01000820
:1000D000BB010008BB010008BB010008BB01000810
:1000E000BB010008BB010008BB010008DD270008B8
:1000F0002128000800F002F800F042F80AA090E879
:10010000000C82448344AAF10107DA4501D100F0D2
:1001100037F8AFF2090EBAE80F0013F0010F18BF5D
:10012000FB1A43F001031847D44A0000F44A0000C8
:10013000103A24BF78C878C1FAD8520724BF30C813
:1001400030C144BF04680C607047000000230024E5
:1001500000250026103A28BF78C1FBD8520728BFD7
:1001600030C148BF0B607047642900F06380732979
:1001700000F03981002070471FB51FBD10B510BDBC
:1001800000F03AF91146FFF7F7FF04F035F800F0F8
:1001900058F903B4FFF7F2FF03BC00F05BF900006D
:1001A0000948804709480047FEE7FEE7FEE7FEE70B
:1001B000FEE7FEE7FEE7FEE7FEE7FEE70448054947
:1001C000054A064B70470000D9270008F5000008D3
:1001D000380A002038100020380C0020380C00208D
:1001E00070B50C460546012A05D02878800600D552
:1001F000EA69002302E0012305E05B1C934202D27E
:10020000E05C0028F9D1A869E618C01AA861286A3C
:10021000184428622846AFF3008004E0D5E90121A4
:1002200014F8010B9047B442F8D32846AFF300808E
:1002300070BD00002DE9F0410646002410687529C4
:10024000314616A510D0AFF30080002802DA4042F4
:1002500013A507E031688A0701D512A502E0490716
:1002600004D511A5012401E0AFF3008000210A228A
:1002700006F1240709E0B0FBF2FCB0FBF2F302FB4D
:100280001C00303078541846491C0028F3D123460E
:100290002A463046BDE8F04100F03AB800000000C0
:1002A0002D0000002B0000002000000002F0FF03E2
:1002B00043EA032242EA024200F002B84FF0000291
:1002C00000B5134694469646203922BFA0E80C504C
:1002D000A0E80C50B1F12001BFF4F7AF090728BF27
:1002E000A0E80C5048BF0CC05DF804EB890028BFA3
:1002F00040F8042B08BF704748BF20F8022B11F0CC
:10030000804F18BF00F8012B704770477047704747
:100310002DE9F0470D4699469246044600F124081F
:100320000168880604D5E06921F01001216000E031
:100330000120A84201DD471B00E00027A1697A19CE
:1003400002EB0900081AA0612078C00602D42046FA
:10035000AFF30080002608E0D4E901211AF8060076
:100360009047206A401C761C20624E45F4DB2078C2
:10037000C0060AD52046AFF3008006E0D4E901218B
:1003800030209047206A401C2062381EA7F10107E8
:10039000F4DC07E0D4E9012118F805009047206A51
:1003A000401C2062281EA5F10105F3DC2046AFF3B6
:1003B00000802078000602D50220BDE8F0870120E9
:1003C000FBE710B5436913B1AFF3008001E0FFF71D
:1003D00007FF012010BD127800F124010A700022ED
:1003E0004A700122EDE711684FF0FF32E9E70000A3
:1003F00000487047780000207546FFF7F9FFAE46C9
:1004000005006946534620F00700854618B020B520
:10041000FFF7D4FEBDE820404FF000064FF0000784
:100420004FF000084FF0000BAC46ACE8C009ACE858
:10043000C009ACE8C009ACE8C00921F007018D464D
:10044000704710B50446AFF300802046BDE8104069
:10045000FFF79FBE01491820ABBEFEE72600020051
:1004600070470000FEE700007047000080B540F6CE
:10047000AC10C2F2000001F06BFE202000F028F862
:10048000402000F025F8802000F022F84FF40070A2
:10049000BDE8804000F01CB8EFF3108072B600BFDA
:1004A000FEE70000B0B5044600F014F9054640F23E
:1004B0001800C2F200004068611C18BF044400BF6D
:1004C00000F008F9401BA042FAD3B0BD704700000D
:1004D00040F21441C4F201010A68024214BF0860EC
:1004E0007047FFF7F3BF00002DE9F04F84B08E4650
:1004F00041F20002C4F20202DEF8004005219042FF
:10050000019008BF0421002C009100F0D9800198CF
:10051000002500F13E4202F1FF724FEAB22300983B
:10052000012700264FF00008042B38BF1846009022
:10053000CDF808E00EE000BFDEF8004008F1010849
:1005400034FA07F106F1020607F1010705F1040587
:1005500000F0B680A7F1010A012000FA0AF314EABC
:100560000309E9D0DEF804C00CF0030BABF1010481
:10057000012C17D80198744681680322E468B240C0
:100580009143B4402143816041684FEA480E99434A
:10059000CCF3001303FA0AF30446D0431943616015
:1005A0000CE000BF0321B140019CC843BBF1030F25
:1005B000B64603D1B6464FF0030B23E0E168029A3A
:1005C00001409368BBF1020F03FA0EF341EA030105
:1005D000E16017D16FF0030101EA5A01214405F0EF
:1005E0001C040F23D1F820C003FA04FB13692CEA82
:1005F0000B0CA34043EA0C03019C0B62D2F804C02D
:100600000CF0030B21680BFA0EF20140114321603C
:10061000DDF808E01CF4403F8ED043F62000C4F221
:100620000200016840F2004C41F0010101600168E4
:10063000C4F2010C01F00101039103992AF00301B6
:100640004FF6084A6144CFF6FF7A05F00C030F20FD
:1006500051F80A2000FA03F40098A24300FA03F3C9
:100660001A4341F80A20DCF80010DEF8042041EAC1
:100670000903D40358BF21EA0903CCF80030DCF8A1
:100680000410940341EA090358BF21EA0903CCF896
:100690000430DCF8081040F20C4041EA0903D402AF
:1006A00058BF21EA0903CCF80830C4F20100016800
:1006B000920241EA090358BF21EA090303603BE7BC
:1006C00004B0BDE8F08F0000002A08BF0904816172
:1006D0007047000040F63420C2F200000068704706
:1006E00040F2180040F63421C2F20000C2F20001CC
:1006F00040680A68104408607047000080B5032015
:1007000000F094F80F2000F009F800281CBF012029
:1007100080BD00F029F8002080BD000070B540F2D7
:100720001806C2F200067168E1B1044640F23C00CE
:10073000C2F200004FF47A720068B2FBF1F1B0FB34
:10074000F1F001F007FC0F2C4FF0010508D838B983
:100750004FF0FF3021460022002500F03BF83460C6
:10076000284670BD012070BD83B043F62400C4F25A
:100770000200016841F000410160016801F00041A0
:100780000291029950F8041C41F0010140F8041C48
:1007900050F8041C01F0010101910199016841F038
:1007A00080510160006800F080500090009803B014
:1007B00070470000002848BF704700F01F01012269
:1007C00002FA01F14EF200124009CEF2000242F8A4
:1007D0002010704710B54EF60C5CCEF2000CDCF821
:1007E0000030C3F3022E8EF00704042C28BF04242B
:1007F000BEF103034FF0FF3E0EFA04F438BF0023AE
:10080000A14399400EFA03F39A43114300F00F02FB
:10081000043A624409010C3200F16043B0F1FF3F39
:10082000C8BF03F56442117010BD00004EF60C51B4
:10083000CEF200010A684FF6FF031A4060F30A2265
:1008400042F0806040F0FD700860704780B501F0B4
:10085000070C0CEB8C0C00EBCC0C01EB810E0CF1BB
:10086000280C00EBCE00090658BF00F5B47C002030
:10087000002A19BFCCF808300121ACF8063000215D
:100880008CF80C1080BD000001EB8102D0F8E8323A
:1008900000EBC200C26B184602F0B8B901EB81024E
:1008A000D0F8E83200EBC200D0F87C21184602F004
:1008B00013BA0000B0B50446406801F00F0282424E
:1008C00084BF0120B0BD080601F0070000EB8001E5
:1008D00004EBC10206D402F5B471002382F8693139
:1008E00005E000BF012302F1280182F8293094F8C5
:1008F000A8220025012A8D70087004BF0220B0BD17
:100900002068012284F8A82202F0DAFE284684F842
:10091000A852B0BDB0B50546080601F0070000EBCF
:10092000800105EBC10C05D40CF5B47100248CF8E2
:10093000694104E001240CF128018CF829404C782D
:100940000870002C0A61CB7018BFC881022B04BF4D
:100950000020087195F8A802012804BF0220B0BD4C
:100960002868012285F8A82202F082FD002085F87F
:10097000A802B0BD10B501F0070C0CEB8C0100EB28
:10098000C10E00680EF5B4710024CEF87C21CEF8BB
:100990008031CEF884418EF869418EF868C102F04A
:1009A000E7FE002010BD000010B54268044601F0CB
:1009B0000700904284BF012010BD0A060AD401EB53
:1009C000810104EBC10202F5B471002382F86931A0
:1009D00009E000BF00EB800104EBC102012302F13A
:1009E000280182F8293094F8A8320122012B8A705C
:1009F000087004BF022010BD206884F8A82202F00D
:100A00009DFE002084F8A80210BD000080B501F012
:100A1000070C0CEB8C0100EBC10101F828CF00683A
:100A20004FF0010C01F1140781F824C04FF0000EC3
:100A300087E80C400B6281F801C002F099FE0020AB
:100A400080BD00002DE9F04F81B00446006803F03E
:100A500031FB000402D4206807E000BF2068B0F931
:100A60004410B1F1FF3F40F39D8003F023FB4005AC
:100A700019D52068B0F8441021F48061A0F8441022
:100A8000204600F085FC94F8A80201280BD0012034
:100A9000002584F8A80284F824502068002103F07F
:100AA0005DFB84F8A852206803F004FB014620682F
:100AB000490405D5B0F8441021F48041A0F8441051
:100AC00003F0F8FA01462068890405D5B0F844100F
:100AD00021F40051A0F8441003F0ECFA014620681C
:100AE000C90411D403F0E6FA000527D4206803F006
:100AF000E1FA80053DD4206803F0DCFAC00547D454
:100B000001B0BDE8F08F00BFB0F8401021F0040143
:100B1000A0F84010B0F8401021F00801A0F84010F3
:100B2000204600F047FC2068B0F8441021F48051C2
:100B3000A0F8441003F0BEFA0005D7D52068B0F83D
:100B4000401041F00801A0F84010B0F8441021F422
:100B50000061A0F84410B0F8401041F00401A0F882
:100B60004010204600F054FC206803F0A3FA8005F2
:100B7000C1D52068B0F8441021F40071A0F84410E9
:100B8000204600F025FC206803F094FAC005B7D594
:100B90002068B0F8441021F48071A0F8441001B02E
:100BA000BDE8F08F04F52C7140F60F7B009109E051
:100BB0002046FFF769FE00BF2068B0F94410002905
:100BC0007FF553AFB0F8442012F00F094AD030F847
:100BD00029804FEA490A5FEA084140F16D8130F807
:100BE0001A1040F60F7501EA0B01803120F81A1037
:100BF00009EB890104EBC10B9BF874110BF5B4767A
:100C0000002900F0A1809BF86B11022940F0B08010
:100C1000B0F8502031785FEA484302EBC10200EBA4
:100C2000420200F1DD80B2F80C74DBF880216FF332
:100C30009F27D21B4FF0000338BF1A46CBF8802104
:100C400040F2E8805FEA486200F1F48030F8212049
:100C500048F2C0032A401A4320F82120002F40F018
:100C6000EA800DE10188D2062CD401EA0B0101F5DE
:100C700000410180B0F8501094F8282001EBC20127
:100C800000EB4100B0F80404E16B6FF39F20606457
:100C90000844E06320460021FFF7F6FD94F82400A5
:100CA000002889D0206C002886D194F8240021687F
:100CB00040F08000C0B2A1F84C00002084F824006D
:100CC0007AE700BF0A056DD409047FF575AF018886
:100CD00001EA0B0180310180B0F8501094F86821CE
:100CE00001EBC20100EB4101B1F80C346FF39F231B
:100CF000C4F8843193B1D4F87C1179B1B4F86E2181
:100D000003F0DCF9D4F87C01D4F884110844C4F869
:100D10007C0120460021FFF7C1FD206801880905FC
:100D20003FF54AAFB0F85010D4F8783100F20C42D9
:100D3000002B00F0CB813E2B00F2D48103F00107A1
:100D400007EB53039B02DAE1B0F85010327801EB65
:100D5000C20100EB4101B1F80C746FF39F27002F23
:100D600000F08E80DBF87C11BBF86E2184E000BFC0
:100D7000317848F2C00330F821202A401A4320F885
:100D8000212030F82120B0F85030520403EBC1018B
:100D900000EB410138D4B1F80C746FF39F27002F9A
:100DA00049D16DE0B0F8501094F8682101EBC20110
:100DB00000EB4101B1F80C34B4F86E2100996FF3E7
:100DC0009F23C4F8843103F079F92068018801EA8F
:100DD0000B0180310180204600F012FBECE600BFE1
:100DE000B2F80474DBF880216FF39F27D21B4FF019
:100DF000000338BF1A46CBF8802121D95FEA486248
:100E00002DD4AFBB3CE000BFB1F804746FF39F2753
:100E100077BB35E030F8212043F60F731A404CF2CF
:100E20008003A3F500535A4020F821205FEA48626E
:100E30007FF50CAF27B3DBF87C11BBF872211BE008
:100E400030F8212043F60F731A404CF28003A3F5CB
:100E500000535A4020F821205FEA4862D1D530F88B
:100E6000212048F2C0032A401A4320F821203FB134
:100E7000DBF87C11BBF870213B4603F01FF900E062
:100E80000027DBF88411DBE95F0239443844CBF8F2
:100E90008411CBF87C011AB1DBF87801B84205D98E
:100EA00031782046FFF7FAFC04E000BF20683146A5
:100EB00002F05EFC40F60F7B5FEA08607FF57CAED7
:100EC000206809EB890130F81A3004EBC10203EA0B
:100ED0000B0101F5004120F81A1092F82B1002F1D5
:100EE0002806002918BF03291CD1B0F850303178EA
:100EF000176C03EBC10300EB4303B3F80434002584
:100F00006FF39F23FF1A38BF2F4617647FF650AE4A
:100F1000D16B576C1944D163F9185164314602F012
:100F200027FC49E6022902D15FEAC851DDD5B0F8B5
:100F3000503031785FEA486703EBC10344D400F2D4
:100F40000C4939F81370136C6FF39F27DB1B4FF0BC
:100F5000000538BF2B46136470D95FEA484308D4B4
:100F600030F821304CF2800503EA0B032B4320F8C4
:100F70002130154615F84C3F012B40F07B8113467C
:100F800053F8488F53E904EC53F804ACBC44BA441A
:100F9000F04543F80CCC43F804AC80F0F180B8F194
:100FA000000F00F02B810027C6461F602F7092F8BB
:100FB0002930012B40F0EC80B0F8503009EB0111E2
:100FC00021F803E040E100BF00F2044939F8137052
:100FD000136C6FF39F27DB1B4FF0000538BF2B46C8
:100FE00013644FD95FEA484308D530F821304CF2FA
:100FF000800503EA0B032B4320F82130134613F836
:101000004C5F012D40F03681154655F848EF55E903
:1010100004AC55F8048CBC44B844D64545F80CCC17
:1010200045F8048C80F0C6804FF00008BEF1000F38
:1010300083F8008040F0C180BE46C0E092F82920CD
:10104000012A69D0002A74D1B0F8502000EB0113B6
:101050001A44B2F8043423F4F843A2F80434B2F882
:10106000043443F40043A2F80434B0F8500009EB10
:101070000112135A23F4F8431352135A43F4004352
:1010800056E000BF92F82920012A59D0002A64D1E5
:10109000B0F8502009EB01139F5A27F4F8479F52EC
:1010A0009F5A47F400479F52B0F8502000EB0110C0
:1010B0001044B0F80C2422F4F842A0F80C24B0F844
:1010C0000C2442F40042A0F80C2446E08B5A48F26B
:1010D000000723F4F8438B528B5ACFF6FF773B433C
:1010E0000DE000BF5F09DE064FF0FF3608BF06EBDC
:1010F000531748F20003CFF6FF7343EA87238B525E
:10110000018843F60F7211404CF28002A2F5805222
:101110005140018050E500BFB0F8502000EB0113B2
:101120001A440023A2F80434B0F8500009EB01126D
:1011300013522046FFF7A8FB5FEA484014D599E018
:10114000B0F8502009EB011300279F52B0F850204F
:1011500000EB01101044A0F80C742046FFF794FB3C
:101160005FEA484040F18680206831784CF2800385
:1011700030F8212002EA0B021A4320F8212079E0FE
:10118000A8EB0E051D6092F82930012B3FF414AF37
:10119000002B59D1B0F85070BEF1000F09EB0111CE
:1011A00034D0BEF13E0F41D80EF0010303EB5E03D5
:1011B0009B0248E0AEEB0A08D646C5F8008092F8DC
:1011C0002930012B12D0002B4ED1B0F85050BEF177
:1011D000000F09EB011121D0BEF13E0F36D80EF001
:1011E000010303EB5E039B023DE000BFB0F850300B
:1011F00009EB011121F803E036E000BF00232B705A
:10120000BE4692F82930012BC2D1D5E67B5A23F491
:10121000F8437B527B5A43F4004314E06B5A23F4A7
:10122000F8436B526B5A43F400431CE05FEACE650F
:101230004FEA5E134FF0FF3508BF05EB5E134FF426
:10124000004545EA83237B52528E0EE05FEACE676B
:101250004FEA5E134FF0FF3708BF07EB5E134FF402
:10126000004747EA83236B52128E1FFA8EF36146C2
:1012700002F07CFF2068317840F63F7330F821207F
:101280001A4048F2C003103B5A4020F8212093E452
:10129000002804BF01207047F0B585B0054690F8DE
:1012A000A90228B9002085F8A802284600F04CF8C9
:1012B000032085F8A902286802F0F8F9696869B383
:1012C00000204FF0010C0022002300BF02EB82023D
:1012D00005EBC20484F82830DAB20133E286DAB2D0
:1012E000914284F829C084F82B00C4E90E002064E0
:1012F000ECD800200023002203EB830305EBC3049A
:1013000084F868210132D3B2994284F8690184F8E3
:101310006B01C4E95E00C4F88001EDD805F1080E48
:1013200028689EE81C50D5E907678DE81050CDE984
:10133000036702F0ADF90020012185F8240085F84B
:10134000A91205B0F0BD000080B582B0006845F676
:101350000041C4F2000188421CBF02B080BD43F6C8
:101360002400C4F202000168002241F4000101607F
:101370000068002100F40000019001981420FFF79C
:1013800029FA142002B0BDE88040FFF713BA00002C
:1013900010B504468068022818BFFFF77DF8D4F81E
:1013A000E802012101F098FDD4F8E802BDE8104000
:1013B00001F052BD10B5044640F6EC10C2F2000038
:1013C00000F014FFD4F8E802BDE8104001F06EBD53
:1013D000D0F8E80201F072BD10B5044690F8A802FA
:1013E000012804BF022010BD012084F8A80284F85F
:1013F0002410206802F0B2FE002084F8A80210BD7C
:10140000D0F8E82200F52C71104601F07BBD0000F9
:1014100010B5D0F8E80201F0B9FD40F6EC14C2F2C4
:101420000004204600F094FE20680121416210BDB6
:101430002DE9F041002800F0AD8043F60807C4F222
:1014400002070446D7F8F8030D4600F00100884271
:1014500015D2012D05D1D7F8F80340F00400C7F8E4
:10146000F803D7F8F80320F001002843C7F8F80381
:10147000D7F8F80300F00100A84240F08B80206804
:10148000810705D53968A26821F0F0011143396060
:10149000C00735D1D7F8F80300F00100A84209D9F8
:1014A000D7F8F80320F00100C7F8F803D7F8F803DD
:1014B000C0076FD12068410705D53968E26821F47B
:1014C000E06111433960000706D53868216920F4CE
:1014D000605040EAC10038603968C1F38102501E93
:1014E000022842F20040C0F2F40027D3C2B957F8F4
:1014F000040C4FF48031C0F3423001FA00F01DE0DB
:101500006068012832D0032838D002283ED157F82D
:10151000081C89035CBF0120BDE8F0813EE000BFEC
:1015200044F61223C1F38342C0F600039A5CC1F370
:10153000815101313B685043B0FBF1F0396844F60A
:101540000222C1F30311C0F60002515C40F23C02DA
:1015500020FA01F140F21800C2F200000068C2F265
:1015600000021160BDE8F041FFF7D8B857F8081C39
:1015700089075CBF0120BDE8F0810FE057F8081C27
:1015800089015CBF0120BDE8F08107E057F8081C25
:10159000890503D40120BDE8F08100BF396821F03E
:1015A000030108433860FFF795F861680646032990
:1015B00041F288382BD0022937D0012910D100BF41
:1015C000386800F00C0004283FF464AFFFF782F89D
:1015D000801B40454FF00300F2D9BDE8F08100BF09
:1015E000386810F00C0F3FF455AFFFF773F8801B0D
:1015F00040454FF0030088BFBDE8F081F0E700BF31
:10160000FFF768F8801B40454FF00300E5D83868C5
:1016100000F00C000C28F3D13CE700BFFFF75AF8AC
:10162000801B40454FF00300D7D8386800F00C000D
:101630000828F3D12EE700002DE9F04383B00028FD
:1016400000F0AE8243F600060446C4F20206B0681B
:10165000B168227800F00C09D00701F4803710D06F
:10166000B9F1080F06D0B9F10C0F40F0E580002F5A
:1016700000F0E2803068800303D56068002800F045
:101680008F82207880072FD5B9F1040F1ED0B9F1D1
:101690000C0F08BF002F19D0E068002800F04C8123
:1016A0000020C4F2472001210160FFF713F805462E
:1016B0003068800711D4FFF70DF8401B02284FF067
:1016C0000300F5D903B0BDE8F08300BF30688007A0
:1016D00003D5E068012840F063827068216920F436
:1016E000F85040EA012070602078C00626D42078A7
:1016F00000073DD42078400750D4656ACDB1B9F1D8
:101700000C0F40F0D580012D00F04A82B068A16A2C
:1017100000F480328A4240F04382E16A00F47012A1
:101720008A4240F03D82216B00F44000884240F044
:101730003782002003B0BDE8F08300BFB9F1000F8D
:1017400066D0A069002800F09F800020C4F24720E6
:1017500001210162FEF7BEFF054600BF306880052B
:1017600000F1C880FEF7B6FF401B0228F6D927E13A
:101770006069002872D00020C4F247200121C0F81F
:101780008016FEF7A7FF0546706B8007B2D4FEF700
:10179000A1FF401B0228F7D912E100BF706A10F0C8
:1017A000805808D1706A40F080507062706A00F012
:1017B00080500090009847F20007C4F20007386894
:1017C000C00513D4386840F480703860FEF782FF9B
:1017D000054600BF3868C00508D4FEF77BFF401BF4
:1017E00064284FF00300F5D96CE700BFA06800281B
:1017F00000F0B680052800F0CD80012800F0CE80F2
:10180000706B20F480707063706B20F48060C8E0AF
:101810003068800503D5A069002800F0C181206AE6
:10182000716801F46041884272D9B16811F0F00F1B
:1018300000F0048100215BE16068002800F0CE80A8
:10184000052800F0E380012800F0E480306820F4EF
:1018500080303060306820F48020DEE00020C4F268
:1018600047200021C0F88016FEF734FF054600BF70
:10187000706B80077FF53EAFFEF72CFF401B022800
:101880004FF00300F4D91DE70020C4F247200021E7
:101890000162FEF71FFF0546306880057FF527AF20
:1018A000FEF718FF401B02284FF00300F4D909E7A8
:1018B0000027C4F2472700203866FEF70BFF022DF1
:1018C00005460BD13068800140F1CE80FEF702FF63
:1018D000401B02284FF00300F4D9F3E63068800182
:1018E0007FF527AFFEF7F6FE401B02284FF00300FE
:1018F000F4D9E7E67068D4E9072120F46040084392
:101900007060706820F07F4040EA02607060EEE630
:10191000716821F46041014371607168E26921F0EE
:101920007F4141EA02617160B16811F0F00F00F08F
:10193000B780002108E100BF0020C4F24720002149
:101940000160FEF7C7FE0546306880077FF5CCAE24
:10195000FEF7C0FE401B02284FF00300F4D9B1E6A9
:10196000706B20F480707063706B20F48060706323
:10197000FEF7B0FE054641F2883700BF706B800568
:1019800022D5FEF7A7FE401BB8424FF00300F5D961
:1019900098E600BF706B40F480607063706B40F439
:1019A00080707063FEF796FE054641F2883700BFEF
:1019B000706B800508D4FEF78DFE401BB842F7D946
:1019C000032003B0BDE8F083B8F1000F7FF495AEBB
:1019D000706A20F0805070628FE600BF306820F49B
:1019E00080303060306820F480203060FEF772FE76
:1019F000054600BF306880037FF543AEFEF76AFE00
:101A0000401B64284FF00300F4D95BE6306840F4D3
:101A100080203060306840F480303060FEF75AFE3D
:101A2000054600BF306880033FF52BAEFEF752FE3F
:101A3000401B64284FF00300F4D943E6716AC900E3
:101A400047F20001C4F2000140D4726A42F08052B1
:101A50007262726A02F080520192019A0A68716A97
:101A600021F08051716232E0B06804F128030ECB9E
:101A700020F47D00084310431843B060012038660D
:101A8000FEF728FE044600BF306880013FF551AEE6
:101A9000FEF720FE001B02284FF00300F4D911E6E8
:101AA000716AC90047F20001C4F200013AD4726AB7
:101AB00042F080527262726A02F080520292029A7E
:101AC0000A68716A21F0805171622CE00A68B0F5F1
:101AD000404F4FF000010BD102F4C052B2F5C05F8D
:101AE00006D1D6F8001441F00401C6F80014012113
:101AF000D6F8002422F001020A44C6F80024D6F8E1
:101B0000002402F001028A424AD1716821F4604146
:101B1000014371607168E26921F07F4141EA02612D
:101B200071601EE00A68B0F5404F4FF000010BD124
:101B300002F4C052B2F5C05F06D1D6F8001441F0ED
:101B40000401C6F800140121D6F8002422F0010295
:101B50000A44C6F80024D6F8002402F001028A42A2
:101B60001ED1B16844F60222C1F30311C0F600028F
:101B7000400B515C4FF4803202FA00F020FA01F180
:101B800040F21800C2F2000040F23C020068C2F2CB
:101B900000021160FEF7C2FD00287FF493ADA6E5B8
:101BA000012003B0BDE8F08370B538B10446406A47
:101BB00030B10020206104F1140007E0012070BD65
:101BC0006068B0F5827F03D004F11C000021016041
:101BD0000026A66294F8510020B9204684F850608F
:101BE00000F034F8022084F8510094E8071001F462
:101BF0008271036802F4044223F040030360236906
:101C000011440CF40062114403F0020263691144B0
:101C100003F00102A369E569114403F40072114461
:101C200005F03802256A114405F08002A56A1143C7
:101C300005F4005211430160042101EA134141609F
:101C40000120666584F85100304670BD80B586B0CD
:101C5000006843F60001C4F2000188424FF0000121
:101C60000591CDE90311CDE901111DD043F2000129
:101C7000C4F2010188423FD143F61C00C4F20200C5
:101C8000416841F480514160416801F48051009104
:101C90000099016841F002010160006800F0020053
:101CA00000900098382017E043F61C00C4F20200B0
:101CB000816841F480418160816801F48041009134
:101CC0000099016841F002010160006800F0020023
:101CD000009000984FF420400190022002900020D4
:101CE0000390032004900520059040F20040C4F2C8
:101CF000020001A9FEF7F8FB06B080BD2DE9F04314
:101D000083B0044690F85000012803D1022003B0AC
:101D1000BDE8F0834FF001091D4616460F4684F8D2
:101D20005090FEF7D7FC94F85110012972D18046EB
:101D3000002F4FF0010018BF002E00F0D6800320C6
:101D4000002184F8510061652763A686E686A163B9
:101D5000A187E187A0682164B0F5004F2068616425
:101D600007D1016821F040010160016841F4804120
:101D700001600168490603D4016841F04001016037
:101D80006168731EE268B1FA81F1B3FA83F349091D
:101D90005B09B2F5006F41EA03013DD131B137F87B
:101DA000021BC1602763E18E0139E186E18E0029C3
:101DB0006CD0691C1BD000BF8168890706D4FEF770
:101DC00089FCA0EB0800A84208D3C1E0216B31F8E0
:101DD000022BC2602163E08E0138E086E08E00288D
:101DE00054D0206881688907E9D5EFE720688168C9
:101DF000890703D4FEF76EFC08E000BF216B31F8C1
:101E0000022BC2602163E08E0138E086E08E00285C
:101E1000ECD13BE0022068E039B139780173206BE6
:101E200001302063E08E0138E086E08E70B3681CDC
:101E30000BD11BE0216B09780173206B013020630B
:101E4000E08E0138E086E08E00B320688168890763
:101E5000F0D4FEF73FFCA0EB0800A842F3D3032028
:101E600043E000BFFEF736FCE08E78B12068816861
:101E70008907F7D5216B09780173206B0130206346
:101E8000E08E0138E086E08E0028EFD140F23C0081
:101E9000C2F20000006849F68171C1F25E61A0FBE8
:101EA0000101480D4FF47A71484302906068B0F523
:101EB000827F23D1204680212A46434600F016FC2B
:101EC00028B1606D40F02000606520206065A0684A
:101ED00038B9002001902068C168019180680190A4
:101EE0000198606D002818BF0120002184F85190EE
:101EF00084F8501003B0BDE8F08300BF02980028BA
:101F0000E5D0029801380290206880680006DED58E
:101F100002980028DBD0029801380290206880687F
:101F20000006D4D502980028D1D00298013802903A
:101F3000206880680006CAD502980028C7D0029899
:101F400001380290206880680006D7D4BFE700BF40
:101F50000320CAE7411E0020B0EB116F1CBF012017
:101F600070474EF21002CEF2000251604EF623513D
:101F7000CEF20001F0230B700721906011607047D2
:101F800010B590F83820012A4FF0020233D080F8C3
:101F900039200268D2F804E0D2F808C00C682EF0AC
:101FA0007003234340F2FF74C4F20004A242536062
:101FB0000ADCB2F1804F13D040F20043C4F20003B8
:101FC0009A420DD011E000BF40F60003C4F20103B5
:101FD0009A4205D040F60003C4F200039A4204D1AD
:101FE00049682CF08003194391600121002280F898
:101FF000391080F83820104610BD0000002804BFBA
:102000000120704710B5044690F8390028B9002027
:1020100084F83800204600F061F8022084F8390086
:1020200020680168B0F1804F0BD040F60002C4F286
:102030000002904205D040F20042C4F200029042F9
:1020400003D1A26821F07001114340F2FF72C4F283
:102050000102904210DCB0F1804F1FD040F20042EC
:10206000C4F20002904219D040F60002C4F200020D
:10207000904213D016E000BF40F60002C4F2010205
:1020800090420BD041F20002C4F20102904205D00E
:1020900040F60042C4F20102904203D1226921F4C9
:1020A00040711143636921F08001D4F804C0E268F3
:1020B000194301600121C262C0F828C041610020BB
:1020C00084F83E1084F83A1084F83B1084F83C10F1
:1020D00084F83D1084F8391010BD000010B582B0AE
:1020E000006841F20041C4F20001884214D041F27C
:1020F0000001C4F20001884228D143F62400C4F252
:10210000020001682B2441F010010160006800F01A
:102110001000019001980DE043F62400C4F2020083
:1021200001682C2441F020010160006800F02000CB
:1021300000900098204600210022FEF74BFB20462D
:1021400002B0BDE81040FEF735BB00BF02B010BDC5
:1021500090F8391001291CBF01207047022180F836
:102160003910006840F2FF72C168C4F20002904268
:1021700041F00101C16009DCB0F1804F12D040F2A2
:102180000041C4F2000188420CD012E040F6000188
:10219000C4F20101884205D040F60001C4F20001FA
:1021A000884206D1816801F00701062904BF00209A
:1021B0007047016841F00101016000207047000094
:1021C0000146006841F21113026A1A4204D001224A
:1021D000002081F839207047026822F00102026075
:1021E0000122002081F83920704700000146006874
:1021F00041F21113C26822F00102C260026A1A425F
:1022000004D00122002081F839207047026822F0B2
:10221000010202600122002081F83920704700008D
:102220007047000010B5016804460869800744BF84
:10223000C8685FEA80702BD40869400744BFC8684B
:102240005FEA407030D40869000744BFC8685FEA9D
:10225000007037D40869C00644BFC8685FEAC06030
:102260003CD40869C0071CBFC8685FEAC07043D18E
:102270000869400646BFC8685FEA406010BD6FF05D
:10228000400220460A61BDE8104000F0DDB800BF02
:102290006FF002000861012020768869800733D042
:1022A0002046FFF7BDFF35E06FF004000861022013
:1022B0002076886910F4407F30D02046FFF7B0FFC9
:1022C00032E000BF6FF00800086104202076C86982
:1022D00080072DD02046FFF7A3FF2FE06FF01000FE
:1022E000086108202076C86910F4407F2AD0204673
:1022F000FFF796FF2CE000BF6FF001000861204659
:1023000000F0A0F82168B3E7204600F025F8204649
:1023100000F096F82168002020768DE7204600F036
:102320001BF8204600F08CF82168002020768AE710
:10233000204600F011F8204600F082F821680020C5
:10234000207687E7204600F007F8204600F078F86E
:1023500021680020207684E770470000002804BF31
:102360000120704770B5044690F839000E4628B930
:10237000002084F83800204600F060F8022084F83D
:10238000390020680168B0F1804F0BD040F60002A0
:10239000C4F20002904205D040F20042C4F20002B2
:1023A000904203D1A26821F07001114340F2FF7204
:1023B000C4F2010290420FDCB0F1804F1ED040F217
:1023C0000042C4F20002904218D040F60002C4F26B
:1023D0000002904212D015E040F60002C4F2010261
:1023E00090420BD041F20002C4F20102904205D0AB
:1023F00040F60042C4F20102904203D1226921F466
:1024000040711143636921F080016268E5681943F6
:1024100001600121C56282624161026822F0080206
:102420000260026832430260002084F83E1084F8A3
:102430003A1084F83B1084F8391070BD70470000E2
:10244000704700007047000070470000FEE7000082
:102450002DE9F04F87B0002743F61C00CDE9057742
:10246000C4F20200016840F2000B41F00401016077
:102470000168C4F2020B01F00401019101990168A5
:102480000BF5806541F0200101600168002201F038
:1024900020010191019901684FF49C5941F001011B
:1024A0000160016801F0010101910199016841F0A9
:1024B0000201016000684FF49C5100F0020001909D
:1024C00001982846FEF700F958464FF48071002223
:1024D0004FF48078FEF7F8F84FF4005002AE029007
:1024E0004FF0030A0BF500603146CDE903A7FDF775
:1024F000FBFF40F21940CDE9020A584631460497E5
:10250000FDF7F2FF48F2460002904FF48810CDE943
:10251000030758463146FDF7E7FF4FF42870029055
:102520004FF4441003900124584631460494FDF7BB
:10253000DBFF44F64740CDE9020A284631460497BE
:10254000FDF7D2FF28463146CDE90294CDE9047764
:10255000FDF7CAFF58463146CDE90284CDE904773C
:10256000FDF7C2FF172000210022FEF733F91720E4
:10257000FEF720F907B0BDE8F08F000080B540F607
:10258000FC0043F20001C2F20000C4F201014FF46A
:10259000827200234FF4007C80E80E000A21C0E91B
:1025A0000333C0E9053CC361C0E90833C0E90A311F
:1025B000FFF7FAFA002808BF80BDBDE88040FDF7AC
:1025C0006BBF000080B540F6541043F60001C2F224
:1025D0000000C4F200014FF48272002380E80E0074
:1025E00000F114014FF4007C4FF0180E81E8085000
:1025F0000A21C0E90333C0E90833C0E90A31FFF713
:10260000D3FA002808BF80BDBDE88040FDF744BF75
:1026100080B582B040F6AC1041F200020021C2F257
:102620000000C4F200024FF47A734FF4487CCDE905
:102630000011C0E90023C0E9021C4161FFF7DEFC84
:10264000002818BFFDF728FF40F6AC10C2F20000CA
:102650000821FFF783FE002818BFFDF71DFF40F695
:10266000AC10C2F200006946FFF78AFC002818BFD0
:10267000FDF712FF02B080BD80B582B040F6EC10CD
:1026800041F200420021C2F20000C4F2000242F214
:1026900010734FF4FA5CCDE90011C0E90023C0E9E2
:1026A000021C4161FFF7AAFC002818BFFDF7F4FEE9
:1026B00040F6EC10C2F200000821FFF74FFE0028A0
:1026C00018BFFDF7E9FE40F6EC10C2F200006946C3
:1026D000FFF756FC002818BFFDF7DEFE02B080BDF4
:1026E000FEE70000FEE70000704700002DE9F04122
:1026F00082B01E4690460D460446FDF7EBFF301AA9
:1027000000EB0807FDF7E6FF40F23C01C2F20001D2
:102710000968C1F3CB317943019121688A682A4065
:10272000AA4227D1064618F101001FD0FDF7D2FFBB
:10273000801BB84222D2019801990028A1F1010121
:1027400001912168896808BF074601EA0500A8428F
:10275000ECD00FE088682840A8420BD18868284058
:10276000A84207D188682840A84203D18868284039
:10277000A842EFD0002002B0BDE8F081D4E900010A
:102780004268B1F5827F22F0E00242600AD1A1687E
:10279000B1F5004F02D0B1F5806F03D1016821F08F
:1027A00040010160A16AB1F5005F07D1016821F421
:1027B00000510160016841F400510160012084F87A
:1027C0005100002084F85000032002B0BDE8F081E1
:1027D00070470000FDF784BF7047000010B540F659
:1027E000AC10C2F20000FFF7EBFC01F0E7FD00289F
:1027F00008BF01F0F3FF40F6EC14C2F200042046DB
:10280000FFF7A6FC20680121416201F077FD40F648
:10281000AC10C2F20000BDE81040FFF703BD00009D
:1028200010B540F6EC14C2F200042046FFF7C8FCD5
:1028300001F05CFD2046BDE81040FFF7F3BC00004E
:1028400080B5D0F88C2252689047002080BD0000EF
:1028500080B513460A46002100F0ECFA002080BD46
:1028600080B513460A46002100F09AFB002080BD87
:1028700080B50521C0F86C1200210022002300F071
:10288000D9FA002080BD000080B513460A46022117
:10289000C0F86C120021C0E9073300F081FB002072
:1028A00080BD000080B50421C0F86C120021002218
:1028B000002300F075FB002080BD000010B540F241
:1028C0007414C2F200040A4602A0214600F006F980
:1028D000204610BD43444320436F6E666967000085
:1028E00040F240001222C2F200000A80704700004D
:1028F00010B540F27414C2F200040A4602A0214648
:1029000000F0ECF8204610BD43444320496E746546
:10291000726661636500000040F254000422C2F256
:1029200000000A807047000010B540F27414C2F233
:1029300000040A4602A0214600F0D0F8204610BD4F
:102940004E6F4E616D65000010B540F27414C2F216
:1029500000040A4602A0214600F0C0F8204610BD3F
:102960005553425F4B4559484F4C44455200000077
:10297000B0B55020C1F6F870026883684FF01A0CA9
:102980009B18A1F800C000F0A3804FF0370C1A0F7D
:102990000CEB13714068B3F1204F38BF02F13001E6
:1029A00040F25802C2F20002917019014FF0000E7D
:1029B0000CEB117582F803E0C3F30364B1F1204F0F
:1029C00038BF04F13005190215710CEB117582F84E
:1029D00005E0C3F30354B1F1204F38BF04F13005D3
:1029E000190395710CEB117582F807E0C3F30344EA
:1029F000B1F1204F38BF04F13005190415720CEB0A
:102A0000117582F809E0C3F30334B1F1204F38BFE8
:102A100004F13005190595720CEB117582F80BE085
:102A2000C3F30324B1F1204F38BF04F13005190678
:102A30001573C3F303140CEB1175B1F1204F4FEA7A
:102A4000037103F00F0382F80DE038BF04F1300585
:102A500003F13704957382F80FE0B1F1204F38BFCE
:102A600003F13004010F0CEB1073147482F811E0C1
:102A7000B0F1204F38BF01F1300301010CEB1174AC
:102A8000937482F813E0C0F30363B1F1204F38BFB1
:102A900003F1300401021475C0F303530CEB1174FD
:102AA000B1F1204F4FEA003182F815E038BF03F151
:102AB00030040CEB1173947582F817E0C0F30340F7
:102AC000B1F1204F38BF00F13003137682F819E0DE
:102AD00040F25800C2F20000B0BD000010B500285E
:102AE00068D00378B3B100F1020E4FF0000C00BFC4
:102AF0001EF8013C93B19EF800309BB19EF8013066
:102B0000A3B19EF802300CF1040C002B0EF1040E60
:102B1000EED10DE04FF0000C0AE000BF4CF0010CCC
:102B200006E000BF4CF0020C02E000BF4CF0030CCA
:102B30005FFA8CFC022303EB4C03138003220B701F
:102B40004A7090F800E0BEF1000F33D0023002224C
:102B50004FF0000C1AE000BF141DE4B244F0010E67
:102B60000B5501F80EC04378002B08BF10BD941D13
:102B7000E4B244F0010E0B5501F80EC090F802E0EB
:102B80000832BEF1000F00F1040013D0D3B243F0BD
:102B9000010401F803E001F804C010F8013C4BB156
:102BA000941CE4B244F0010E0B5501F80EC00378FA
:102BB000002BD1D110BD0000002804BF02207047B7
:102BC00080B5D0F88C32002B1CBF0023C0F88C32AB
:102BD000002918BFC0F88812012180F87412027011
:102BE00000F0C0F8002080BD80B5D0F89802FDF755
:102BF00061FE40F200220223C100C0F2012204283B
:102C000038BF22FA01F3D8B280BD0000B0B5044647
:102C100071B1D4F88C02426942B194F8740203286D
:102C200004D120469047002054E000BF0220B0BDF0
:102C3000D4F86C02002818BF042805D12046802152
:102C400000F092F93DE000BF02283AD1D4E9081023
:102C5000814209D9081A83B22062204611461A46D9
:102C6000FFF7FEFD14E000BFE169814218D3B1FB1C
:102C7000F0F202FB101098B9D4F8700281420FD222
:102C80002046002100220025FFF7EAFDC4F870521B
:102C9000204600210022002300F0CCF811E000BF04
:102CA000D4F88C02C16829B194F87402032801D1C8
:102CB000204688472046802100F056F92046FFF73D
:102CC000D7FD94F8780201284FF0000004BF84F883
:102CD0007802B0BDB0BD0000B0B5044671B1D4F803
:102CE0008C02826942B194F87402032804D1204610
:102CF000904700251CE000BF0220B0BDD4F86C0254
:102D00000025052816D0032812D1D4E9531081429A
:102D100018D9091AC4F84C11814238BF084683B249
:102D2000204611461A46FFF793FD0020B0BD00BFB4
:102D30002846B0BD20460021C4F86C5200F014F9BA
:102D40002846B0BDD4F88C02016929B194F8740208
:102D5000032801D1204688472046FFF7A3FD002025
:102D6000B0BD000010B5044640F2106045F60041C9
:102D7000C2F20000C4F200010822022380E80E0023
:102D80000021C0F8E842C4F8980203618161016241
:102D9000FEF77EFA002818BFFDF77EFBD4F89802F4
:102DA000002100221823FDF751FDD4F8980280215C
:102DB00000225823FDF74AFDD4F898028121002211
:102DC000C023FDF743FDD4F89802012100224FF4FF
:102DD0008873FDF73BFDD4F89802822100224FF45E
:102DE0008073FDF733FD002010BD0000D0F898027D
:102DF00001F07F0202EB820200EBC20000F12A0226
:102E0000090658BF00F5B5721078704780B5944632
:102E1000D0F898021A466346FDF77CFD40F2002286
:102E20000223C100C0F20122042838BF22FA01F3B4
:102E3000D8B280BD80B5D0F89802FDF79BFD40F276
:102E400000220223C100C0F20122042838BF22FA66
:102E500001F3D8B280BD0000F0B581B0002100229E
:102E60004023044600254026FFF7D0FF01272046D7
:102E7000802100224023C4F84471C4F85061FFF758
:102E8000C5FFD4F89002A761666284F87472C4F832
:102E90006C526560C4F87C5228B1D4F88C020021D1
:102EA000426820469047002001B0F0BD90F875229E
:102EB0000146002081F874227047000080B590F828
:102EC0007412032905D1D0F88C12C969002918BFE2
:102ED0008847002080BD0000024600201174704722
:102EE00080B5D0F89802FEF777FA40F2002202236C
:102EF000C100C0F20122042838BF22FA01F3D8B27F
:102F000080BD0000B0B500F520750446284600F0ED
:102F100059F894F880020121B4F88622C4F86C12A2
:102F200000F01F010229C4F8702209D001290DD038
:102F300091B92046294600F05FF80020B0BD00BFDF
:102F40002046294600F0B2F90020B0BD20462946AF
:102F500000F052FA0020B0BD00F08001204600F0E1
:102F600003F80020B0BD000080B5D0F89802FDF74E
:102F70001BFD40F200220223C100C0F201220428FE
:102F800038BF22FA01F3D8B280BD0000014690F8A4
:102F90007402042281F87502002081F874227047BF
:102FA00080B5D0F89802FDF731FD40F200220223EF
:102FB000C100C0F20122042838BF22FA01F3D8B2BE
:102FC00080BD00000A7802704A7842704A884280C8
:102FD0008A888280C988C1807047000080B5D0F897
:102FE0008C223AB112689047002818BF0120400097
:102FF00080BD00BF022080BDB0B582B00D4609780B
:10300000044611F060010DD0402902D0202940F083
:103010000381D4F88C02294682682046904700201C
:1030200002B0B0BD6878092800F2F680DFE810F041
:103030000A002400F4003000F40066008A00F40066
:103040003800460094F874020138022800F2E48047
:10305000E888022840F0E080D4F87C0203220028AF
:1030600008BF0122214641F80C2F20460222FFF71B
:103070000BFC002002B0B0BD94F8740201380228A5
:1030800000F2CA8068880128C9D1002004E000BF8E
:1030900068880128C3D10120C4F87C02ECE000BF9D
:1030A000E888012840F0B88094F87402411E022993
:1030B00060D20020214641F8080F5EE0688840F2A7
:1030C0007015C1B2C2F200050229287080F0A480F8
:1030D00094F87402032857D0022840F07380002926
:1030E00000F0CA80032084F8740220466160FFF774
:1030F00075FF022840F0C0808EE000BFA88800283D
:1031000040F08A80E888002840F0868068887F2820
:1031100000F2828094F87412032900F07D80C5B219
:1031200084F8760220462946FFF7DAFE2046FFF7AC
:10313000B9FB002D0CBF0120022084F8740200208E
:1031400002B0B0BD68884FF0FF3101EB10210629B5
:1031500000F26280DFE801F004462A6060545E00FD
:10316000D4F888020268207C0DF1060190470146E0
:1031700071E000BF03284FD1211D20460122FFF737
:1031800083FB002002B0B0BD002951D06068012847
:1031900000F07280C1B22046FFF752FB297820462A
:1031A0006160FFF71BFF022866D135E0C0B2052839
:1031B00032D8DFE800F003676B6F7377D4F88802CA
:1031C0004268D0E720468021FFF7CEFE204600214E
:1031D000FFF7CAFE29782046FFF732FB002002B035
:1031E000B0BD00BF217CD4F88C0200290CBF816ADD
:1031F000C16A0DF106008847014602202AE000BF9F
:10320000207C48B9D4F88C02416B0DF10600884748
:10321000ADE700BF207CA8B120468021FFF7A4FEC7
:1032200020460021FFF7A0FE002002B0B0BD00BF85
:10323000022084F87402002060602046FFF700FB43
:103240001AE000BFD4F88C02016B0DF1060088472C
:10325000014607204870BDF8060048B1EA883AB137
:10326000904238BF02462046ADF80620FFF70CFB1F
:10327000E88800287FF4D3AE2046FFF713FB002038
:1032800002B0B0BDD4F8880282686CE7D4F8880236
:10329000C26868E7D4F88802026964E7D4F8880253
:1032A000426960E7D4F8880282695CE7B0B50A46F3
:1032B0000978044611F060010CD0402901D0202982
:1032C00020D1D4F88C02114683682046984700200C
:1032D000B0BD00BF50781179F0B1012836D0032875
:1032E00068D194F87402032834D15088002873D12F
:1032F00011F07F0070D0D08800286DD12046FFF7F4
:1033000033FE69E020468021FFF72EFE2046002193
:10331000FFF72AFE0020B0BD94F87402032827D0DE
:10332000022808BF5FEA416044D101F07F0000EB52
:10333000800004EB800000F11402090658BF00F57C
:10334000A07200201060204611464FE094F87402ED
:10335000032839D002282DD148062BD02046FFF76C
:1033600003FE20468021FFF7FFFD0020B0BD00BF17
:1033700001F00F0202EB820211F0800004EB8202E6
:1033800014BF9269D2F84421A2B101F07F0202EB8E
:10339000820204EB820202F11405002808BF02F544
:1033A000A07548061ED02046FFF720FDD0B10120B1
:1033B00019E000BF20468021FFF7D6FD20460021FE
:1033C000FFF7D2FD0020B0BD50880028A2D14806EA
:1033D00002D02046FFF708FC2046FFF763FA0020E2
:1033E000B0BD00BF00202860204629460222FFF71A
:1033F0004BFA0020B0BD0000B0B50D460978044678
:1034000011F0600118BF402912D194F874020138FC
:10341000022803D8A88810F0FE0F15D0204680217E
:10342000FFF7A2FD20460021FFF79EFD0020B0BD62
:103430002029EAD020468021FFF796FD2046002172
:10344000FFF792FD0BE000BFD4F88C02294682689A
:1034500020469047E988002908BF002802D00020B4
:10346000B0BD00BF2046FFF71DFA0020B0BD000030
:10347000F0B50C78024691F803E000EB840730F8D1
:10348000240047F27063BEF1030F20EA030309D85A
:103490000020DFE80EF00309100D00BF43F40073B5
:1034A00008E000BF012006E043F4806302E000BFB3
:1034B00043F4C063002048F28005CFF6FF752B432C
:1034C0003B803B8840F60F76334023432B433B80C1
:1034D0000B7B48F2800C002B44D03B8840F60F65F4
:1034E0002B400CF580752B433B80B2F850300D8992
:1034F00002EB0414234425F00105A3F80054B2F8AC
:1035000050204B89224423F00103A2F80834497863
:103510003A88002902F480414AD039B1398840F60E
:103520000F7211400CF580421143398039884906E9
:1035300007D5398840F60F7211400CF14002114353
:103540003980398840F63F7211400CF120024A4020
:10355000BEF1010F08BF41EA0C023A80398843F6F8
:103560000F7244E04D78B2F85030002D4FEA041449
:1035700042D0C98822441A4421F00101A2F8001463
:103580003988490607D5398840F60F7211400CF189
:10359000400211433980398840F63F72BEF1010F75
:1035A00001EA020124D00CF1200251403980F0BD23
:1035B00039B1398840F60F7211400CF58042114341
:1035C00039803988490607D5398840F60F7211408D
:1035D0000CF1400211433980398843F60F721140D3
:1035E0000CF5405251403980398840F63F72114005
:1035F00041EA0C013980F0BDCD881619334425F01D
:103600000105A3F80854B2F850200B6906F20C41EA
:1036100063B13E2B1AD803F0010606EB53039B025D
:103620005352398849042AD521E000BF535A48F241
:10363000000623F4F8435352535ACFF6FF76334330
:103640005352398849041AD511E000BF5E094FF082
:10365000FF35DC0608BF05EB531648F20003CFF632
:10366000FF7343EA862353523988490407D53988C2
:1036700040F60F7211400CF58042114339803988B1
:1036800043F60F7211400CF5405251403980F0BDA5
:1036900001460120A1F8400000220020A1F84020AE
:1036A000A1F84420A1F85020704700000146B0F86E
:1036B000400044F2FF0202400020A1F84020704781
:1036C00080B50A7B12B1002080BD00BF0A784B781C
:1036D00030F822C04FEA4202B3B15FEA4C6348F2CD
:1036E000A00E0BD530F812C040F60F730CEA030C95
:1036F0000EF1200343EA0C0320F81230C9780129A7
:10370000E1D040F63F7110E05FEA4C414BF2800E91
:1037100009D530F8121040F60F7319400EF580539A
:10372000194320F8121043F60F7130F81230194087
:1037300081EA0E0120F81210002080BD02460B78AD
:10374000487832F823C040F63F71002848F29000D4
:1037500008BF43F60F71CFF6FF7008BF00F57F601A
:1037600001EA0C014140002022F8231070470000BC
:103770002DE9F04F81B04A78012A55D18A69D1F8F4
:1037800010900F7B4A4588BF4A46002F48F2801BA5
:103790006CD0CF78022F40F0A9800D780C6A30F8F9
:1037A000257040F60F664FEA450E4C4507EA0607BE
:1037B00040F2008147EA0B07A4EB020820F81E70D4
:1037C000C1F8208030F81E70B0F850607F064FEAD4
:1037D000051700EB070300F15D819F190093A7F81F
:1037E0000424D1F814A0170400F088830F894FF047
:1037F000FF3600EB470707F5806B97B20137C7F339
:10380000410506EB5704002D4FEA5707D44600F058
:1038100062833CF8023B5E46012D26F8043B40F0F3
:103820003B82013FB34656E30B7B002B42D0CB7863
:10383000012B00F09D80022B40F0B880002A40F060
:10384000F381B0F850300A780F6903441201002F59
:1038500003F2044300F0A2813F2F80F0D18107F0F2
:10386000010606EB5707BF02D7E100BF130400F0C3
:103870006381CB88D1F814C000EB430303F5806863
:1038800093B201334FF0FF37C3F3410407EB530EFC
:10389000002C4FEA530300F03C81674637F8025B87
:1038A0004646012C26F8045B40F01C81013BBC46D7
:1038B000B0462EE18B690A699F1A38BF00278F61D5
:1038C000B0F850700E78074488BF13463201002BC1
:1038D00007F20C4700F0C6803E2B00F2CD8003F0CB
:1038E000010606EB53039B02D353C9E10F7840F660
:1038F0000F6530F827604FEA470E2E4046EA0B0668
:1039000020F827600E6AB41A0C6230F82760B0F80D
:1039100050503F01760600EB07087BD408EB050307
:10392000A3F80424D1F814A0130400F0EF810B894C
:10393000CDF800E000EB430303F5806B93B25F1C0E
:103940004FF0FF33C7F3410503EB570E002D4FEA4D
:103950005707D44600F0C5813CF8023B5E46012D76
:1039600026F8043B40F0F480013FB346B9E100BFC4
:103970000F698B69DE1B38BF002688BF3B46002AD3
:103980008E6140F07D81B0F850700A7807441201D2
:10399000002B07F2044700F01B813F2B80F05C8175
:1039A00003F0010606EB53039B0262E1012001B024
:1039B000BDE8F08FABF580723A4320F81E20B0F8D6
:1039C000502000EB05131A442304A2F8044400F02D
:1039D00021830B894A6900EB430101F58067A1B29D
:1039E00001314FF0FF33C1F3410503EB510C002DC2
:1039F0004FEA510100F0C981164636F8024B3B46AA
:103A0000012D23F8044B40F0B180013932461F46A6
:103A1000BBE100BF08EB0507A7F80C24D1F814A000
:103A2000170400F0E5814F8995B26E1C4FF0FF3509
:103A300000EB470705EB5603C6F3410507F5806C1D
:103A4000002D4FEA560759D05646CDF800E036F81B
:103A500002EBE346012D2BF804EB40F09180013F8F
:103A6000DC46B0E1D35B23F4F843D353D35B43F498
:103A70000043D35304E100BF5E094FF0FF35DC067D
:103A800008BF05EB53164FF4004343EA8623D35394
:103A9000F6E000BF9F190093A7F80C24D1F814A0FA
:103AA000170400F083824F894FF0FF3600EB470781
:103AB00007F5806B97B20137C7F3410506EB570452
:103AC000002D4FEA5707D44600F05D823CF8023BD8
:103AD0005E46012D26F8043B40F0EC80013FB346E2
:103AE00051E200BFBCF80250022CA8F8045007D1E4
:103AF00008F108080CF1040C023B0AE0564666E1A6
:103B0000BCF804400CF1060CA8F8084008F10C08B9
:103B1000033BBEF1030F0FD3ACF10807A8F1100669
:103B200037F8085F043B26F8105F7D88B580BD88B4
:103B30003581FD88B581F3D1B0F850300978034460
:103B400003EB0113A3F804244FEA410E62E200BF25
:103B5000BAF80230022DABF8043040F0B9800BF116
:103B6000080B0AF1040C023FBBE000BF5388022D92
:103B7000BB8040F0058108370432023905E100BFFF
:103B8000BAF80260022DACF8046040F013810CF129
:103B9000080C0AF10406023F15E100BFD75A27F4CA
:103BA000F847D752D75A47F40047D752B0F85030A9
:103BB00003441A44B2F80C3423F4F843A2F80C344A
:103BC000B2F80C3443F40043A2F80C342CE000BFEC
:103BD000D35B23F4F843D353D35B43F40043D35371
:103BE000B0F8503003441A44B2F80C3423F4F843CC
:103BF000A2F80C34B2F80C3443F400433EE000BFAA
:103C00007E094FF0FF35FC0608BF05EB571648F25A
:103C10000007CFF6FF7747EA8627D752B0F8503033
:103C200003441A44A2F80C74CA694AB30A7844F2ED
:103C3000400730F822303B40BB4200D003BB52006B
:103C400030F8123040F60F773B40A3F5FD43C03B00
:103C500020F8123014E000BF5E094FF0FF35DC069B
:103C600008BF05EB531648F20003CFF6FF7343EA93
:103C70008623D353B0F8507007443A44A2F80C346A
:103C8000097843F60F7200EB810048F28011CFF6FD
:103C9000FF7101F53C51C3E1BAF80260022DABF8A7
:103CA000046040F00F810BF1080B0AF1040C023F95
:103CB00011E100BFBAF80260022DABF8046040F0D9
:103CC00059810BF1080B0AF1040C023F5BE100BFC4
:103CD000BAF804300AF1060CABF808300BF10C0B03
:103CE000033FBEF1030FDDF800E00FD3ACF108068F
:103CF000ABF1100536F8083F043F25F8103F7388F4
:103D0000AB80B3882B81F388AB81F3D10AEB020639
:103D100000234C454E6184BFA31A1446002C0B624D
:103D200000F07681B0F850202304424448F2801B12
:103D3000A2F80C4400F06E8149894FF0FF3200EB8D
:103D4000410101F58067A1B20131C1F3410402EBE9
:103D50005103002C4FEA510100F0858036F8025BD8
:103D60003A46012C22F8045B02D1013917467AE069
:103D700036F8022B022CBA8070D10837023972E073
:103D8000938806323B810C370339BCF1030FC0F036
:103D90004181083AA7F1100332F8087F043923F86B
:103DA000107F57889F8097881F81D7889F81F3D184
:103DB00030E100BFBAF80460033FACF808600CF1D2
:103DC0000C0C0AF10606DDF800E048F2801B032B1C
:103DD0000ED3083EACF1100536F8083F043F25F835
:103DE000103F7388AB80B3882B81F388AB81F3D10C
:103DF0000AEB020600234C454E6184BFA31A144609
:103E0000002C0B6200F00681B0F8502023044244DD
:103E1000A2F8044400F0FE8009894FF0FF3200EB65
:103E2000410101F58067A1B20131C1F3410402EB08
:103E300051034FEA510184B336F8025B3A46012C34
:103E400022F8045B02D10139174626E036F8022B2E
:103E5000022CBA801CD1083702391EE036F8022B3A
:103E600003393A810C37032BC0F0D480A6F1080344
:103E7000A7F1100233F8087F043922F8107F5F8819
:103E800097809F881781DF889781F3D1C2E000BFB8
:103E900036F8022B03393A810C37032BC0F0BA8075
:103EA000A6F10803A7F1100233F8087F043922F8BD
:103EB000107F5F8897809F881781DF889781F3D173
:103EC000A8E000BFBAF804600AF1060CABF808607D
:103ED0000BF10C0B033F032C10D3ACF10806ABF134
:103EE000100500BF36F8084F043F25F8104F7488BE
:103EF000AC80B4882C81F488AC81F3D10AEB020643
:103F000000274E61C84588BFA8EB02070F62B0F8D2
:103F1000503088BF9046009A1A445FEA0843A2F8DE
:103F20000C8475D049894FF0FF3200EB410101F557
:103F300080671FFA88F10131C1F3410402EB51039C
:103F4000002C4FEA510148F2801B00F07E8036F8C9
:103F5000025B3A46012C22F8045B03D10139174673
:103F600073E000BF36F8022B022CBA8068D1083704
:103F700002396AE0BAF804600AF1060CABF808608E
:103F80000BF10C0B033F032C10D3ACF10806ABF183
:103F9000100500BF36F8084F043F25F8104F74880D
:103FA000AC80B4882C81F488AC81F3D10AEB020692
:103FB00000274E61C84588BFA8EB02070F62B0F822
:103FC000503088BF9046009A1A445FEA0843A2F82E
:103FD00004841DD009894FF0FF3200EB410101F547
:103FE00080671FFA88F10131C1F3410402EB5103EC
:103FF000002C4FEA510148F2801B40D036F8025B9A
:104000003A46012C22F8045B12D10139174636E0FA
:1040100048F2801B00EB4E00ABF1D00140F63F723E
:1040200003881A4051400180002001B0BDE8F08FA4
:1040300036F8022B022CBA801CD1083702391EE058
:1040400036F8022B03393A810C37032BE2D3A6F161
:104050000803A7F1100200BF33F8087F043922F8E3
:10406000107F5F8897809F881781DF889781F3D1C1
:10407000D0E700BF36F8022B03393A810C37032B07
:10408000C8D3A6F10803A7F1100200BF33F8087FD8
:10409000043922F8107F5F8897809F881781DF8816
:1040A0009781F3D1B6E7000040F21060C2F2000041
:1040B000FCF7C8BCB0F844007047000070B500EBD6
:1040C0004200022B00F5806441D34FF0FF32C3F36E
:1040D0004105580802EB530C55B1224632F8046BE7
:1040E0008E46012D2EF8026B08D1013817E000BF73
:1040F0002246BCF1030F14462AD315E0A288022DF4
:104100004A8005D101F1040E04F10802023806E0EC
:10411000228901F1060E8A8004F10C0203387146EF
:10412000BCF1030F144613D332F8106B043821F896
:10413000086B32F80C6C21F8066C32F8086C21F828
:10414000046C32F8046C21F8026CEDD114468E46F2
:10415000D8071CBF20888EF8000070BD002904BF5E
:104160008021A0F84C10002070470000B0B5002B53
:104170003ED000EB420000F5806E581C4FF0FF323D
:10418000C0F3410302EB500C4FEA5000EBB10A467A
:1041900032F8025B7446012B24F8045B04D1013829
:1041A0001146A64611E000BF4A88022BAEF8042053
:1041B00004D10EF1080E0431023806E08A88063177
:1041C000AEF808200EF10C0E0338BCF1030F38BF17
:1041D000B0BD0839AEF1100231F8083F043822F8BA
:1041E000103F4B8893808B881381CB889381F3D1C8
:1041F000B0BD0000FEE7000092B0FCF77FFA00249B
:1042000047F200000D94CDE90B44CDE90944CDE916
:104210000744C4F200000168012262F3CC2101606E
:104220004FF480300F904FF4002010904FF40000B6
:104230000225119005A8CDE905220E95FDF7FCF9A0
:1042400020B1EFF3108072B6FEE700BF0F20CDE97A
:10425000000568460021CDE902440494FDF7E8F822
:1042600020B1EFF3108072B6FEE700BF40F20044C9
:104270004FF60040C4F20204CFF6FF704FF0FF315A
:1042800021502160C4F80014FEF7E2F8FEF7C0F9EF
:10429000FEF7F2F9FEF772F9FEF794F940F2743086
:1042A00040F22001C2F20000C2F200010022FEF73B
:1042B00083FC28B1EFF3108072B600BFFEE700BFA9
:1042C000204680210022FCF7FFF96420FCF7EAF881
:1042D00000F07AF8012000F063F800F087FA4FF45C
:1042E0007A70FCF7DFF800BFFEE7000040F62C20F4
:1042F000C2F20000012101707047000040F630203A
:10430000C2F200000268EAB140F2E00CC2F2000C16
:1043100001210023D007ACF800108CF803301DD128
:1043200090071FD4500721D4100723D4D00625D4DA
:10433000900627D4500629D4100644BF08218CF8D3
:10434000021026E040F2E000C2F200008178C17065
:10435000002181704FF4807101801AE08CF8021006
:1043600017E000BF02218CF8021012E003218CF844
:1043700002100EE004218CF802100AE005218CF8EE
:10438000021006E006218CF8021002E007218CF8EA
:10439000021040F20000C2F200000121417070479B
:1043A00080B50246002840F2F000C2F200004FF053
:1043B000800118BFFF22FBF779FF80BD40F2D800D3
:1043C000C2F20000007870472DE9F04381B040F25E
:1043D0000044C4F2020420464FF40071002200267B
:1043E000FCF772F90A20FCF75DF820464FF40071E3
:1043F00001224FF00108FCF767F90A20FCF752F898
:104400005020FCF74FF840F2D807AE20C2F2000768
:104410008DF8030020464FF480710022BE703E707C
:10442000FCF752F940F65415C2F200050DF10301F4
:10443000284601224FF47A73FDF760FC4FF0200903
:1044400020464FF4807100228DF80390FCF73CF970
:104450000DF10301284601224FF47A73FDF74EFC5B
:1044600020464FF4807100228DF80360FCF72CF990
:104470000DF10301284601224FF47A73FDF73EFC4B
:10448000B0208DF8030020464FF480710022FCF725
:104490001BF90DF10301284601224FF47A73FDF751
:1044A0002DFCC8208DF8030020464FF480710022B7
:1044B000FCF70AF90DF10301284601224FF47A7343
:1044C000FDF71CFC20464FF4807100228DF803603C
:1044D000FCF7FAF80DF10301284601224FF47A7334
:1044E000FDF70CFC10208DF8030020464FF480717E
:1044F0000022FCF7E9F80DF10301284601224FF4F0
:104500007A73FDF7FBFB40208DF8030020464FF443
:1045100080710022FCF7D8F80DF103012846012232
:104520004FF47A73FDF7EAFB81208DF803002046F3
:104530004FF480710022FCF7C7F80DF10301284603
:1045400001224FF47A73FDF7D9FBFF208DF80300A9
:1045500020464FF480710022FCF7B6F80DF10301FC
:10456000284601224FF47A73FDF7C8FBA1208DF88D
:10457000030020464FF480710022FCF7A5F80DF1EE
:104580000301284601224FF47A73FDF7B7FBA620FA
:104590008DF8030020464FF480710022FCF794F858
:1045A0000DF10301284601224FF47A73FDF7A6FBB3
:1045B000A8208DF8030020464FF480710022FCF7FC
:1045C00083F80DF10301284601224FF47A73FDF7B9
:1045D00095FB1F208DF8030020464FF480710022C8
:1045E000FCF772F80DF10301284601224FF47A73AB
:1045F000FDF784FBA4208DF8030020464FF4807162
:104600000022FCF761F80DF10301284601224FF466
:104610007A73FDF773FBD3208DF8030020464FF427
:1046200080710022FCF750F80DF1030128460122A9
:104630004FF47A73FDF762FB20464FF4807100223D
:104640008DF80360FCF740F80DF1030128460122C4
:104650004FF47A73FDF752FBD5208DF80300204606
:104660004FF480710022FCF72FF80DF1030128466A
:1046700001224FF47A73FDF741FBF0208DF803001F
:1046800020464FF480710022FCF71EF80DF1030163
:10469000284601224FF47A73FDF730FBD9208DF8BC
:1046A000030020464FF480710022FCF70DF80DF155
:1046B0000301284601224FF47A73FDF71FFB2220E5
:1046C0008DF8030020464FF480710022FBF7FCFFB9
:1046D0000DF10301284601224FF47A73FDF70EFB1A
:1046E000DA208DF8030020464FF480710022FBF79A
:1046F000EBFF0DF10301284601224FF47A73FDF719
:10470000FDFA02208DF8030020464FF4807100224C
:10471000FBF7DAFF0DF10301284601224FF47A730B
:10472000FDF7ECFADB208DF8030020464FF4807192
:104730000022FBF7C9FF0DF10301284601224FF4C7
:104740007A73FDF7DBFA20464FF4807100228DF872
:104750000390FBF7B9FF0DF10301284601224FF446
:104760007A73FDF7CBFA8D208DF8030020464FF4C5
:1047700080710022FBF7A8FF0DF1030128460122FA
:104780004FF47A73FDF7BAFA14208DF8030020462F
:104790004FF480710022FBF797FF0DF103012846CB
:1047A00001224FF47A73FDF7A9FAAF208DF80300C8
:1047B00020464FF480710022BE7087F80080FBF71E
:1047C00083FF0DF10301284601224FF47A73FDF7B0
:1047D00095FA7E6001B0BDE8F083000040F2D80099
:1047E000C2F2000001218170704700002DE9F04FF6
:1047F00081B040F20044B020C4F202048DF8010000
:1048000020464FF4807100224FF0000AFBF75CFF56
:1048100040F65415C2F200050DF101082846414644
:1048200001224FF47A73FDF769FA20464FF4807144
:1048300000228DF802A0FBF747FF0DF10209284680
:10484000494601224FF47A73FDF758FA4FF0100BE6
:1048500020464FF4807100228DF803B0FBF734FF3F
:104860000DF103062846314601224FF47A73FDF715
:1048700045FA20464FF480710122FBF725FF40F2F4
:10488000F007C2F200072846394620224FF47A7317
:10489000FDF734FAB1208DF8010020464FF4807105
:1048A0000022FBF711FF2846414601224FF47A739C
:1048B000FDF724FA20464FF4807100228DF802A003
:1048C000FBF702FF2846494601224FF47A73FDF7B1
:1048D00015FA20464FF4807100228DF803B0FBF7E3
:1048E000F3FE2846314601224FF47A73FDF706FAAB
:1048F00020464FF480710122FBF7E6FE07F120010C
:10490000284620224FF47A73FDF7F8F9B2208DF88B
:10491000010020464FF480710022FBF7D5FE2846A7
:10492000414601224FF47A73FDF7E8F920464FF42F
:10493000807100228DF802A0FBF7C6FE284649468A
:1049400001224FF47A73FDF7D9F920464FF48071B4
:1049500000228DF803B0FBF7B7FE2846314601224E
:104960004FF47A73FDF7CAF920464FF480710122A3
:10497000FBF7AAFE07F14001284620224FF47A7384
:10498000FDF7BCF9B3208DF8010020464FF480718B
:104990000022FBF799FE2846414601224FF47A7324
:1049A000FDF7ACF920464FF4807100228DF802A08B
:1049B000FBF78AFE2846494601224FF47A73FDF739
:1049C0009DF920464FF4807100228DF803B0FBF76B
:1049D0007BFE2846314601224FF47A73FDF78EF9AB
:1049E00020464FF480710122FBF76EFE07F1600153
:1049F000284620224FF47A73FDF780F901B0BDE814
:104A0000F08F000000000000000001020304060710
:104A10000809030406080C1018203003FFFF0007E4
:104A2000FFFF800FFFFFC00F0003C00E0001C00E8C
:104A30000001C00E0001C00E0001C00E0001C00E3A
:104A40000001C00E0001C00E0001C07FFFFFF87F13
:104A5000FFFFF86000001860000018600780186011
:104A60000FC018600FC018600FC018600FC018602A
:104A700007801860030018600300186003001860C6
:104A800003001860000018600000187FFFFFF87F27
:104A9000FFFFF80FFFF0000FFFF8000C001C000CE8
:104AA000000E000CFC07000C0003800C00F9C00C89
:104AB00001FCC00CF3CEC00C0386C00C0386C00CF6
:104AC00003CEC00CC7FEC00C0FFCC00C1FF8C00CFE
:104AD0003E00C00C7E00C00CF81CC00DF800C00DDC
:104AE000E000C00CE000C00C01FCC00C0000C00CD9
:104AF0000000C00C0000C00CFFFCC00C0000C00C8B
:104B00000000C00FFFFFC00FFFFFC00007800000C4
:104B10000FC0000C0FC0C01E0FC1E03F3FF3F03FBD
:104B2000FFFFF01FFFFFE00FFFFFC007F87F8007C8
:104B3000E01F800FC00FC00F8787C07F8FC7F8FFAF
:104B40001CE3FCFF1863FCFF1863FCFF1CE3FC7F05
:104B50008FC7F80F8787C00FC00FC007E01F8007FF
:104B6000F87F800FFFFFC01FFFFFE03FFFFFF03F18
:104B70003FF3F01E0FC1E00C0FC0C0000FC00000DB
:104B8000078000C18F87F8C19FC7FCC198060CC180
:104B900098060CC198060CC19F87F8C18FC7F8C151
:104BA00080C60CC180C60CE380C60C7F1FC7FC3ECC
:104BB0000F87F8000000000000007000000020FFD8
:104BC000FFFFFC8000002480000024A4A4A4A4957E
:104BD0001515248E0E0E248E0E0E2495151524A464
:104BE000A4A4A48000002480000024FFFFFFFC0098
:104BF000000020000000700000000000204C0008B1
:104C0000000000207800000030010008984C0008E7
:104C100078000020C00F00004C01000800000000D8
:104C2000FF010202020000000B4B0008934A00083B
:104C3000834B00081B4A0008100000000100000020
:104C4000E128000819290008292900084929000835
:104C500071290008BD280008F128000868FF1F001E
:104C600012010002020200408304405700020102C8
:104C700003010000040309041A03000000000000FF
:104C80000000000000000000000000000000000024
:084C900000000000000000001C
:04000005080000F5FA
:00000001FF
